:020000040800F2
:100000007009002045010008053A00084D2F00083E
:10001000BD390008EB0C0008F9450008000000009D
:10002000000000000000000000000000713B00081C
:10003000ED0C000800000000073A0008393E0008F7
:100040005F0100085F0100085F0100085F01000810
:100050005F0100085F0100085F0100085F01000800
:100060005F0100085F0100085F0100085F010008F0
:100070005F0100085F0100085F0100085F010008E0
:100080005F0100085F0100085F0100085F010008D0
:100090005F0100085F0100085F0100085F010008C0
:1000A0005F0100085F0100085F0100085F010008B0
:1000B0005F0100085F0100085F0100085F010008A0
:1000C0005F0100085F0100085F0100085F01000890
:1000D0005F0100080944000829440008ED450008B4
:1000E0005F0100085F0100085F0100085F01000870
:1000F0005F0100085F0100085F0100085F01000860
:100100005F0100085F0100085F0100085F0100084F
:100110005F0100085F010008B93E00085F010008A8
:100120005F0100085F0100085F0100085F0100082F
:10013000DFF80CD000F0EAFC004800470D6B000827
:10014000700900200648804706480047FEE7FEE7A2
:10015000FEE7FEE7FEE7FEE7FEE7FEE7FEE7FEE777
:10016000B73E0008310100082DE9F0410024061BCC
:10017000254671F1000605DA01240027D0EB0700BF
:1001800067EB0101161E73F1000605DA0027D2EBBA
:100190000702012567EB030300F082FB86460E464B
:1001A00017469C46AC4204D00025D0EB050E65EB0B
:1001B000010624B10020D2EB000760EB030C70466F
:1001C00031463A466346BDE8F081202A04DB203AF6
:1001D00021FA02F00021704721FA02F3D040C2F167
:1001E00020029140084319467047D2B201E000F85E
:1001F000012B491EFBD270470022F6E710B51346CB
:100200000A4604461946FFF7F0FF204610BD30B5F8
:1002100005462A460B4612F8010B13F8014B08B1AC
:10022000A042F8D01CB1002802D06D1CF1E728468E
:1002300030BD30B504460020034600E05B1C93420D
:1002400003D2E05CCD5C401BF8D030BD70B50646F3
:1002500004F008FA046805460A220021304600F03E
:1002600071FB2C6070BDF0B480EA0102D40F420033
:10027000B2EB410F02D20246084611464A0042D074
:10028000C30DDDB2C1F3C752AD1A202D35DAC1F36B
:10029000160141F4000204B15242C5F1200602FAEF
:1002A00006F12A411044B3EBD05F23D0C4B1012D35
:1002B000A0EBC35009DCF0BC4FF0004202EAC3528D
:1002C000DBB200F5000000F07EBB400000F1807062
:1002D00000EBC350A0F1807040EAD170490009E002
:1002E000490841EAC071A0EBC35000F50000400886
:1002F00000EBC350F0BC00F05DBB6142012202EB99
:100300004101001BF6E7F0BC704781F00041AAE70D
:1003100080F00040A7E780EA010210B502F0004338
:10032000400022D04A001FD0010E01EB1261C0F341
:100330005600C2F3560240F4000042F40002A0FB53
:10034000022000047F39140400D0401C50EA1240FF
:1003500001D44000491EC2B20C0604EBD010401C70
:100360004008802A02D003E0002010BD20F00100E8
:10037000002900DA0020184310BD30B480EA0102E1
:1003800002F0004530F0004221F0004013D090B15F
:10039000C30DD40DC2F31601C0F31600E41A41F4E4
:1003A000000140F400027D34914201D3641C00E05E
:1003B0004900002C02DA30BC002070474FF40000E6
:1003C0000023914201D3891A034340084FEA4101B7
:1003D000F7D151B1914202D14FF0004105E002D274
:1003E0004FF0010101E06FF0010103EBC45028441C
:1003F00030BC00F0DFBA420005D0C0F3C752524211
:10040000914201DC0020704700EBC15070472DE99C
:10041000FE4F804681EA0300C00F0C46009021F099
:10042000004123F00045B8EB0200A94105D2404647
:10043000214690461C460B46024623F000401043DE
:1004400047D0270DC7F30A00C3F30A510290401AA0
:10045000019040286BDAC3F3130040F4801B00982E
:10046000924620B10023D2EB030A63EB0B0B0198F9
:100470005946C0F14002504600F043FA06460D4688
:1004800050465946019A00F04BFA10EB08006141C2
:10049000002487EA115284EAE7731A4340D0009A95
:1004A00062B3019A012A4FEA075215DC001B61EB87
:1004B00002014FF0004202EA0752CDE90042001C5F
:1004C00041F5801132462B4600F0BAFA03B0BDE880
:1004D000F08F40462146F9E7001B61EB0201001C4A
:1004E00041F5801300185B412018A2F5001747EB77
:1004F000030140EAD570B6196D4111E06D084FEA6D
:10050000360645EAC0754FEA0752001B61EB02014F
:10051000001C41F5801149084FEA30000019514193
:1005200032462B4603B0BDE8F04F00F07ABA00988F
:10053000012240000023D0EB020263EBE07300983D
:1005400021464FEAE074B8EB000061EB0401E9E7F3
:1005500083F000435BE781F0004158E72DE9FE4F4F
:1005600081EA030404F0004421F0004100944FF0BC
:10057000000B23F0004350EA01045ED052EA03046A
:100580005BD0C3F30A54C1F30A552C44A4F2F334EC
:100590000194A0FB0254C1F3130141F48011C3F391
:1005A000130343F4801301FB024400FB034E840A4F
:1005B000970A44EA815447EA8357A4FB07680295E7
:1005C0008D0A05FB07854FEA932C04FB0C54270585
:1005D000029D4FEA065847EA1637B5EB08056EEB61
:1005E000070C870E920E47EA811742EA8312A7FB97
:1005F0000201B6EB0B0164EB00042B0D43EA0C3354
:100600005E1844EB1C50DA465146E7FB0201C5F385
:1006100013044FEA0B3343EA14534FEA0432019CAC
:1006200043EA0603A4F10C040294009CCDE900B453
:1006300000F006FA03B0BDE8F08F00200146F9E7AC
:100640002DE9F04D81EA030404F0004B21F0004550
:1006500014464FF0000A23F0004150EA050220D072
:1006600054EA01021DD0C5F30A570246C5F313032D
:10067000C1F31300C1F30A5640F4801543F480130C
:10068000A7EB0608101BD64608F2FD3873EB0500F1
:1006900002D308F1010801E092185B41B8F1000FA4
:1006A00003DA00200146BDE8F08D00204FF48011F0
:1006B000064684460EE0171B73EB050705D3121B95
:1006C00063EB050306434CEA010C49084FEA30008E
:1006D00092185B4150EA0107EDD152EA030012D0B3
:1006E00082EA040083EA0501084305D0101BAB41F0
:1006F00006D20122002306E000224FF0004302E070
:100700006FF0010253101AEB06004CEB085110EB8E
:100710000A0041EB0B01BDE8F04D00F082B970B565
:1007200021F0004303430CD0C1F30A550024D5EB5C
:10073000040564EB0403D617AD1AB34102DB0020B5
:10074000014670BD201841EB025170BDC10F80EA17
:10075000E0700844CA079623002100F034B99623BC
:100760000022114600F02FB90EB5C10F80EAE070EB
:100770000844CA07002140F233438DE80E000A46C0
:100780000B4600F05DF903B000BD00F0004220F020
:100790000040C10DC0F3160040F400007F2901DACB
:1007A00000207047962903DCC1F19601C84001E0A2
:1007B00096398840002AF4D04042704720F000402B
:1007C000C10DC0F3160040F400007F2901DA0020BB
:1007D0007047962903DCC1F19601C84070479639ED
:1007E0008840704700F0004230F000400AD0C10D50
:1007F00001F56071C0F3160042EA0151C2084007DA
:1008000011437047002001467047000030B5041EB8
:1008100071F1000404DB4FF00044404264EB01013D
:10082000141E73F1000405DB1C464FF000435242D6
:1008300063EB0403994208BF904230BD01F00043CE
:1008400030B421F0004150EA010206D00A0DA2F5B1
:100850006072C1F31301002A02DC30BC0020704733
:10086000440F44EAC104C100E01830BC00EBC250A0
:1008700000F0A0B830B50B4601460020202201242C
:1008800009E021FA02F59D4205D303FA02F5491B5E
:1008900004FA02F52844151EA2F10102F1DC30BD74
:1008A0002DE9F05F0546002092469B4688460646A5
:1008B000814640241BE02846414647462246FFF732
:1008C00084FC53465A46C01A914110D3114618462B
:1008D000224600F016F82D1A67EB01084F46224613
:1008E0000120002100F00DF817EB00094E41201EF9
:1008F000A4F10104DFDC484631462A464346BDE800
:10090000F09F202A04DB203A00FA02F10020704711
:100910009140C2F1200320FA03F31943904070473D
:10092000202A06DBCB17203A41FA02F043EAE073B3
:1009300006E041FA02F3D040C2F1200291400843A0
:10094000194670472DE9F04791460F468046044608
:10095000002614F8015B2DB100F0EAF80068405D54
:10096000C007F6D12B2D02D02D2D18D0641E4A467B
:100970003946204600F0E0F827B13968A14201D19C
:10098000C7F8008071054FF002040BD540420028E3
:1009900003DD03F067FE0460A007BDE8F08746F4BE
:1009A0008066E4E70028F8DA03F05CFE04606FF08C
:1009B0000040F2E70029A8BF7047401C490008BF6B
:1009C00020F00100704710B4B0FA80FC00FA0CF07F
:1009D00050EA010404BF10BC704749B1CCF12004B7
:1009E00021FA04F411FA0CF118BF01212143084344
:1009F000A3EB0C01CB1D4FEA00614FEA102042BF70
:100A0000002010BC704700EBC35010440029A4BF65
:100A100010BC7047401C490008BF20F0010010BC0A
:100A2000704710B5141E73F1000408DA401C41F140
:100A3000000192185B411A4301D120F0010010BD62
:100A40002DE9F04D92469B4611B1B1FA81F202E0D8
:100A5000B0FA80F220329046FFF753FF04460F466B
:100A600040EA0A0041EA0B0153465A46084313D0B4
:100A7000114653EA010019D0C8F140025046FFF771
:100A8000A4FB05460E46504659464246FFF739FF3D
:100A9000084305D0012004E020463946BDE8F08D2A
:100AA0000020054346EAE0762C4337430A98630565
:100AB000E40AA0EB08000022FD0A44EA47540A3089
:100AC00002D500200146E9E7010510196941DDE979
:100AD000084500196941BDE8F04DA2E7C1F30A528B
:100AE000C1F3130140F2FF3341F480119A4202DA5C
:100AF00000200146704740F233439A42A2F233424B
:100B000002DC5242FFF761BBFFF7FBBE064C074D0C
:100B100006E0E06840F0010394E8070098471034CD
:100B2000AC42F6D3FFF708FB308F0008508F000867
:100B3000004870473C8E00082DE9F05F824600783F
:100B4000002715468B460AF10104B946302801D02A
:100B50009DB113E014F8010B0127782803D0582821
:100B600001D045B10AE00DB1102D07D100271025A5
:100B700014F8010B02E0082500E00A250026B04623
:100B80000EE005FB080005FB06F1012701EB10460E
:100B90001FFA80F8B6F5803F00D3B94614F8010B70
:100BA000294600F069F80028EBDABBF1000F05D008
:100BB0000FB1641E00E05446CBF80040B9F1000FBD
:100BC00006D003F04FFD02210160C81EBDE8F09F72
:100BD00048EA0640FAE72DE9F04D00231A461B1AB1
:100BE0008A4103DB00200146BDE8F08DC1F30A52C3
:100BF000C1F3130141F480154FF0000BD10702D16E
:100C000000186D41521E0027044640F2FF1138467D
:100C100001EB620A3E468046024600204FF48011F6
:100C2000FFF7D3FAC2197141BB1846EB0100B4EBD0
:100C3000030C75EB000C04D3E41A65EB00051746B2
:100C40000E46241908F101006D4180463428E3DD89
:100C5000F91946EB0600091BA84103D24FF0FF32F9
:100C6000134601E0002213461BEB070046EB0A5136
:100C7000BDE8F04DFFF7D5BE3A2800D2303820F05D
:100C80002002412A01D3A2F13700884201D34FF05C
:100C9000FF30704770B5044600688168C943C907D2
:100CA00017D1816821F00101816000F041FB054608
:100CB0000AE000BF00F03CFB401B022804D920687A
:100CC0008068C043C00706D020688068C043C00762
:100CD000F0D0002070BDA06A40F01000A062E06A71
:100CE00040F00100E062012070BDFEE770470000A7
:100CF00010B510220549064802F002F805480068C0
:100D0000C16841F02001C16010BD000078040020DE
:100D100098030020DC030020F8B50024009490F82C
:100D200024202546012A12D0012280F824204A6876
:100D30001F23072A0DD20668776B521E02EB820230
:100D400093409F430B6893401F43776319E0022051
:100D5000F8BD06680D2A0AD2376BD21F02EB820259
:100D600093409F430B6893401F43376309E0F76A42
:100D70000D3A02EB820293409F430B6893401F435E
:100D8000F7620A68072306680A2A0AD3F7680A3A4C
:100D900002EB420293409F438B6893401F43F760EE
:100DA00008E0376902EB420293409F438B6893400F
:100DB0001F4337610A68102A01D0112A20D1124B33
:100DC00002689A4217D193681B0219D4936843F4BE
:100DD000000393600968102912D10C490C4A096874
:100DE000B1FBF2F101EB8101490000E0491E0091E5
:100DF0000029FBD104E0816A41F0200181620124D5
:100E000080F824502046F8BD002401403C0000201A
:100E100040420F002DE9F04104004FF0000514D0CE
:100E2000A06A002628B9E66284F82460204600F013
:100E300083F82046FFF72EFFA16A01F0100101435D
:100E400004D0A06A40F01000A0626BE0A16A21F417
:100E5000885141F00201A162334923688B42E16964
:100E600004D1B1F5402F01D14FF40021277B4FF47D
:100E7000807C41EA470261680A43A168614509D064
:100E8000012907D05FF0000194F814E0BEF1010FD2
:100E900002D00AE06146F7E7C7B1A76A47F020072A
:100EA000A762E76A47F00107E7625F6827F46947CE
:100EB0000F435F60236899681C4F39401143996064
:100EC000A16861450BD0012909D00CE0DFF860E092
:100ED000A7690EEB47370F4347F40061E5E7218A26
:100EE0000D05A5F580152168CB6A23F470032B430B
:100EF000CB62216889680F4B1940914208D1E662A4
:100F0000A16A21F0020141F00101A162BDE8F08176
:100F1000A06A20F0020040F01000A062E06A40F0F9
:100F20000100E0620120F1E7003C0140FDF7E1FF34
:100F300000E0FFFFFE0E1FFF00B585B0002100910D
:100F400001910291039100680E49884218D10E4820
:100F5000816941F480618161816901F4806104915A
:100F6000816941F0080181618069694600F00800EB
:100F700004900120009003200190044800F0D6F86E
:100F800005B000BD0028014000100240000C0140E7
:100F900010B590F821100022022905D004218163A8
:100FA00080F82020012010BD01680B6823F00E039B
:100FB0000B6001680B6823F001030B6090F8403070
:100FC000C46B012101FA03F3636080F8211080F8FB
:100FD0002020104610BD00002DE9F05F90F8211090
:100FE0000024022903D004218163012485E00168E3
:100FF0000A6822F00E020A6001680A6822F0010203
:101000000A603F4E3E4FB215DFF8F4C0DFF8F090B3
:10101000DFF8ECA0DFF8E8B0DFF8E4E00168783F43
:1010200013011502ACF1640CA9F15009AAF13C0AB4
:10103000ABF1280BAEF1140E4FF48018B14227D952
:10104000B9420ED0614512D049451DD0514518D046
:10105000594518D0714501D1424615E0294EB1429B
:1010600001D1012210E0274E1436B14201D11022E5
:101070000AE0244E2836B14206D0224A3C32914240
:1010800001D11A4600E02A461E49091F0A602BE0DA
:10109000B94213D0614517D0494522D051451DD0E2
:1010A00059451DD0714501D142461AE0B14202D1E5
:1010B0004FF0807215E0134EB14201D1012210E0D1
:1010C000104E1436B14201D110220AE00D4E2836DE
:1010D000B14206D00B4A3C32914201D11A4600E09F
:1010E0002A46074980394A60012180F821100021F1
:1010F00080F82010416B01B188472046BDE8F09F81
:10110000800002400804024070B5044600F010F967
:101110000546601C02D004480078044400F008F939
:10112000401BA042FAD370BD300000202DE9F84FDB
:10113000DFF8C891002409F1040A0AF1040B2346E0
:101140000F270BF1040ED1E00125A54006EA0502A8
:10115000AA4276D1DFF8A8C14E68A6EB0C08664516
:101160002BD00DDC032E34D005DC36B3012E19D084
:10117000022E2FD11BE0112E16D0122E2AD119E0EB
:10118000B8F5881F19D006DCB8F5803F15D0B8F542
:10119000801F1FD111E0B8F5001F0ED0B8F5041F55
:1011A00018D10AE0CB6815E0CB681B1D12E0CB68B4
:1011B00008330FE0CB680C330CE08B682BB1012BAC
:1011C0004FF0080303D0456104E0042302E0056109
:1011D00000E00023FF2A01D8064601E000F10406E2
:1011E0004FEA840501D9A5F12005D6F8008007FA59
:1011F00005FC28EA0C0803FA05F548EA0508C6F8D4
:1012000000804D68ED0070D53E4DAE6946F0010698
:10121000AE61AD6924F0030605F0010500953A4D75
:1012200006EB050CDCF80850A607360F07FA06F89F
:1012300025EA0805DFF8D480404503D14FF00008C7
:1012400025E052E0DFF8C880404502D14FF00108A8
:101250001DE0DFF8C080404502D14FF0020816E0E3
:10126000DFF8B480404502D14FF003080FE0DFF80B
:10127000AC80404502D14FF0040808E0DFF8A080C0
:10128000404502D14FF0050801E04FF0060808FA8A
:1012900006F848EA0508CCF808804D68D9F80060DF
:1012A000ED034D4601D5164300E096432E604D6890
:1012B000DAF80060AD03554601D5164300E09643C9
:1012C0002E604D68DBF80060ED025D4601D51643E7
:1012D00000E096432E604D68DEF80060AD02754672
:1012E00001D5164300E096432E60641C0A6816463A
:1012F000E2407FF429AFBDE8F88F00000004014010
:1013000000001110001002400000014000080140E0
:10131000000C014000100140001401400018014081
:10132000001C01400AB1016170470904FBE700009D
:1013300001488068704700003000002070B504004C
:1013400025D094F83D00002520B984F83C50204673
:1013500000F078FA242084F83D002068016821F02C
:10136000010101602068016841F4004101602068CA
:10137000016821F40041016000F052FC4D4A6168AF
:10138000914201D84C4900E04C49884201D20120E9
:1013900070BD4B492368B0FBF1F15E6826F03F0653
:1013A0000E435E606368934206D94FF496735943C7
:1013B0004FF47A73B1FBF3F12368491C1E6A26F0DF
:1013C0003F06314319626168914210D84900401EBE
:1013D000B0FBF1F2521CC2F30B02042A01D204202A
:1013E00022E0B0FBF1F0401CC0F30B001CE0A2684F
:1013F000F2B301EBC10303EB0116431EB3FBF6F39B
:101400005B1C43F480431B0549D092B301EBC1023E
:1014100002EB0111401EB0FBF1F0401CC0F30B00C9
:1014200040F4804040F400402168CA694CF6FF73E4
:101430009A431043C861D4E9071001432068026849
:1014400022F0C00211430160D4E903010143206886
:10145000826848F2FF339A4311438160D4E9050161
:1014600008432168CA6822F0FF021043C86001E007
:101470000EE016E02068016841F00101016025647A
:10148000202084F83D00256384F83E50002070BD84
:1014900001EB4106431EB3FBF6F35B1CB3E70120EF
:1014A000C2E701EB4101401EB0FBF1F0401CC0F36C
:1014B0000B00B7E7A086010080841E0000093D00F4
:1014C00040420F002DE9FF4F83B00025DDE9107980
:1014D0009A4693460446DDF848800095FFF728FFBA
:1014E000064694F83D0020287CD119230122854925
:1014F0002046009601F03AFE0028F5D194F83C0011
:1015000001286FD0012084F83C0020680168C907D9
:1015100003D1016841F0010101602068016821F4F4
:1015200000610160222084F83D00402084F83E00E4
:1015300025646762A4F82A90608D20857248E06275
:10154000CDE9008653465A462046049901F016FD1F
:1015500000287DD1208DDFF8B491202768B10128C3
:1015600014D00228206801681ED041F48061016017
:101570002068416980690090B6E02068416981690E
:101580000091016841F400710160ADE020680168DC
:1015900021F48061016072B620684169816900911F
:1015A000016841F400710AE041F40061016072B623
:1015B0002068416981690091016821F480610160BE
:1015C00062B691E0032868D801280CD0022843466F
:1015D0004FF000024946204600960FD001F0C6FDAC
:1015E000B0BB10E08BE032464146204601F03DFEA4
:1015F00070BB20680069616A08706CE001F0B6FD9C
:1016000030BB72B634E02068016821F4806101606B
:1016100072B620680069616A0870606A401C606286
:10162000208D401E2085608D401E6085384846F222
:10163000A8110068B0FBF1F0C0EBC00000EB800027
:101640000090401E009008D020684069C04300E030
:1016500029E040070CD50098F3E744F8305F677342
:10166000A573206940F02000206162B625731AE05E
:101670002068016841F40071016020680069616AB6
:101680000870606A401C6062218D491E2185618D51
:10169000491E618562B621681BE0324641462046FC
:1016A00001F0E3FD18B1012007B0BDE8F08F20681C
:1016B0000069616A0870606A401C6062218D491E81
:1016C0002185618D491E618521684A69D24352078F
:1016D0000AD409690170606A401C6062208D401E56
:1016E0002085608D401E6085208D00287FF46AAFC4
:1016F00084F83D7084F83E5084F83C50D4E70220D2
:10170000D2E70000020010000000FFFF040001000B
:101710003C0000202DE9FF4F83B09A46DDE9119788
:1017200093460446DDF84080FFF702FE054694F834
:101730003D0020287FD119230122404920460095F1
:1017400001F014FD002876D194F83C00012872D0F5
:10175000012084F83C0020680168C90703D10168B2
:1017600041F0010101602068016821F4006101601D
:10177000212084F83D00402084F83E0000262664A5
:10178000C4F82480A4F82A90608D20852C48E0625B
:10179000CDE9007553465A462046049901F06CFC89
:1017A00070B930E02A463946204601F091FD58B123
:1017B000206C042804D12068016841F400710160A4
:1017C000012007B0BDE8F08F606A216800780861E9
:1017D000606A401C6062218D491E89B22185628D3C
:1017E000521E628522685369DB435B070BD469B1E3
:1017F00000781061606A401C6062208D401E208568
:10180000608D401E6085208D0028CBD12A46394648
:10181000204601F085FC0028CAD154F83D0B016830
:1018200041F400710160202004F81E09E677667714
:101830000020C6E7FFE70220C3E700000200100017
:101840000000FFFF10B586B00021009101910291C8
:10185000039100681349884222D1134CA06940F0DB
:101860000800A061A069694600F0080004904FF4E8
:101870004070009012200190032003900B48FFF766
:1018800055FC0B48416841F0E06141F002014160C4
:10189000E06940F40010E061E06900F40010049099
:1018A00006B010BD0054004000100240000C014082
:1018B000000001400248816802781144816070474D
:1018C00030000020074810B5016841F010010160A8
:1018D000032000F075F80F2000F006F800F024F85F
:1018E000002010BD0020024070B50D4D04464FF49D
:1018F0007A712878B1FBF0F00A490968B1FBF0F081
:1019000000F074FB48B9102C07D200222146501E6B
:1019100000F036F800206C6070BD012070BD000042
:10192000300000203C0000200C4808B5816941F0DF
:1019300001018161816901F001010091C16941F0FA
:101940008051C161C06900F0805000900448416836
:1019500021F0E06141F00071416008BD00100240DB
:1019600000000140002809DB00F01F020121914026
:101970004009800000F1E020C0F80011704700002D
:10198000F0B40E4B1B680C46C3F30223C3F10705EA
:10199000042D00D90425191D072901D2002300E0D8
:1019A000DB1E012606FA05F1491E214099409E40A2
:1019B000761E16403143F0BC02F044BE0CED00E050
:1019C000064900F0070208684FF6FF03184040EA96
:1019D0000220034A10430860704700000CED00E04D
:1019E0000000FA05BFF34F8F05480168054A01F46E
:1019F000E06111430160BFF34F8F00BFFDE70000BE
:101A00000CED00E00400FA052DE9F84305460078E6
:101A1000354CC00754D0E0690026C00008D4E06906
:101A200040F08050E061E069012600F080500090B5
:101A30002E480168C90512D40168804641F48071BE
:101A40000160FFF775FC074605E000BFFFF770FC7B
:101A5000C01B642823D8D8F80000C005F6D5206A3A
:101A600010F4407021D0A98801F4407181421CD04B
:101A7000206A1F49012220F440700A6000220A6097
:101A80002062C00711D0FFF753FC074641F28838A7
:101A900008E000BFFFF74CFCC11B414502D9032001
:101AA000BDE8F883206A8007F4D5206A696820F4CD
:101AB0004070084320621EB1E06920F08050E06170
:101AC0002878800705D56068A96820F4404008435D
:101AD00060602878C00605D56068696920F48000D8
:101AE000084360600020DBE7001002400070004007
:101AF000400442422DE9F0470F46050061D0434EB5
:101B0000306800F00700B84209D2306820F00700C2
:101B100038433060306800F00700B84251D128687F
:101B20003B4C810712D5400703D5606840F4E06064
:101B300060602878000703D5606840F460506060FA
:101B40006068A96820F0F000084360602878C0074A
:101B500028D06868012810D02168022810D0890791
:101B600000292EDA616821F0030101436160FFF76B
:101B7000DFFB804641F288390DE021688903EFE7F9
:101B80008901EDE7FFF7D4FBA0EB0801494502D935
:101B90000320BDE8F0876068696800F00C00B0EBD6
:101BA000810FEFD1306800F00700B8420BD93068E0
:101BB00020F0070038433060306800F00700B8427A
:101BC00001D00120E5E72878400705D56068E9687D
:101BD00020F4E060084360602878000706D560685C
:101BE000296920F4605040EAC100606000F038F8D4
:101BF0006168084AC1F30311515CC8400649086096
:101C000006480068FFF770FE0020C2E7002002408F
:101C100000100240688000083C00002034000020D2
:101C20000448054900684968044AC1F30221515C2F
:101C3000C84070473C000020001002407880000837
:101C40000448054900684968044AC1F3C221515C4F
:101C5000C84070473C000020001002407880000817
:101C600012A185B00FC98DE80F0014A0144A0068B6
:101C700004905168134801F00C03042B10D0082B7A
:101C80000ED1C1F38343C9031DF803000AD551687F
:101C900004AAC1F34041515C0A4A5043B0FBF1F041
:101CA00005B0704708494843FAE7000002030405FD
:101CB000060708090A0B0C0D0E0F10100102000098
:101CC0000010024000127A0000093D002DE9F84F93
:101CD000040070D02078C04DC00749D06868C0F3B8
:101CE0008100012807D06868C0F38100022809D16B
:101CF0006868C00306D52868800339D56068002865
:101D0000E7D035E06068B0F5803F0BD010B1B0F59A
:101D1000A02F11D0286820F480302860286820F493
:101D2000802002E0286840F480302860606890B12C
:101D3000FFF7FEFA06460AE0286840F48020286093
:101D4000F0E700BFFFF7F4FA801B642873D8286817
:101D50008003F7D50CE0FFF7EBFA064605E000BF7D
:101D6000FFF7E6FA801B6428F0D828688003F7D4D0
:101D700020789A4E80074FF001094FF0000839D5BE
:101D8000686810F00C0F07D06868C0F38100022863
:101D900009D16868C00306D42868800714D5206973
:101DA000012808D110E02069B0B1C6F80090FFF713
:101DB000BFFA074605E00AE1FFF7BAFAC01B02289E
:101DC000C4D828688007F7D52868616920F0F80032
:101DD00040EAC10028600DE0C6F80080FFF7A8FACD
:101DE000074604E0FFF7A4FAC01B022823D828689E
:101DF0008007F7D4207800072CD57948A169D9B19C
:101E0000C0F80090FFF794FA074604E0FFF790FA55
:101E1000C01B02280FD8686A8007F7D571484FF4B5
:101E2000FA510068B0FBF1F0009000BF0098411E2D
:101E30000091FAD20EE080E0C0F80080FFF778FA57
:101E4000074604E0FFF774FAC01B022875D8686AD9
:101E50008007F7D42078400760D5E8690027C000E4
:101E600008D4E86940F08050E861E869012700F093
:101E7000805000905C480168C90513D4016883460E
:101E800041F480710160FFF753FA824606E000BF1B
:101E9000FFF74EFAA0EB0A0064284ED8DBF80000EA
:101EA000C005F5D5E06801280AD008B1052813D08F
:101EB000286A20F001002862286A20F0040002E06D
:101EC000286A40F001002862E06841F2883B98B13E
:101ED000FFF72EFA82460BE0286A40F004002862E1
:101EE000EEE700BFFFF724FAA0EB0A0159455AD8E4
:101EF000286A8007F6D50CE0FFF71AFA824605E05B
:101F0000FFF716FAA0EB0A0159454CD8286A80075A
:101F1000F6D41FB1E86920F08050E861E06988B329
:101F20006968C1F38101022944D00228C6F86080A3
:101F300004D0FFF7FDF9044638E034E0FFF7F8F984
:101F4000074604E0FFF7F4F9C01B02282BD82868E5
:101F50008001F7D4206AB0F5803F05D16868A16898
:101F600020F4003008436860D4E908010843696838
:101F700021F4741108436860C6F86090FFF7D8F93F
:101F8000044606E025E000BFFFF7D2F9001B022857
:101F900009D828688001F7D51BE000BFFFF7C8F912
:101FA000001B022802D90320BDE8F88F28688001B1
:101FB000F4D40EE00128F7D06868226A00F480317A
:101FC000914204D1616A00F47010884201D001206E
:101FD000EAE70020E8E7000000100240000042426B
:101FE000800442423C0000200070004010B5401EBA
:101FF000B0F1807F01D3012010BD4FF0E02460617B
:102000000F21601702F01EFB0020A0610720206155
:10201000002010BD7047704710B590F83C20012A91
:1020200022D0012280F83C20CA688C6822F44072D9
:1020300022434C6822F4806222430C6822F400623E
:1020400022430C6922F4805222434C6922F400524C
:102050002243C969002322F480420A4301684A648A
:1020600080F83C30002010BD022010BD70B590F803
:102070003C20012A2CD0012480F83C40022280F828
:102080003D2003685A689D6822F070060A68324352
:102090005A60104B02689A420ED00F4B9A420BD0F6
:1020A000B2F1804F08D00D4B9A4205D00C4B9A42AA
:1020B00002D00C4B9A4204D1496825F080031943A1
:1020C000916080F83D40002180F83C10084670BDCA
:1020D000022070BD002C014000340140000400408B
:1020E00000080040000C004010B5040003D094F834
:1020F0003D0010B107E0012010BD002084F83C0035
:10210000204600F01FF8022084F83D00211D2068C1
:1021100001F0D8FE012084F8460084F83E0084F8DF
:102120003F0084F8400084F8410084F8420084F8BD
:10213000430084F8440084F8450084F83D00002002
:1021400010BD000008B5174A01681748914207D131
:10215000816941F400618161806900F400601EE0E2
:10216000124A914211D1C16941F01001C161C069A7
:10217000002200F01000009011463620FFF700FC0E
:10218000BDE808403620FFF7EDBB094A914207D170
:10219000816941F400518161806900F40050009030
:1021A00008BD0000002C014000100240001000405B
:1021B0000034014090F83D10012901D00120704702
:1021C000022180F83D100168CA6842F00102CA602D
:1021D00000680E4988420ED00D4988420BD0B0F1FC
:1021E000804F08D00B49884205D00B49884202D065
:1021F0000A49884204D1816801F00701062903D009
:10220000016841F00101016000207047002C01408D
:10221000003401400004004000080040000C004071
:1022200070B5044690F83C00012817D0012584F8C9
:102230003C50022084F83D002068826822F077023A
:1022400022F47F4282600868502830D00DDC2028BC
:102250004DD005DC98B310283BD148E0022070BD7A
:10226000302844D0402834D139E0602828D0702864
:1022700006D0B0F5805F2CD0B0F5005F29D10AE020
:10228000CB68D1E90121206801F06FFE20688168E8
:1022900041F0770109E0CB68D1E90121206801F024
:1022A00064FE2068816841F48041816011E0CA6861
:1022B0004968206801F02EFF5021206807E016E0F1
:1022C000CA684968206801F036FF6021206801F083
:1022D00056FE84F83D50002084F83C0070BDCA686A
:1022E0004968206801F016FF40212068EFE7226866
:1022F00001461046EBE72DE9F0410D46040003D0FE
:1023000094F83D0018B108E00120BDE8F0810020FC
:1023100084F83C00204600F041F8022084F83D009B
:102320002068816844F2070291438160211D206882
:1023300001F0C8FD226890689169166A2B68AF6940
:10234000034340F20330814341EA0721A868EF6963
:1023500008434FF6FC418843E96840EA07200143FF
:1023600028692F6A000140EA0730084369686D69EF
:1023700026F0220646EA05152943936022689061FB
:1023800054F8460B0162012004F81F09E07520761D
:10239000E0762077A0750020B7E7000070B586B022
:1023A0000025009501950295039500684549464A28
:1023B000464E474CB0F1804F22D0464B98424ED10A
:1023C000C86940F00200C861C86900F002000490CA
:1023D000886940F0080088618869694600F0080053
:1023E0000490302000903046FEF7A0FE606820F494
:1023F000406040F0E06040F40060606006B070BD96
:10240000C86940F00100C861C86900F0010004908B
:10241000886940F004008861886900F00400049035
:10242000886940F0080088618869694600F0080002
:1024300004904FF4004000901046FEF777FE08200D
:10244000CDE90005694630460295FEF76FFE6068EB
:1024500020F4407040F0E06040F48070CDE71E4B07
:10246000984214D1C86940F00400C861C86900F0FE
:1024700004000490886940F0080088618869694612
:1024800000F008000490C0200090304616E0134B86
:102490009842B3D1C86940F00800C861C86900F02B
:1024A00008000490886940F00400886188696946E2
:1024B00000F004000490032000901046FEF736FE62
:1024C0009CE700000010024000080140000C0140A1
:1024D000000001400004004000080040000C0040E3
:1024E00070B590F83E60044690F83F5090F8423046
:1024F00090F84320022021B104290ED0012E1BD1D7
:1025000014E0012E18D1012B16D184F83E0084F876
:10251000420001220021206820E0012D0CD1012A77
:102520000AD184F83F0084F8430014E0012D03D160
:10253000012B01D1012A01D0012070BD84F83E0099
:1025400084F83F0084F8420084F84300012200210F
:10255000206801F0FDFC01220421206801F0F8FC54
:102560002068016841F001010160002070BD7047E2
:1025700070B50446006801694FF00005C94389073A
:1025800015D4C168C943890711D4E91E016101202E
:102590002077206880698007204602D0FFF7E7FF98
:1025A00004E000F0D7F8204600F066F925772068AF
:1025B0000169C943490717D4C168C943490713D4FE
:1025C0006FF004010161022020772068806910F417
:1025D000407F204602D0FFF7CAFF04E000F0BAF8BF
:1025E000204600F049F9257720680169C9430907A9
:1025F00016D4C168C943090712D46FF008010161FC
:10260000042020772068C0698007204602D0FFF7A9
:10261000AEFF04E000F09EF8204600F02DF925778B
:1026200020680169C943C90617D4C168C943C906EE
:1026300013D46FF010010161082020772068C06971
:1026400010F4407F204602D0FFF791FF04E000F035
:1026500081F8204600F010F9257720680169C94308
:10266000C90708D1C168C943C90704D1891E0161DE
:10267000204600F05DF920680169C943090609D4C4
:10268000C168C943090605D46FF080010161204685
:10269000FFF7C0FC20680169C943490609D4C16835
:1026A000C943490605D46FF040010161204600F09E
:1026B0004DF920680169C94389060BD4C168C94333
:1026C000890607D46FF0200101612046BDE8704003
:1026D000FFF7A1BC70BD000000B585B000210091DE
:1026E000019102910391164B0268164802219A4209
:1026F0000FD1826942F0040282618069039100F087
:10270000040004904FF41060CDE9000169460E48C2
:1027100011E00E4B9A4210D1826942F010028261A0
:102720008069039100F0100004904FF47070CDE9BF
:10273000000169460648FEF7F9FC05B000BD00003F
:10274000002C01400010024000080140003401400C
:1027500000100140704770B5044690F83C000D46EB
:1027600001280AD0012084F83C0042B1042A18D084
:10277000082A2AD00C2A4DD139E0022070BD2068E9
:1027800001F006FC2068816941F008018161206840
:10279000816921F004018161206881692A691143FE
:1027A00011E0206801F024FC2068816941F4006197
:1027B00081612068816921F480618161206881697B
:1027C0002A6941EA0221816124E0206801F046FC87
:1027D0002068C16941F00801C1612068C16921F028
:1027E0000401C1612068C1692A69114311E02068B0
:1027F00001F068FC2068C16941F40061C161206892
:10280000C16921F48061C1612068C1692A6941EA16
:102810000221C161002084F83C0070BD10B50400A5
:1028200003D094F83D0010B107E0012010BD002056
:1028300084F83C00204600F01EF8022084F83D0099
:10284000211D206801F03EFB012084F8460084F839
:102850003E0084F83F0084F8400084F8410084F88A
:10286000420084F8430084F8440084F8450084F86A
:102870003D00002010BD70477047000010B50446B1
:10288000022249B104290ED0082913D094F841003E
:10289000012816D0012010BD94F83E000128F9D17E
:1028A00084F83E200FE094F83F000128F2D184F82C
:1028B0003F2008E094F840000128EBD184F8402044
:1028C00001E084F841200122206801F041FB134916
:1028D0002068134A884201D0904203D1436C43F4EC
:1028E00000434364206888420DD090420BD0B0F181
:1028F000804F08D00B49884205D00B49884202D04E
:102900000A49884204D1816801F00701062903D0F1
:10291000016841F001010160002010BD002C014060
:10292000003401400004004000080040000C00405A
:10293000044900680968884202D1034901200870EF
:102940007047000008030020040100207047704712
:1029500070470000F8B5026804461068D1685369F2
:1029600010F00F0F4FF0000554D003F0010601F4F2
:10297000907737435FD0C20705D0CA0503D5226CD4
:1029800042F001022264420705D5DA0703D0226C27
:1029900042F002022264820705D5DA0703D0226CD6
:1029A00042F004022264020707D501F020023243FC
:1029B00003D0226C42F008022264226C002A35D037
:1029C000800604D5880602D5204601F017FC206851
:1029D0004069216CC0F3801001F0080101432046DA
:1029E00025D001F0C2FB2068416949061BD5416929
:1029F00021F040014161A06BA8B158494163A06B2F
:102A0000FEF7EAFA002811D0A06B416B01B0BDE8D7
:102A1000F040084783060ED58B060CD52046BDE84E
:102A2000F84001F0EBBB2046FFF792FFF8BDFFF73F
:102A30008FFF2564F8BD266B2023012E52D1C606D8
:102A400050D5CE064ED510685068009050694006AB
:102A50002AD5A16B086840680004000CEAD0A68D56
:102A60008642E7D9E0858869202818D0D06820F40C
:102A70008070D0602068416921F0010141612068C7
:102A8000416921F04001416184F83E3025632068AE
:102A9000C16821F01001C160A06BFEF779FAA08D2A
:102AA000E18D401A81B219E0A08DE18D401A81B20A
:102AB000E08D0028BED00029BCD0D06820F49070F2
:102AC000D0602068426922F00102426184F83E3001
:102AD00025632068C26822F01002C2602046FFF71A
:102AE00036FFF8BD05062BD50D0629D594F83D0017
:102AF0002128F6D1A068B0F5805F01D12069B0B17E
:102B0000206A411C2162216800784860E08C401EE8
:102B10000004000CE084E4D12068C16821F0800149
:102B2000C1602068C16841F04001C160F8BD206A01
:102B30000088C0F308005060206A801C2062E5E72E
:102B40004006F3D54806F1D5D168204621F0400172
:102B5000D16084F83D3000F0F8F9F8BD5B41000821
:102B600070B5040004D094F83D00002510B106E0D3
:102B7000012070BD84F83C50204600F023F824204A
:102B800084F83D002068C16821F40051C1602046EE
:102B900001F090FB2068016921F4904101612068F7
:102BA000416921F02A0141612068C16841F4005166
:102BB000C1602564202084F83D0084F83E00002098
:102BC00070BD0000F0B585B000240094019402941B
:102BD00003940368434F022043490322434D4602B6
:102BE000BB4225D18B6943F480438B618B6903F42D
:102BF000804304938B6943F004038B6189690392DA
:102C000001F0040104910102CDE900106946284653
:102C1000FEF78CFACDE90064694628460294FEF777
:102C200085FA002211462520FEF7AAFE252028E07D
:102C30002F4FBB4229D1CB6943F40033CB61CB6921
:102C400003F4003304938B6943F004038B618969B7
:102C5000039201F0040104910421CDE900106946BA
:102C60002846FEF763FA0820CDE9000469462846A5
:102C70000294FEF75BFA002211462620FEF780FE42
:102C80002620FEF76FFE05B0F0BD1A4DAB42FAD11B
:102C9000CB6943F48023CB61CB6903F48023049395
:102CA0008B6943F010038B618969134D01F01001AA
:102CB000CDE90321CDE9006069462846FEF736FAE2
:102CC000E814CDE90004694628460294FEF72EFA7E
:102CD0000A48416821F0300141F0E06141F0100103
:102CE0004160D0E700380140001002400008014078
:102CF0000044004000480040001001400000014036
:102D000090F83E30202B0ED159B152B190F83C30A2
:102D1000012B08D0012380F83C300023036301F02D
:102D200025BB0120704702207047000038B50068BD
:102D30004449884270D1444C2078492810D043A19E
:102D40002046FDF764FA4349002808685AD0012854
:102D500002DB41A001F052FCBDE83840FEF742BE64
:102D6000A0786179303800EB4002C2EBC01001EB73
:102D7000C001E07864225043227902EB820200EB2A
:102D800042000844E179A27A303901EB4103C3EBF8
:102D9000C11102EBC102217A64235943637AA0F581
:102DA000A05003EB830301EB43011144227BE37B3F
:102DB000303A02EB4205C5EBC21203EBC203627B61
:102DC00064256A43A57BA1F5A05105EB850502EBBF
:102DD00045021A446378A2F5A052D038D039D03ACF
:102DE0002D2B06D0A3792D2B05D0E37A2D2B04D0E3
:102DF00004E0404202E0494200E05242BDE838406F
:102E000004F014BF03280BDBE01CFDF71FFA009051
:102E1000A3786278217800E012E015A001F0EEFBC3
:102E2000E01CFDF713FA0346A0783038C2B2607890
:102E30003038C1B2207801B0BDE8304004F01EBF88
:102E400038BD000000380140780400205245534549
:102E500054000000400000204D435520537461721F
:102E600074205265736574212121210D0A00000030
:102E70004D6F64653D25632C4D6F746F724E756D9B
:102E80003D307825782C4469633D307825782C7066
:102E9000776D3D25640D0A002DE9F843044690F84E
:102EA0003D001F4616460D4620284CD1C5B1BEB187
:102EB00094F83C00012846D0012084F83C004FF0F3
:102EC0000008C4F84080212084F83D00FEF730FA65
:102ED000A6848146E684A068B0F5805F03D004E054
:102EE0000120BDE8F883206928B12E465FF0000577
:102EF00084F83C800EE00026FAE78021204601F0AD
:102F000050FAA0B9AEB116F8010B21684860E08C08
:102F1000401EE084E08C4B464FF0000200970028F2
:102F2000EBD14FF04001204601F03BFA30B10320D5
:102F3000D7E735F8020BC0F30800E6E7202084F855
:102F40003D000020CDE70220CBE77047FEE7016897
:102F50004A69D24352050FD46FF480624A6100215E
:102F600040F8301F202242738173026942F004024C
:102F70000261017301207047002070472DE9F84F6E
:102F80000446006889460B9D01689846174641F43F
:102F9000806101602068016841F4807101600095E2
:102FA0004FF0011B0022594620460A9B00F0DEF834
:102FB0004FF4007A40B120680068C00501D5C4F81C
:102FC00040A00320BDE8F88F216809F0FE000861E9
:102FD0002B46284920460A9A00F0FCF8F0BB2068EE
:102FE0004169806900902A4620460A9900F070F9EC
:102FF00040B1206C04283AD12068016841F4007186
:10300000016034E0FEB2B8F1010F09D02168380A3E
:1030100008612A4620460A9900F05AF90028E8D1AA
:10302000206806612A4620460A9900F051F90028D6
:10303000DFD12068016841F48071016000950022B1
:10304000594620460A9B00F091F80028B3D1216828
:1030500009F0FF0040F00100086100E007E02B46A6
:10306000044920460A9A00F0B5F80028AAD00120A9
:10307000A8E70000020001002DE9F84304460068BB
:103080000D46DDE9089701689846164641F48071BF
:1030900001604B4600224FF001112046009700F0DE
:1030A00065F848B120680068C00502D54FF400708B
:1030B00020640320BDE8F883216805F0FE00086164
:1030C0003B464A461549204600F084F888B92068F6
:1030D0004169806900903A464946204600F0F8F878
:1030E00048B1206C042804D12068016841F40071C3
:1030F00001600120DEE7F5B2B8F1010F09D02168C7
:10310000300A08613A464946204600F0E1F80028B6
:10311000E7D1206805610020CCE700000200010033
:1031200070B516460D4604460DE02046FFF70FFF2A
:1031300008B1012070BD681C05D0FEF7F9F8801BAE
:10314000A84207D835B120684069C0434007ECD495
:10315000002070BD002044F8300F20216173A0735F
:10316000216941F0200121612073E2E72DE9F04758
:103170001E4690460D460446C1F30747DDF82090F1
:1031800008E0701C06D0FEF7D3F8A0EB0900B042AF
:103190000FD876B12068012F18D0806925EA000089
:1031A0000004000C14D000214145EAD00020BDE805
:1031B000F087002044F8300F20216173A07321694B
:1031C00041F02001216120730120F0E74069E5E72B
:1031D0000121E9E72DE9F0479A4691460E4604465B
:1031E00000254FF02008C1F3074725E0206840691B
:1031F000C043400514D42068016841F400710160A7
:1032000021686FF480604861256384F83D8084F80C
:103210003E50206C40F00400206484F83C501FE0D5
:10322000B9F1FF3F08D0FEF783F8A0EB0A0149454A
:103230000CD8B9F1000F09D02068012F13D0806994
:1032400026EA00000004000C0BD0CFE744F8305F02
:1032500084F80D80A573206940F02000206125735B
:103260000120BDE8F0874069EAE72DE9F04100253B
:1032700090460E460446202717E04069C043C0062A
:103280000CD454F8301B6FF01000486144F810590A
:103290006777A577206A2062257717E0FEF748F860
:1032A000A0EB0800B04208D83EB120684169C9438C
:1032B0004906E2D40020BDE8F08144F8305F67732E
:1032C000A573206940F02000206125730120F2E7FA
:1032D00070B516460D4604460DE02046FFF737FE52
:1032E00008B1012070BD681C05D0FEF721F8801BD5
:1032F000A84207D835B120684069C0430006ECD425
:10330000002070BD002044F8300F20216173A073AD
:10331000216941F0200121612073E2E72DE9F041AC
:103320000746B0F90000FDF711FADFF86880414662
:10333000FDF723F8FDF756FA174C05460E46C4E98B
:103340000401B7F90200FDF701FA4146FDF715F84F
:10335000FDF748FAC4E9060102460B460F4810493A
:10336000FDF76EF9FDF76AFA0E49606000200880EB
:10337000488088800C4A0D4B28463146FDF7EEF810
:1033800002460B4600200A49FDF75AF9C4E902013A
:10339000BDE8F08100007A444800002090C2F52882
:1033A0005C8FC23F10010020140D3B549F20C83F8A
:1033B0000080A54010B51446012806D0002811D180
:1033C000BDE81040012000F0E1BC09B1012902D1A3
:1033D000012000F017FC2246BDE810400021024801
:1033E00000F0E0BB10BD00005003002010B51446F3
:1033F000012806D0002811D1BDE81040022000F0BD
:10340000C5BC09B1012902D1022000F0FBFB224614
:10341000BDE810400421024800F0C4BB10BD00000C
:103420005003002010B51446012806D0002819D1F9
:10343000BDE81040032000F0A9BC59B1012911D109
:10344000032000F0DFFB084822460C21BDE81040B5
:1034500000F0A8BB0021032000F0D4FB22460C2181
:103460000248F3E710BD000050030020A001002037
:1034700010B51446012806D0002819D1BDE8104027
:10348000042000F083BC59B1012911D1042000F0BF
:10349000B9FB084822460821BDE8104000F082BB75
:1034A0000021042000F0AEFB224600210248F3E791
:1034B00010BD000050030020A001002070B5134C87
:1034C0004FF4FA750BE02068012805DB04F09EFC40
:1034D00001460FA001F092F82846FDF715FE04F012
:1034E00095FC0028EFD14FF47A7500BF02F040FA46
:1034F000002809D02068012802DB0AA001F07EF82C
:103500002846FDF701FEF1E770BD00000000002035
:1035100030782578202849445F4552524F52290D72
:103520000A000000446D7020696E69742065727233
:103530006F72200D0A0000003EB50024114800946F
:10354000019402940E49846001600473047501259E
:1035500005614FF460214460C161FDF75BFC08B177
:1035600072B6FEE70820CDE90005694602940548D9
:10357000FDF7D2FB002801D072B6FEE73EBD000089
:10358000002801401C0100202DE9F04385B00024F3
:1035900025480094019402940394816941F020012C
:1035A0008161816901F020010491816941F010017C
:1035B0008161816901F010010491816941F0040188
:1035C0008161816901F004010491816941F0080180
:1035D00081618069DFF8548000F0080041F23F0506
:1035E0000490002229464046FDF79CFEDFF84090FB
:1035F0004FF48057002239464846FDF793FE009568
:10360000022601250396CDE9015469464046FDF79F
:103610008DFD00970396CDE9015469464846FDF7B4
:1036200085FD05B0BDE8F0830010024000100140A8
:103630000008014010B596B000240F941094119426
:10364000129413941C2168461494FCF7D5FD202194
:1036500007A8FCF7D1FD2D482B4901600221C0E9E4
:10366000011442F20F71C0E903148021C0E9054141
:10367000FEF73AFD08B172B6FEE74FF480500F90A6
:103680000FA92248FEF7CCFD08B172B6FEE71F482D
:10369000FFF7C4F808B172B6FEE7139413A91B48EC
:1036A0001494FEF7E3FC08B172B6FEE76020CDE9A2
:1036B000000402940394049405940022694613487C
:1036C0000694FFF748F808B172B6FEE70C22694687
:1036D0000E48FFF740F808B172B6FEE70794089469
:1036E00009944FF400500A94CDE90B4007A907480C
:1036F0000E94FEF791FC08B172B6FEE70348FEF7A0
:10370000EBFF16B010BD0000002C0140A00100200E
:1037100010B58CB024216846FCF76EFD00241648D5
:1037200009944FF080410A94C0E900144EF66021DC
:10373000C0E902418021046181610320CDE90004D8
:103740000120CDE9020406210491CDE90540CDE92F
:10375000074169460848FEF7CEFD08B172B6FEE79C
:10376000099409A904480A94FEF780FC002801D0B6
:1037700072B6FEE70CB010BDE801002010B58CB0A9
:1037800024216846FCF738FD0024164809941449A2
:103790000A94C0E900144EF66021C0E902410461B8
:1037A00084610320CDE900040120CDE90204062153
:1037B0000491CDE90540CDE9074169460948FEF786
:1037C0009AFD08B172B6FEE7099409A905480A9462
:1037D000FEF74CFC002801D072B6FEE70CB010BD1D
:1037E000000400403002002010B58CB0242168464F
:1037F000FCF702FD00241648099414490A94C0E914
:1038000000144EF66021C0E9024104618461032086
:10381000CDE900040120CDE9020406210491CDE99F
:103820000540CDE9074169460948FEF764FD08B146
:1038300072B6FEE7099409A905480A94FEF716FC3A
:10384000002801D072B6FEE70CB010BD00080040A1
:103850007802002010B58CB024216846FCF7CCFC1F
:1038600000241648099414490A94C0E900144EF63D
:103870006021C0E90241046184610320CDE90004B4
:103880000120CDE9020406210491CDE90540CDE9EE
:10389000074169460948FEF72EFD08B172B6FEE7FA
:1038A000099409A905480A94FEF7E0FB002801D015
:1038B00072B6FEE70CB010BD000C0040C002002044
:1038C00010B596B000240F94109411941294139490
:1038D0001C2168461494FCF78FFC202107A8FCF7F4
:1038E0008BFC3548334901600221C0E9011442F2E2
:1038F0000F71C0E903148021C0E90541FEF7F4FB14
:1039000008B172B6FEE74FF480500F900FA92A4815
:10391000FEF786FC08B172B6FEE72748FEF77EFF89
:1039200008B172B6FEE7139413A923481494FEF766
:103930009DFB08B172B6FEE76020CDE90004029459
:10394000039404940594002269461B480694FEF7EC
:1039500002FF08B172B6FEE7042269461648FEF778
:10396000FAFE08B172B6FEE7082269461248FEF771
:10397000F2FE08B172B6FEE70C2269460E48FEF769
:10398000EAFE08B172B6FEE70794089409944FF472
:1039900000500A94CDE90B4007A907480E94FEF7A2
:1039A0003BFB08B172B6FEE70348FEF795FE16B082
:1039B00010BD00000034014050030020FEE700006D
:1039C00010B5052000F0E2F900210C48FEF756FF83
:1039D00004210A48FEF752FF08210848FEF74EFF6F
:1039E0000C210648FEF74AFF00210548FEF746FF76
:1039F000BDE810400C210248FEF740BF50030020F4
:103A0000A00100207047704770B5164804F07CFA9A
:103A1000154803F071FF1348144C134DC1882180E1
:103A2000018961804189A1800188E18041882181EB
:103A300080880F4E608131462868FCF76CFCFCF7EB
:103A4000A4FEA08131466868FCF765FCFCF79DFE8A
:103A5000E0813146A868FCF75EFCFCF796FE208208
:103A600070BD0000400500205005002064040020C7
:103A70000000C84239493A480A88130A0370427064
:103A80004A88130A8370C2708A88130A03714271CC
:103A9000CA88130A8371C2710A89130A03724272B7
:103AA0004A89130A8372C2728A89130A03734273A2
:103AB000CA89130A8373C273098A0A0A0274417499
:103AC00028490A88130A8374C2744A88130A037542
:103AD00042758A88130A8375C275CA88130A0376E9
:103AE00042760A89130A8376C27649890A0A0277DE
:103AF00041771D490A88130A8377C2774A88130AD7
:103B000080F8203080F821208A88130A80F822303B
:103B100080F82320C9880A0A80F8242080F825101C
:103B200012490A88130A80F8263080F827204A882C
:103B3000130A80F8283080F829208A88130A80F830
:103B40002A3080F82B20C9880A0A80F82C2080F8B7
:103B50002D100622302100F021BB0000640400205B
:103B60008C040020100100200E0000202600002000
:103B7000704700000149096848627047E801002069
:103B800001490968486270477802002001490968C4
:103B900048627047C00200200149096848627047C6
:103BA00030020020006829B1042905D0082905D079
:103BB000026470474263704782637047C263704714
:103BC00010B53C210848FEF78BFC3C210748FEF766
:103BD00087FC3C210648FEF783FCBDE810403C21F1
:103BE0000448FEF77DBC0000E8010020C002002070
:103BF00078020020300200200148FEF7DBBA000006
:103C00000803002070B50C464149404E41F288350A
:103C1000096801280CD0022822D003283ED00428AD
:103C200055D0012970DBBDE870403AA000F0E6BC39
:103C3000032903DB21463FA000F0E0FC4CB1012C3E
:103C400062D12A4600214048FFF7ACFF0022102134
:103C500018E02A4600213C48FFF7A4FF0122F6E7BE
:103C6000032903DB214639A000F0C8FC4FF4805340
:103C70006CB1012C48D12A4604213348FFF792FF4A
:103C8000002219463046BDE87040FDF74BBB2A467E
:103C900004212D48FFF786FF0122F2E7032903DB09
:103CA00021462FA000F0AAFC54B1012C2CD12A46A9
:103CB0000C212548FFF776FF00220C212D481FE03C
:103CC00000220C212048FFF76DFF2A46F5E7032963
:103CD00003DB214628A000F091FC4CB1012C13D14C
:103CE0002A4608211848FFF75DFF00221146E5E744
:103CF0002A4600211F48FFF755FF002212480821DD
:103D0000BDE87040FFF74EBF70BD000000100140DD
:103D10007000002053746172745F4D6F746F723A5B
:103D20004E6F74206D61746368204D6F746F720DF7
:103D30000A0000004D4F544F525F41204449432038
:103D40003D2025640D0A0000500300204D4F544FC4
:103D5000525F4220444943203D2025640D0A000063
:103D60004D4F544F525F4320444943203D2025642A
:103D70000D0A0000A00100204D4F544F525F442017
:103D8000444943203D2025640D0A000010B5062853
:103D900034D2DFE800F03303060A121E0022114677
:103DA00001E0002204211A480FE000220C211848EB
:103DB000FFF7F8FE00220C2106E00022082114483B
:103DC000FFF7F0FE002211461248BDE81040FFF751
:103DD000E9BE002211460E48FFF7E4FE002204214E
:103DE0000B48FFF7DFFE00220C210948FFF7DAFE3F
:103DF00000220C210748FFF7D5FEDEE706480068E1
:103E0000012804DBBDE8104004A000F0F7BB10BDA2
:103E100050030020A00100207000002053746F7038
:103E20005F4D6F746F723A4E6F74206D617463688A
:103E3000204D6F746F720000FDF73CBD30B595B03A
:103E400028216846FCF7D8F914210AA8FCF7D4F910
:103E500018210FA8FCF7D0F901210804CDE90010C2
:103E60000025029502240491CDE907404FF4E010AB
:103E700009906846FDF72AFF08B172B6FEE70AA965
:103E80000F2081E831004FF48060CDE90D0502215B
:103E90000AA8FDF72FFE08B172B6FEE74FF4004006
:103EA00011900F940FA8FDF7AFFD002801D072B656
:103EB000FEE715B030BD70470148FEF759BB000062
:103EC00008030020F0B502681C4B1D4D1D4E1E4F0F
:103ED0001E4C4FF0804C984209D0A04207D060455C
:103EE00005D0A84203D0B04201D0B84204D122F09C
:103EF000700E4A6842EA0E02984209D0A04207D0EA
:103F0000604505D0A84203D0B04201D0B84203D1E9
:103F100022F44075CA682A434D6922F080022A4380
:103F200002608A68C2620A688262984201D0A04236
:103F300001D10969016301214161F0BD002C0140FB
:103F40000004004000080040000C00400034014024
:103F500010B501F01F030121046A99408C430462EB
:103F6000016A9A401143016210BD10B5846842EAAB
:103F7000032224F47F440A432243826010BD8268F6
:103F800022F070020A4342F007018160704700008E
:103F9000F0B5026A22F001020262036A4268846993
:103FA000124E24F073050C682C4323F002058B6835
:103FB0002B430D4DA84201D0B04205D123F0080794
:103FC000CB683B4323F00403A84201D0B04205D1A3
:103FD0004D6922F4407215438A692A434260846124
:103FE000496841630362F0BD002C01400034014088
:103FF000F0B5026A22F010020262026A4368846924
:104000000D6824F4E64444EA05248D6822F0200279
:1040100042EA05120F4D104EA84201D0B04206D11F
:10402000CF6822F0800242EA071222F04002A84242
:1040300001D0B04207D14D6923F4406343EA8503C0
:104040008D6943EA85034360846149688163026244
:10405000F0BD0000002C014000340140F0B5026AC0
:1040600022F480720262026A4368C46922F4007218
:1040700024F073050C68124E2C438D6842EA052229
:104080000E4DA84201D0B04206D1CF6822F40062A2
:1040900042EA072222F48062A84201D0B04207D14E
:1040A0004D6923F4405343EA05138D6943EA051330
:1040B0004360C4614968C1630262F0BD002C0140E5
:1040C0000034014030B5026A22F480520262046A70
:1040D0004268C3690D6823F4E64343EA05238D680B
:1040E00024F4005444EA0534084DA84202D0084D97
:1040F000A84204D14D6922F4804242EA851242600E
:10410000C36149680164046230BD0000002C0140B5
:104110000034014010B5036A046A24F0010404620B
:10412000846924F0F00444EA021423F00A020A43EA
:104130008461026210BD10B5036A23F010030362AC
:104140008369046A23F4704343EA023224F0A00333
:1041500043EA01118261016210BD10B5406A00217D
:10416000C185C184FEF7F4FB10BD0168CA6822F462
:104170009072CA6001684A6922F001024A61016BCB
:10418000012904D10168CA6822F01002CA60202106
:1041900080F83E100021016370470000F0B4002455
:1041A000322923D8124BAA251D7055255D704D1D4F
:1041B0009D70DA70002204E0865C9F18521C3E71EC
:1041C000D2B28A42F8D3091DC9B2002004E01A5CB9
:1041D000401C2244D4B2C0B28842F8D31C54EAB284
:1041E000F0BC044B02490448FEF756BEF0BC7047D1
:1041F00004050020FFFF0F00DC03002008B590F845
:104200003E10222901D0022008BD82684FF480535D
:104210009A4201D1016921B1816A9A421BD04AB107
:104220000AE00268816A5268C2F308020A80816A61
:10423000891C08E0026972B10268526802F07F02CC
:104240000A70816A491C8162C18D491E0904090CEA
:10425000C18503D019E002685268F1E70168CA68B5
:1042600022F02002CA600168CA6822F48072CA6023
:1042700001684A6922F001024A61202180F83E105B
:10428000016B012903D0FEF751FD002008BD00217C
:1042900001630168CA6822F01002CA6001680A68F6
:1042A000D20602D50A6849680091818DFEF74FFB5E
:1042B000EBE7000070B5044600680169E26821F48C
:1042C0004051114301612169A068084361690843B5
:1042D0002168CA6841F20C639A430243CA602068AD
:1042E0004169A26921F44071114341611E4920686E
:1042F000884202D1FDF7A4FC01E0FDF791FC00EB40
:10430000C00101EB0012606864218000B2FBF0F391
:10431000B3FBF1F36FF018067343B2FBF0F5B2FB99
:10432000F0F605EB8305322303EB0515B5FBF1F53C
:10433000B6FBF1F605F0F00505EB0615B2FBF0F65D
:10434000B2FBF0F0B0FBF1F06FF01802504306EB57
:10435000800003EB0010B0FBF1F0216800F00F00CB
:104360002844886070BD0000003801408162828569
:10437000C28500210164222280F83E2080F83C1092
:104380000168CA6842F48072CA6001684A6942F0F2
:1043900001024A610068C16841F02001C16000204B
:1043A00070472DE9F041984617460E460446069D93
:1043B0001DE0681C1BD02DB1FCF7BAFFA0EB080074
:1043C000A84214D92068C16821F4D071C160206866
:1043D000416921F001014161202084F83D0084F809
:1043E0003E00002084F83C000320BDE8F0812068F6
:1043F000006836EA000004D00020B842D9D000207E
:10440000F3E70120F9E7000010B50548FEF7A2FA2E
:10441000BDE81040102203490148FEF771BC0000BE
:104420009803002078040020054810B50068406813
:10443000C0B200F007F8BDE810400148FEF78ABAA4
:10444000DC0300202DE9F041474C0025474E217840
:10445000032915D231B1012909D0B070032121708F
:10446000401E16E0AA2807D13070012003E055282D
:1044700004D1707002202070BDE8F0812570FBE748
:10448000B278521E8A4206DD7054491C2170617850
:1044900008446070F0E761788842EDD13348F778DE
:1044A0008188C2880389112F02D0122F32D043E0B5
:1044B00048BA52BA01B216B22D485ABA13B20180A4
:1044C000468041F288328380914200DD0280B0F95B
:1044D000007028498F4200DA0180964200DD428058
:1044E000B0F902608E4200DA4180934200DD8280A2
:1044F000B0F904208A4200DA818061680329BDDBBB
:10450000B0F90430B0F90220B0F900101AA000F0A0
:1045100075F8B3E748BA01B22148018050BA02B237
:104520002048028058BA03B21F48038060680128FF
:10453000A4DB1EA000F062F8F07813289ED1B088AA
:10454000234F40BA3880F08840BA78803846FEF76A
:10455000E5FE6068012891DBB7F90220B7F9001089
:104560001CA000F04BF889E7B4000020C80400202C
:104570000800002078ECFFFF5265636569766520CE
:10458000524F5320537065656428782C792C7961DB
:1045900077293D25642C25642C25640D0A00000034
:1045A00074000020760000207800002052656365CA
:1045B00069766520524F532050494428502C492C8D
:1045C00044293D25642C25642C25640D0A00000037
:1045D00004000020726F626F745F706172616D73AE
:1045E0002825642C2564290D0A0000000148FEF7E7
:1045F000B1B9000020040020FEE700000FB4054B15
:1046000010B503A9044A029800F060F910BC5DF8E7
:1046100014FB00001566000808010020490050EA5C
:10462000C12018BF04204A0D18BF40F0010040F21D
:10463000FF72B2EB515F08BF40F00200012808BFD3
:10464000052070470907090E002804DB00F1E0206F
:1046500080F80014704700F00F0000F1E02080F8AF
:10466000141D7047004870470C0100202DE9F041EF
:104670004F1E00EBC7010446D1E9000115461E4656
:1046800037F006020DD02A463346FBF767FF7F1E40
:1046900004EBC703D3E90023FBF7B9FE37F00602AA
:1046A000F1D1022F25D0042F13D0062F18BFBDE85B
:1046B000F0812A463346FBF751FFD4E90A23FBF782
:1046C000A6FE2A463346FBF749FFD4E90823FBF749
:1046D0009EFE2A463346FBF741FFD4E90623FBF74B
:1046E00096FE2A463346FBF739FFD4E90423FBF74D
:1046F0008EFE2A463346FBF731FFD4E90223FBF74F
:1047000086FE2A463346FBF729FFD4E90023BDE89D
:10471000F041FBF77CBE0122FCF701B8FBF777BE46
:104720000022134610461146FBF78ABF024A0020BA
:104730001107FBF7F4BF000001FDFFFF02E008C80E
:10474000121F08C1002AFAD170477047002001E00B
:1047500001C1121F002AFBD1704700000149086007
:10476000704700000C0100202DE9FF5FDDE9022009
:10477000010DDDF838B0024318D044F61050A1F214
:10478000FF3141430D140F98012820D0A5EB0B00F9
:10479000401C5FEA000A4FF00004474EDFF81C910E
:1047A000A046504616D5CAF1000728E00F9801240C
:1047B00043A2012808D0002100980F9BC0E90021E6
:1047C000C0E90243BDE8FF9F6FEA0B01F4E7CBF1BC
:1047D0000000DEE7074612E0F80707D0224633461E
:1047E00040464946FBF7BAFE804689462246334694
:1047F00010461946FBF7B2FE04460E467F10002F06
:10480000EAD1DDE90201BAF1000F42464B4602DA75
:10481000FBF7A4FE01E0FBF713FF04460E4600225F
:10482000284BFBF7F3FF03D84FF0FF30014607E0BA
:104830000022254B20463146FBF7E9FDFCF74EF9F7
:10484000102409E0002C0ADB0A220023FCF728F8D8
:10485000019B30321A55641E50EA0102F2D1641CE9
:10486000019AC4F1110314440F9A012A03D00122C2
:1048700008430DD10AE0084304D000204FF0110B8B
:104880000F9080E7A3EB0B056D1E0DE05B4504DD8B
:104890004FF0000205F1010504E003DA4FF00002D9
:1048A000A5F10105002AECD000980F99C0E902316A
:1048B000C0E9004586E70000000024400000F03F0A
:1048C000300000000000F0430000E03F2DE9FF4F02
:1048D00095B09B468946064600250FE2252877D1EC
:1048E00000242746F84A0121059400E0044316F805
:1048F000013F203B01FA03F01042F7D130782A281B
:1049000011D06FF02F033078A0F13002092A16D8A9
:10491000059A44F0020402EB820203EB42021044C7
:10492000761C0590EFE759F8042B0592002A03DA6C
:10493000504244F40054059044F00204761C307850
:104940002E2816D116F8010F44F004042A280DD0A1
:104950006FF02F023078A0F13003092B09D807EB54
:10496000870302EB4303C718761CF3E759F8047B6F
:10497000761C30786C280FD006DC4C2817D06828BD
:104980000DD06A2814D104E0742810D07A280FD1F1
:104990000DE044F400140AE044F4801401E044F40F
:1049A00040147278824202D104F58014761C761C81
:1049B000307866280BD013DC582877D009DC002823
:1049C00075D04528F6D04628F4D047281AD19DE165
:1049D00018E0632835D0642879D0652812D195E194
:1049E000702873D008DC6728F1D069286FD06E2852
:1049F0000DD06F2806D1B5E073282CD0752875D05E
:104A0000782874D05A46179990476D1C75E1C4F305
:104A10000250022809D003280DD0D9F8001004282C
:104A20000DD00D6009F1040967E1D9F80010EA170B
:104A3000C1E90052F6E7D9F800100D80F2E70D70D9
:104A4000F0E719F8041B8DF8001000208DF8010024
:104A5000EA46012003E059F804AB4FF0FF3061074C
:104A60004FF0000102D40DE008F101018846B9427F
:104A70000FDA8045F8DB1AF808100029F4D108E0B5
:104A800008F1010188468142FADB1AF80810002972
:104A9000F6D105985B46A0EB080721463846179AE1
:104AA00000F094FA284400EB080507E04DE029E106
:104AB0000DE01AF8010B5A4617999047B8F1010812
:104AC000F7D25B4621463846179A13E142E00A22A4
:104AD0000092C4F302524FF0000A022A08D059F89B
:104AE00004CB032A4FEAEC710AD00DE029E02AE05A
:104AF00009F1070121F00702F2E802C1914609E03D
:104B00000FFA8CFC4FEAEC71042A03D14FFA8CFCAB
:104B10004FEAEC71002907DA0A460021DCF1000CAB
:104B200061EB02012D2202E0220504D52B228DF833
:104B30000420012203E0E20701D02022F7E790469B
:104B400059E00A2102E010220DE010214FF0000A86
:104B500000910BE010224FF0000A44F004040827F3
:104B6000009203E008224FF0000A0092C4F30252C0
:104B7000022A05D059F804CB0021032A08D009E005
:104B800009F1070121F00702F2E802C1914605E0B0
:104B90001FFA8CFC042A01D10CF0FF0C4FF0000826
:104BA000220728D5702806D0009B83F0100353EA13
:104BB0000A0305D00EE040228DF80420012208E00F
:104BC0005CEA010206D030228DF804208DF8050041
:104BD00002229046009B83F0080353EA0A030AD19D
:104BE0005CEA010201D1620705D530228DF804206C
:104BF0004FF001087F1E582804D034A003900EA85F
:104C000002900DE036A0F9E753466046009AFBF7A4
:104C100047FE84460398825C0298401E0290027010
:104C20005CEA0100F0D1029806A9081A00F1200AF6
:104C3000600702D524F4803400E00127574502DDE7
:104C4000A7EB0A0000E0002000EB0A0100900598A5
:104C50004144401A0590E00306D45B462146179A6A
:104C6000059800F0B3F90544002706E001A85A466C
:104C7000C05D179990476D1C7F1C4745F6DBE0032C
:104C80000CD55B462146179A059800F09FF905441C
:104C900004E030205A46179990476D1C0099481E31
:104CA00000900029F5DC08E0029802995A46007845
:104CB000491C0291179990476D1CBAF10001AAF1A5
:104CC000010AF1DC65E100000928010030313233CE
:104CD0003435363738396162636465660000000038
:104CE0003031323334353637383941424344454622
:104CF0000000000000F058F90544761C30780028C8
:104D00007FF4ECAD19B02846BDE8F08F620700D4FF
:104D1000062709F1070222F0070CFCE80223E1460E
:104D200003F000485FEA080C02D00FF2702C0DE08F
:104D30005FEA045C02D50FF2682C07E05FEAC47CEE
:104D400002D00FF2602C01E0AFF2700C4FF0FF3890
:104D500023F00043CDF850C065280CD006DC452870
:104D600009D046281DD047283DD13DE0662818D0FF
:104D700067287ED138E00021112F01DB112000E0EF
:104D8000781CCDE9000106A90EA8FFF7EDFCDDE9CE
:104D90000F010E9A03910021009207F1010A04917C
:104DA0004DE04FF000400097CDE9011006A90EA894
:104DB000FFF7DAFCDDE90F0203920E9B1199002246
:104DC000DDF80CA00093049211B9791C00EB010AE4
:104DD000B7EB0A0004D4C0F1FF3007F1010A0490D8
:104DE000AAEB0700019044E0012F00DA012700211F
:104DF000112F01DD112000E03846CDE9000106A9A0
:104E00000EA8FFF7B1FCDDE90F010E9A0391002116
:104E100004910092BA4621070CD40399514500DA57
:104E20008A46BAF1010F05DD009AAAF10101515C31
:104E3000302908D0B84202DA10F1040F06DA012155
:104E4000CDE9011015E0AAF10101E9E7002805DC30
:104E5000049901440491AAEB000102E0411C514570
:104E600000DD8A460499401A401C01904FF0004032
:104E70000290200704D40198504501DBCDF804804E
:104E800000208DF84F0002980DF14F07B0F1004F50
:104E900025D02B200E9002984FF0020800280CDA43
:104EA000404202902D200E9007E00A210298FBF765
:104EB000E1FC3031029007F8011DB8F10001A8F1C2
:104EC0000108F2DC02980028EFD1791E0E980870D4
:104ED000307800F0200040F0450007F8020D12A8DD
:104EE000C01B00F107081498007800B1012000EB06
:104EF0000A01019801EBE07105984144401A401EF7
:104F00000590E00306D45B462146179A059800F009
:104F10005DF805441498007818B15A4617999047DF
:104F20006D1CE00324D55B462146179A059800F0D6
:104F30004DF805441CE00498002807DBDDE9030177
:104F4000884203DD0098405C179901E017993020F2
:104F50005A469047049805F10105401C04900198B9
:104F6000401E019004D12E205A46179990476D1C7F
:104F7000BAF10001AAF1010ADDDC05E017F8010B26
:104F80005A46179990476D1CB8F10001A8F1010825
:104F9000F4DC5B462146179A0598ABE62D0000002D
:104FA0002B000000200000002DE9F0410446002500
:104FB0001E461746880404D405E039462020B04731
:104FC0006D1C641EF9D52846BDE8F0812DE9F0413D
:104FD000044600251E469046C80301D5302700E050
:104FE0002027880404D505E041463846B0476D1CAB
:104FF000641EF9D52846BDE8F08100002DE9FE4F7A
:1050000007460E460025684601F012FB00246FF0AB
:105010000F0AE8464FF0010957F8240056F824100B
:10502000401A00D54042FBF791FB5146FBF7E3F9EC
:1050300058F8241011F0FF4F0BD0FBF79EF94FF0FA
:105040007E51FBF762F90A4920F00040884205DCF6
:1050500007E0084908440849884202D309FA04F0E5
:105060000543641C032CD7DB2846BDE8FE8F0000F7
:10507000295C0F3E666666C19A99D9002DE9F04D0C
:105080008D4F21F0004A86B005460C46BA452ADB12
:10509000AAEB070028430AD08848824501DC1AD1D0
:1050A000CDB106B02846BDE8F04DFFF734BB844AC9
:1050B000844B2846FBF752FA07460E46824A834B3A
:1050C00028462146FBF74AFA06B03A463346BDE881
:1050D000F04DFBF79CB90120FFF740FB06B0BDE89F
:1050E000F04DFFF71DBB7A48824542DABAF1795F8D
:1050F0000BDA2846FFF792FA042808BFFFF716FBE1
:10510000284606B02146BDE8F08D2A460B461046DB
:10511000FBF724FA834602466E480E460B460621EC
:105120007844FFF7A3FA5A463346FBF717FA80464E
:1051300069488A465A46334604217844FFF796FA6E
:105140005A463346FBF70AFA00223B46FBF75FF963
:1051500002460B4640465146FBF772FA2A46234662
:10516000FBF7FCF906B02A462346BDE8F04DFBF7F5
:105170004EB9284624F0004100223D463B46FBF74D
:10518000EAF94FF0FF32FBF7CAFA064602465348E7
:105190000F460B4606217844FFF768FA32463B4635
:1051A000FBF7DCF9CDE900014D4832463B460421CE
:1051B0007844FFF75BFA32463B46FBF7CFF9002213
:1051C0002B46FBF724F9834602913046394602F01C
:1051D000DFFC804643480D46504517DCDDE9000101
:1051E0005A46029BFBF72CFA42462B46FBF7B6F9D0
:1051F00042462B46FBF70BF90122FBF790FA304AA7
:10520000304BFBF7A5F9304A304B4CE04FF0000A29
:1052100052460B464046FBF7FAF8CDE903105246DA
:105220002B4610461946FBF799F932463B46FBF7E9
:1052300092F9DDE90332FBF703FA06460F46DDE992
:1052400000015A46029BFBF7FBF9834600910122BD
:1052500030463946FBF763FA194A1A4BFBF77BF9DC
:1052600006460F46012240462946FBF758FA5A46A1
:10527000009BFBF773F932463B46FBF769F906469C
:105280000F46012250462946FBF749FA0E4DDFF83A
:1052900058802A464346FBF75EF932463B46FBF709
:1052A0005AF92A464346FBF756F9002CD8BF81F03D
:1052B000004106B0BDE8F08D0000F03F0000F07F37
:1052C000075C143326A6913C182D4454FB21F93F6A
:1052D0000000E03FA43B0000BA3B00002E3B000072
:1052E000443B00003333EF3FFB21E93F2DE9F84F0A
:1052F00004460D4621F0004000917349814211DCC3
:105300007249884201DC06D12CB120462946BDE80D
:10531000F84FFFF700BA6E48002DCCBF6D496E49BB
:10532000BDE8F88F6D49814211DD6D498142D8BFDA
:105330004FF0FF366DDD20462946FFF76FF9042850
:1053400008BFFFF7F3F920462946BDE8F88F654905
:10535000654F25F00045814233DD6449814219DD06
:10536000002632464FF0804320462946FBF74FF88F
:1053700080468A46012220462946FBF7D0F90022C2
:105380003B46FBF7E5F842465346FBF759F904461E
:105390000D463EE001260022BA463B4620462946FD
:1053A000FBF735F880460F46002253462046294633
:1053B000FBF7CEF842463B46FBF742F904460D4662
:1053C00027E04B4981421BDDDFF828A1022600229D
:1053D000534620462946FBF7C1F800223B46FBF71F
:1053E00016F880460F460022534620462946FBF712
:1053F000AFF842463B46FBF723F904460D4608E06A
:10540000032622462B4600203B49FBF719F90446A8
:105410000D4622462B4610461946FBF79FF88B4651
:10542000824602460B46FBF799F807460246334888
:1054300088460B4606217844FFF718F952465B462A
:10544000FBF78CF882462E488B463A4643460521A8
:105450007844FFF70BF93A464346FBF77FF80246DC
:105460000B46002E504659460CDAFAF7D0FF22467A
:105470002B46FBF773F801B022462B46BDE8F04FF0
:10548000FBF769B8FAF7C3FF22462B46FBF766F82D
:105490001C4A7A4402EBC603D3E90023FBF758F811
:1054A00022462B46FBF754F8174A7A4402EBC60310
:1054B000D3E90023FBF74FF8009A002AB8BF81F028
:1054C0000041BDE8F88F0000000010440000F07FAC
:1054D000182D4454FB21F93FFB21F9BF0000DC3FAC
:1054E0000000203E0000F33F0000F03F0000E63FD8
:1054F000008003400000F83F0000F0BF4639000084
:1055000004390000A23800006A3800002DE9F04D8F
:105510009446CCF1000423F000464CEA0404524FB8
:1055200046EAD4749A46884621F00042BC4206D826
:10553000454240EA050442EAD474BC4204D9BDE8BD
:10554000F04D6246FFF7EAB8AAF14055A5F17F6534
:1055500055EA0C040BD0022404EAAA74434DDFF888
:1055600010E144EAD87452EA000B04D00CE0BDE824
:10557000F04DFFF7BBBE002C14BF012CBDE8F08D31
:10558000022C30D0032C32D056EA0C0B0AD0BE428B
:1055900020D1BA4209D126F0804622F0804233461B
:1055A000114617E000291ADB25E0DFF8C8B0FB44FC
:1055B000002C04BFDBE90001BDE8F08D012C02BF27
:1055C000DBE9000181F00041BDE8F08D022C0AD03A
:1055D000032C0CD0BA4212D1B8F1000F0BDA2348D9
:1055E0002549BDE8F08D28462449BDE8F08D2846C0
:1055F0007146BDE8F08D1D482149BDE8F08D921B34
:1056000012153C2AC4BF19481D490EDCBAF1000F1F
:10561000BEBF12F13C0F0020014606DB6246FBF7DD
:105620000FF821F00041FFF761FE002C08BFBDE834
:10563000F08D012C04BF81F00041BDE8F08D114ACE
:10564000114B022C07D0FAF783FF2A46BDE8F04D34
:105650000A4BFAF77DBFFAF77BFF2A46BDE8F04D0B
:10566000064BFAF778BF00000000F07F182D445475
:10567000FB2109C0FE370000FB21F9BFFB210940D7
:10568000FB21F93F075C143326A6A13C04480178AE
:10569000012901D0002070470021017001207047CE
:1056A0000401002008B560B120208DF800002820FA
:1056B0008DF8010030208DF8020038208DF80300AD
:1056C00004E0A32204216846FAF78FFD6A4604210C
:1056D00040F69E2002F0E4F801F0A2FD08BD0000B3
:1056E0003EB5044602208DF80000CA208DF8010066
:1056F000E3208DF8020009208DF803006A4604219A
:10570000682002F0CDF8A3208DF80000610609D5CD
:10571000C0218DF80110C8218DF80210C2218DF82A
:10572000031005E08DF801008DF802008DF80300EC
:1057300014F4C07F09D0C4218DF80410CC218DF859
:105740000510C6218DF8061005E08DF804008DF8CF
:1057500005008DF806008DF808008DF807008DF81B
:1057600009006A460A2140F6A72002F099F8A0072E
:105770004FF0D80503D020208DF8000001E08DF80F
:1057800000506A46012140F6B62002F089F8A006D2
:1057900001D5012000E0002000F08EF814F4C07F55
:1057A0001ED0E0050AD5B2208DF800008B208DF8C0
:1057B0000100B6208DF802009B2009E0B0208DF892
:1057C000000080208DF80100B4208DF802009020A8
:1057D0008DF803006A46042140F6A22002F060F82A
:1057E000E1074FF40B6022D0F8218DF800106A46D3
:1057F000012102F055F8FA21072000F051FE0720A0
:1058000000F01CFE012000F039FE642000F0DCFEF8
:105810004FF4FA7000F0E8FEC821254800F0D6FDEC
:10582000282000F0EBFD0A2000F0F8FD05E08DF8DF
:1058300000506A46012102F033F8A00703D5D920B1
:105840008DF8000001E08DF800506A46012140F219
:105850003D7002F025F8600701D5012000E000202E
:1058600000F048F8E00601D5012000E00020FFF735
:1058700019FF104D44F00800688101F0D1FC0020B0
:10588000A873600601D50620A87314F4C07F02D067
:10589000A87B801DA87314F0140F02D0A87B1030D1
:1058A000A873A00702D0A87B001DA87300203EBDEE
:1058B00009E3CA025C0500200EB54FF4976310B1EE
:1058C00006A107C901E008A207CA8DE807006A46D9
:1058D0000921184601F0E4FF0EBD0000B8AAB38DFF
:1058E000B4980D355D000000B8AAAAAAB088C3C557
:1058F000C700000008B560B1C0208DF80000C220CC
:105900008DF80100C4208DF80200C6208DF8030038
:1059100004E08B2204216846FAF767FC6A460421FA
:1059200040F6982001F0BCFF01F07AFC08BD0000B1
:105930003EB54FF47A74CDE900320A46014602942E
:1059400001230248FBF7BEFD3EBD00004C010020D4
:105950003EB54FF4FA74CDE900320A46014602948E
:1059600001230248FBF7D6FE3EBD00004C0100209B
:10597000F8B5002000906B4601227521D120FFF779
:10598000D7FFC24CE068022824DBC1A0FEF736FE38
:10599000E06802281EDBC7A0FEF730FEE0680228A0
:1059A00018DBCAA0FEF72AFEE068022812DB9DF889
:1059B0000010C7A0FEF722FEE06802280ADB9DF86F
:1059C0000010C9A0FEF71AFEE068022802DBBFA0A3
:1059D000FEF714FE9DF8000068280CD0BFF34F8F2F
:1059E000C7480168C74A01F4E06111430160BFF391
:1059F0004F8F00BFFDE701F031FA00287ED17820FB
:105A000001F0F2FE0028E06879D0012808DBBEA092
:105A1000FEF7F4FDE068022802DBACA0FEF7EEFD25
:105A2000782001F04DF90028E0687ED0012809DBDC
:105A3000BDA000BFFEF7E2FDE068022802DBA3A0E4
:105A4000FEF7DCFD642001F08FFE0028E06871D0D5
:105A5000012809DBBBA000BFFEF7D0FDE0680228EB
:105A600002DB9AA0FEF7CAFD00F07AFA0028E0688F
:105A700064D0012808DBBCA0FEF7C0FDE068022866
:105A800002DB92A0FEF7BAFD80481030054601F017
:105A900019F80646E81C01F015F846EAC006A81DEC
:105AA00001F010F846EA801080B200F009FC0028EE
:105AB000E06847D0012809DBB6A000BFFEF79EFDD5
:105AC000E068022802DB81A0FEF798FD40F2731027
:105AD000FFF706FE0028E06838D0012808DBB5A0F3
