:020000040800F2
:10000000C8090020CD01000829240008351E000879
:10001000C523000823030008812A0008000000000F
:100020000000000000000000000000002D24000877
:1000300025030008000000002B2400089925000873
:10004000E7010008E7010008E7010008E7010008F0
:10005000E7010008E7010008E7010008E7010008E0
:10006000E7010008E7010008E7010008E7010008D0
:10007000E7010008E7010008E7010008E7010008C0
:10008000E7010008E7010008E7010008E7010008B0
:10009000E7010008E7010008E7010008E7010008A0
:1000A000E7010008E7010008E7010008E701000890
:1000B000E7010008E7010008E7010008E701000880
:1000C000E7010008E7010008E7010008E701000870
:1000D000E7010008692A0008752A0008E7010008FE
:1000E000E7010008E7010008E7010008E701000850
:1000F000E7010008E7010008E7010008E701000840
:10010000E7010008E7010008E7010008E70100082F
:10011000E7010008E701000819260008E7010008C8
:10012000E7010008E7010008E7010008E70100080F
:1001300000F002F800F03AF80AA090E8000C8244BF
:100140008344AAF10107DA4501D100F02FF8AFF29C
:10015000090EBAE80F0013F0010F18BFFB1A43F0A5
:1001600001031847A02A0000C02A0000103A24BF4B
:1001700078C878C1FAD8520724BF30C830C144BF0C
:1001800004680C607047000000230024002500264E
:10019000103A28BF78C1FBD8520728BF30C148BFEA
:1001A0000B6070471FB51FBD10B510BD00F05CF8A7
:1001B0001146FFF7F7FF02F075FC00F07AF803B480
:1001C000FFF7F2FF03BC00F07BF80000094880470E
:1001D00009480047FEE7FEE7FEE7FEE7FEE7FEE729
:1001E000FEE7FEE7FEE7FEE704480549054A064B41
:1001F000704700001726000831010008C8030020DE
:10020000C8090020C8050020C80500204FF00002E2
:1002100000B5134694469646203922BFA0E80C50FC
:10022000A0E80C50B1F12001BFF4F7AF090728BFD7
:10023000A0E80C5048BF0CC05DF804EB890028BF53
:1002400040F8042B08BF704748BF20F8022B11F07C
:10025000804F18BF00F8012B7047704770477047F8
:1002600000487047640300207546FFF7F9FFAE466B
:1002700005006946534620F00700854618B020B5B2
:10028000FFF7B2FFBDE820404FF000064FF0000737
:100290004FF000084FF0000B21F00701AC46ACE82E
:1002A000C009ACE8C009ACE8C009ACE8C0098D469B
:1002B00070470446AFF300802046FFF780FF704789
:1002C00001491820ABBEFEE72600020070B50446C7
:1002D00000688168C943C90717D1816821F001010D
:1002E000816000F01BFB05460AE000BF00F016FB32
:1002F000401B022804D920688068C043C00706D08C
:1003000020688068C043C007F0D0002070BDA06A9C
:1003100040F01000A062E06A40F00100E0620120BD
:1003200070BDFEE770470000F8B50024009490F817
:1003300024202546012A12D0012280F824204A6870
:100340001F23072A0DD20668776B521E02EB82022A
:1003500093409F430B6893401F43776319E002204B
:10036000F8BD06680D2A0AD2376BD21F02EB820253
:1003700093409F430B6893401F43376309E0F76A3C
:100380000D3A02EB820293409F430B6893401F4358
:10039000F7620A68072306680A2A0AD3F7680A3A46
:1003A00002EB420293409F438B6893401F43F760E8
:1003B00008E0376902EB420293409F438B68934009
:1003C0001F4337610A68102A01D0112A20D1124B2D
:1003D00002689A4217D193681B0219D4936843F4B8
:1003E000000393600968102912D10C490C4A09686E
:1003F000B1FBF2F101EB8101490000E0491E0091DF
:100400000029FBD104E0816A41F0200181620124CE
:1004100080F824502046F8BD002401400C00002044
:1004200040420F002DE9F04104004FF0000514D0C8
:10043000A06A002628B9E66284F82460204600F00D
:1004400083F82046FFF742FFA16A01F01001014343
:1004500004D0A06A40F01000A0626BE0A16A21F411
:10046000885141F00201A162334923688B42E1695E
:1004700004D1B1F5402F01D14FF40021277B4FF477
:10048000807C41EA470261680A43A168614509D05E
:10049000012907D05FF0000194F814E0BEF1010FCC
:1004A00002D00AE06146F7E7C7B1A76A47F0200724
:1004B000A762E76A47F00107E7625F6827F46947C8
:1004C0000F435F60236899681C4F3940114399605E
:1004D000A16861450BD0012909D00CE0DFF860E08C
:1004E000A7690EEB47370F4347F40061E5E7218A20
:1004F0000D05A5F580152168CB6A23F470032B4305
:10050000CB62216889680F4B1940914208D1E6629D
:10051000A16A21F0020141F00101A162BDE8F08170
:10052000A06A20F0020040F01000A062E06A40F0F3
:100530000100E0620120F1E7003C0140FDF7E1FF2E
:1005400000E0FFFFFE0E1FFF00B585B00021009107
:1005500001910291039100680E49884218D10E481A
:10056000816941F480618161816901F48061049154
:10057000816941F0080181618069694600F00800E5
:1005800004900120009003200190044800F0C4F87A
:1005900005B000BD0028014000100240000C0140E1
:1005A00010B590F821100022022905D004218163A2
:1005B00080F82020012010BD01680B6823F00E0395
:1005C0000B6001680B6823F001030B6090F840306A
:1005D000C46B012101FA03F3636080F8211080F8F5
:1005E0002020104610BD00002DE9F05F90F821108A
:1005F0000024022903D004218163012485E00168DD
:100600000A6822F00E020A6001680A6822F00102FC
:100610000A603F4E3E4FB215DFF8F4C0DFF8F090AD
:10062000DFF8ECA0DFF8E8B0DFF8E4E00168783F3D
:1006300013011502ACF1640CA9F15009AAF13C0AAE
:10064000ABF1280BAEF1140E4FF48018B14227D94C
:10065000B9420ED0614512D049451DD0514518D040
:10066000594518D0714501D1424615E0294EB14295
:1006700001D1012210E0274E1436B14201D11022DF
:100680000AE0244E2836B14206D0224A3C3291423A
:1006900001D11A4600E02A461E49091F0A602BE0D4
:1006A000B94213D0614517D0494522D051451DD0DC
:1006B00059451DD0714501D142461AE0B14202D1DF
:1006C0004FF0807215E0134EB14201D1012210E0CB
:1006D000104E1436B14201D110220AE00D4E2836D8
:1006E000B14206D00B4A3C32914201D11A4600E099
:1006F0002A46074980394A60012180F821100021EB
:1007000080F82010416B01B188472046BDE8F09F7A
:1007100080000240080402402DE9F84FDFF8C8913C
:10072000002409F1040A0AF1040B23460F270BF1F8
:10073000040ED1E00125A54006EA0502AA4276D1C1
:10074000DFF8A8C14E68A6EB0C0866452BD00DDC7F
:10075000032E34D005DC36B3012E19D0022E2FD152
:100760001BE0112E16D0122E2AD119E0B8F5881FE1
:1007700019D006DCB8F5803F15D0B8F5801F1FD121
:1007800011E0B8F5001F0ED0B8F5041F18D10AE02B
:10079000CB6815E0CB681B1D12E0CB6808330FE077
:1007A000CB680C330CE08B682BB1012B4FF00803A6
:1007B00003D0456104E0042302E0056100E000236A
:1007C000FF2A01D8064601E000F104064FEA84053D
:1007D00001D9A5F12005D6F8008007FA05FC28EA22
:1007E0000C0803FA05F548EA0508C6F800804D68CC
:1007F000ED0070D53E4DAE6946F00106AE61AD69C3
:1008000024F0030605F0010500953A4D06EB050CB2
:10081000DCF80850A607360F07FA06F825EA08059F
:10082000DFF8D480404503D14FF0000825E052E0C6
:10083000DFF8C880404502D14FF001081DE0DFF825
:10084000C080404502D14FF0020816E0DFF8B480C6
:10085000404502D14FF003080FE0DFF8AC8040457F
:1008600002D14FF0040808E0DFF8A080404502D133
:100870004FF0050801E04FF0060808FA06F848EACC
:100880000508CCF808804D68D9F80060ED034D46A6
:1008900001D5164300E096432E604D68DAF80060FB
:1008A000AD03554601D5164300E096432E604D68D2
:1008B000DBF80060ED025D4601D5164300E096438B
:1008C0002E604D68DEF80060AD02754601D5164316
:1008D00000E096432E60641C0A681646E2407FF4EE
:1008E00029AFBDE8F88F000000040140000011109E
:1008F000001002400000014000080140000C0140CF
:10090000001001400014014000180140001C01408B
:100910000AB1016170470904FBE7000001488068E3
:10092000704700000000002070B5040025D094F846
:100930003D00002520B984F83C50204600F0B8F86E
:10094000242084F83D002068016821F00101016045
:100950002068016841F4004101602068016821F4C9
:100960000041016000F080FA4D4A6168914201D86F
:100970004C4900E04C49884201D2012070BD4B49EE
:100980002368B0FBF1F15E6826F03F060E435E601F
:100990006368934206D94FF4967359434FF47A73C0
:1009A000B1FBF3F12368491C1E6A26F03F06314370
:1009B00019626168914210D84900401EB0FBF1F203
:1009C000521CC2F30B02042A01D2042022E0B0FB25
:1009D000F1F0401CC0F30B001CE0A268F2B301EB85
:1009E000C10303EB0116431EB3FBF6F35B1C43F498
:1009F00080431B0549D092B301EBC10202EB011108
:100A0000401EB0FBF1F0401CC0F30B0040F48040EE
:100A100040F400402168CA694CF6FF739A431043C2
:100A2000C861D4E9071001432068026822F0C002BF
:100A300011430160D4E9030101432068826848F250
:100A4000FF339A4311438160D4E9050108432168CB
:100A5000CA6822F0FF021043C86001E00EE016E011
:100A60002068016841F0010101602564202084F8BC
:100A70003D00256384F83E50002070BD01EB410627
:100A8000431EB3FBF6F35B1CB3E70120C2E701EBA7
:100A90004101401EB0FBF1F0401CC0F30B00B7E772
:100AA000A086010080841E0000093D0040420F0026
:100AB00010B586B000210091019102910391006868
:100AC0001349884222D1134CA06940F00800A0616C
:100AD000A069694600F0080004904FF4407000904F
:100AE00012200190032003900B48FFF715FE0B48DE
:100AF000416841F0E06141F002014160E06940F489
:100B00000010E061E06900F40010049006B010BD30
:100B10000054004000100240000C01400000014061
:100B2000024881680278114481607047000000200B
:100B3000074810B5016841F010010160032000F082
:100B400075F80F2000F006F800F024F8002010BD22
:100B50000020024070B50D4D04464FF47A7128789C
:100B6000B1FBF0F00A490968B1FBF0F000F062FB5C
:100B700048B9102C07D200222146501E00F036F84A
:100B800000206C6070BD012070BD000000000020DE
:100B90000C0000200C4808B5816941F00101816119
:100BA000816901F001010091C16941F08051C16189
:100BB000C06900F0805000900448416821F0E06175
:100BC00041F00071416008BD00100240000001408A
:100BD000002809DB00F01F0201219140400980003C
:100BE00000F1E020C0F8001170470000F0B40E4B97
:100BF0001B680C46C3F30223C3F10705042D00D97B
:100C00000425191D072901D2002300E0DB1E01265F
:100C100006FA05F1491E214099409E40761E164075
:100C20003143F0BC01F02DBF0CED00E0064900F0AF
:100C3000070208684FF6FF03184040EA0220034A03
:100C400010430860704700000CED00E00000FA055A
:100C50002DE9F84305460078354CC00754D0E069CB
:100C60000026C00008D4E06940F08050E061E069EF
:100C7000012600F0805000902E480168C90512D46A
:100C80000168804641F480710160FFF747FE074626
:100C900005E000BFFFF742FEC01B642823D8D8F848
:100CA0000000C005F6D5206A10F4407021D0A98854
:100CB00001F4407181421CD0206A1F49012220F4B6
:100CC00040700A6000220A602062C00711D0FFF75E
:100CD00025FE074641F2883808E000BFFFF71EFEF8
:100CE000C11B414502D90320BDE8F883206A800773
:100CF000F4D5206A696820F44070084320621EB170
:100D0000E06920F08050E0612878800705D56068B0
:100D1000A96820F44040084360602878C00605D5E3
:100D20006068696920F48000084360600020DBE7A8
:100D30000010024000700040400442422DE9F0479C
:100D40000F46050061D0434E306800F00700B842FE
:100D500009D2306820F0070038433060306800F076
:100D60000700B84251D128683B4C810712D5400793
:100D700003D5606840F4E06060602878000703D520
:100D8000606840F4605060606068A96820F0F0001E
:100D9000084360602878C00728D06868012810D010
:100DA0002168022810D0890700292EDA616821F015
:100DB000030101436160FFF7B1FD804641F28839CC
:100DC0000DE021688903EFE78901EDE7FFF7A6FD54
:100DD000A0EB0801494502D90320BDE8F08760680F
:100DE000696800F00C00B0EB810FEFD1306800F0C3
:100DF0000700B8420BD9306820F007003843306054
:100E0000306800F00700B84201D00120E5E72878FB
:100E1000400705D56068E96820F4E0600843606039
:100E20002878000706D56068296920F4605040EAF8
:100E3000C100606000F038F86168084AC1F303112E
:100E4000515CC8400649086006480068FFF782FE0A
:100E50000020C2E70020024000100240EC2B0008F6
:100E60000C0000200400002004480549006849687F
:100E7000044AC1F30221515CC84070470C000020B5
:100E800000100240FC2B000804480549006849682E
:100E9000044AC1F3C221515CC84070470C000020D5
:100EA00000100240FC2B000812A185B00FC98DE88C
:100EB0000F0014A0144A006804905168134801F010
:100EC0000C03042B10D0082B0ED1C1F38343C903AC
:100ED0001DF803000AD5516804AAC1F34041515CD2
:100EE0000A4A5043B0FBF1F005B070470849484347
:100EF000FAE7000002030405060708090A0B0C0DB7
:100F00000E0F1010010200000010024000127A00C3
:100F100000093D002DE9F84F040070D02078C04D45
:100F2000C00749D06868C0F38100012807D068680D
:100F3000C0F38100022809D16868C00306D528687B
:100F4000800339D560680028E7D035E06068B0F5E7
:100F5000803F0BD010B1B0F5A02F11D0286820F43D
:100F600080302860286820F4802002E0286840F45F
:100F700080302860606890B1FFF7D0FC06460AE038
:100F8000286840F480202860F0E700BFFFF7C6FC27
:100F9000801B642873D828688003F7D50CE0FFF71E
:100FA000BDFC064605E000BFFFF7B8FC801B6428C7
:100FB000F0D828688003F7D420789A4E80074FF045
:100FC00001094FF0000839D5686810F00C0F07D000
:100FD0006868C0F38100022809D16868C00306D49C
:100FE0002868800714D52069012808D110E02069FD
:100FF000B0B1C6F80090FFF791FC074605E00AE1A2
:10100000FFF78CFCC01B0228C4D828688007F7D5DE
:101010002868616920F0F80040EAC10028600DE00E
:10102000C6F80080FFF77AFC074604E0FFF776FC7D
:10103000C01B022823D828688007F7D4207800072F
:101040002CD57948A169D9B1C0F80090FFF766FCAA
:10105000074604E0FFF762FCC01B02280FD8686A4D
:101060008007F7D571484FF4FA510068B0FBF1F0F2
:10107000009000BF0098411E0091FAD20EE080E07F
:10108000C0F80080FFF74AFC074604E0FFF746FC83
:10109000C01B022875D8686A8007F7D420784007FB
:1010A00060D5E8690027C00008D4E86940F08050A6
:1010B000E861E869012700F0805000905C48016811
:1010C000C90513D40168834641F480710160FFF7BC
:1010D00025FC824606E000BFFFF720FCA0EB0A00DB
:1010E00064284ED8DBF80000C005F5D5E06801287B
:1010F0000AD008B1052813D0286A20F00100286220
:10110000286A20F0040002E0286A40F0010028620A
:10111000E06841F2883B98B1FFF700FC82460BE0A3
:10112000286A40F004002862EEE700BFFFF7F6FBF4
:10113000A0EB0A0159455AD8286A8007F6D50CE079
:10114000FFF7ECFB824605E0FFF7E8FBA0EB0A01A6
:1011500059454CD8286A8007F6D41FB1E86920F0B9
:101160008050E861E06988B36968C1F381010229B0
:1011700044D00228C6F8608004D0FFF7CFFB0446B5
:1011800038E034E0FFF7CAFB074604E0FFF7C6FB90
:10119000C01B02282BD828688001F7D4206AB0F53C
:1011A000803F05D16868A16820F40030084368607A
:1011B000D4E908010843696821F4741108436860A0
:1011C000C6F86090FFF7AAFB044606E025E000BFE2
:1011D000FFF7A4FB001B022809D828688001F7D577
:1011E0001BE000BFFFF79AFB001B022802D9032077
:1011F000BDE8F88F28688001F4D40EE00128F7D00C
:101200006868226A00F48031914204D1616A00F476
:101210007010884201D00120EAE70020E8E70000D2
:101220000010024000004242800442420C000020B4
:101230000070004010B5401EB0F1807F01D3012046
:1012400010BD4FF0E02460610F21601701F019FC20
:101250000020A06107202061002010BD704770476A
:1012600010B590F83C20012A22D0012280F83C20C1
:10127000CA688C6822F4407222434C6822F480626F
:1012800022430C6822F4006222430C6922F480524B
:1012900022434C6922F400522243C969002322F4FC
:1012A00080420A4301684A6480F83C30002010BD47
:1012B000022010BD70B590F83C20012A2CD00124EA
:1012C00080F83C40022280F83D2003685A689D68FF
:1012D00022F070060A6832435A60104B02689A4244
:1012E0000ED00F4B9A420BD0B2F1804F08D00D4B6D
:1012F0009A4205D00C4B9A4202D00C4B9A4204D130
:10130000496825F080031943916080F83D40002131
:1013100080F83C10084670BD022070BD002C0140D2
:10132000003401400004004000080040000C004070
:1013300010B5040003D094F83D0010B107E001207F
:1013400010BD002084F83C00204600F01FF8022069
:1013500084F83D00211D206801F064F9012084F823
:10136000460084F83E0084F83F0084F8400084F88A
:10137000410084F8420084F8430084F8440084F873
:10138000450084F83D00002010BD000008B5174A54
:1013900001681748914207D1816941F40061816178
:1013A000806900F400601EE0124A914211D1C169C7
:1013B00041F01001C161C069002200F010000090EE
:1013C00011463620FFF712FCBDE808403620FFF733
:1013D000FFBB094A914207D1816941F40051816103
:1013E000806900F40050009008BD0000002C01400E
:1013F00000100240001000400034014070B5044667
:1014000090F83C00012817D0012584F83C500220B8
:1014100084F83D002068826822F0770222F47F423F
:1014200082600868502830D00DDC20284DD005DCC3
:1014300098B310283BD148E0022070BD302844D03A
:10144000402834D139E0602828D0702806D0B0F583
:10145000805F2CD0B0F5005F29D10AE0CB68D1E9DC
:101460000121206801F031F92068816841F077019D
:1014700009E0CB68D1E90121206801F026F9206854
:10148000816841F48041816011E0CA684968206840
:1014900001F0F0F95021206807E016E0CA684968B9
:1014A000206801F0F8F96021206801F018F984F84B
:1014B0003D50002084F83C0070BDCA68496820682F
:1014C00001F0D8F940212068EFE722680146104674
:1014D000EBE72DE9F0410D46040003D094F83D0000
:1014E00018B108E00120BDE8F081002084F83C003C
:1014F000204600F041F8022084F83D002068816811
:1015000044F2070291438160211D206801F08AF8AE
:10151000226890689169166A2B68AF69034340F2AC
:101520000330814341EA0721A868EF6908434FF679
:10153000FC418843E96840EA0720014328692F6A93
:10154000000140EA0730084369686D6926F0220609
:1015500046EA0515294393602268906154F8460BCA
:101560000162012004F81F09E0752076E0762077FB
:10157000A0750020B7E7000070B586B00025009583
:1015800001950295039500684549464A464E474CE9
:10159000B0F1804F22D0464B98424ED1C86940F0FE
:1015A0000200C861C86900F002000490886940F038
:1015B000080088618869694600F0080004903020BE
:1015C00000903046FFF7A8F8606820F4406040F0D3
:1015D000E06040F40060606006B070BDC86940F033
:1015E0000100C861C86900F001000490886940F0FA
:1015F00004008861886900F004000490886940F064
:10160000080088618869694600F0080004904FF47A
:10161000004000901046FFF77FF80820CDE9000554
:10162000694630460295FFF777F8606820F440700D
:1016300040F0E06040F48070CDE71E4B984214D13A
:10164000C86940F00400C861C86900F00400049053
:10165000886940F0080088618869694600F00800E0
:101660000490C0200090304616E0134B9842B3D14E
:10167000C86940F00800C861C86900F0080004901B
:10168000886940F0040088618869694600F00400B8
:101690000490032000901046FFF73EF89CE70000FE
:1016A0000010024000080140000C01400000014011
:1016B0000004004000080040000C0040704770B576
:1016C0000446006801694FF00005C943890715D435
:1016D000C168C943890711D4E91E0161012020773F
:1016E000206880698007204602D0FFF7E7FF04E00A
:1016F00000F0D6F8204600F065F9257720680169EA
:10170000C943490717D4C168C943490713D46FF0C7
:1017100004010161022020772068806910F4407F75
:10172000204602D0FFF7CAFF04E000F0B9F82046D7
:1017300000F048F9257720680169C943090716D4E4
:10174000C168C943090712D46FF008010161042080
:1017500020772068C0698007204602D0FFF7AEFFDF
:1017600004E000F09DF8204600F02CF92577206871
:101770000169C943C90617D4C168C943C90613D44E
:101780006FF010010161082020772068C06910F413
:10179000407F204602D0FFF791FF04E000F080F880
:1017A000204600F00FF9257720680169C943C90771
:1017B00008D1C168C943C90704D1891E0161204607
:1017C00000F05CF920680169C943090609D4C168C1
:1017D000C943090605D46FF0800101612046FFF777
:1017E0003DFD20680169C943490609D4C168C94360
:1017F000490605D46FF040010161204600F03FF931
:1018000020680169C94389060BD4C168C9438906A8
:1018100007D46FF0200101612046BDE87040FFF75A
:101820001EBD70BD00B585B00021009101910291EF
:101830000391164B0268164802219A420FD1826921
:1018400042F0040282618069039100F00400049078
:101850004FF41060CDE9000169460E4811E00E4BCF
:101860009A4210D1826942F010028261806903912C
:1018700000F0100004904FF47070CDE9000169464B
:101880000648FEF749FF05B000BD0000002C0140EE
:1018900000100240000801400034014000100140E7
:1018A000704770B5044690F83C000D4601280AD0F8
:1018B000012084F83C0042B1042A18D0082A2AD01A
:1018C0000C2A4DD139E0022070BD206800F010FFD5
:1018D0002068816941F0080181612068816921F0F7
:1018E00004018161206881692A69114311E020683F
:1018F00000F02EFF2068816941F400618161206859
:10190000816921F480618161206881692A6941EAE5
:101910000221816124E0206800F050FF2068C16945
:1019200041F00801C1612068C16921F00401C16171
:101930002068C1692A69114311E0206800F072FF34
:101940002068C16941F40061C1612068C16921F466
:101950008061C1612068C1692A6941EA0221C161CF
:10196000002084F83C0070BD10B5040003D094F84A
:101970003D0010B107E0012010BD002084F83C00BC
:10198000204600F01EF8022084F83D00211D20684A
:1019900000F048FE012084F8460084F83E0084F8F8
:1019A0003F0084F8400084F8410084F8420084F845
:1019B000430084F8440084F8450084F83D0000208A
:1019C00010BD70477047000010B50446022249B1AF
:1019D00004290ED0082913D094F84100012816D00C
:1019E000012010BD94F83E000128F9D184F83E2072
:1019F0000FE094F83F000128F2D184F83F2008E07E
:101A000094F840000128EBD184F8402001E084F8EC
:101A100041200122206800F04BFE13492068134A40
:101A2000884201D0904203D1436C43F400434364A5
:101A3000206888420DD090420BD0B0F1804F08D082
:101A40000B49884205D00B49884202D00A49884296
:101A500004D1816801F00701062903D0016841F033
:101A600001010160002010BD002C01400034014044
:101A70000004004000080040000C00407047704720
:101A800070477047F8B5026804461068D16853691A
:101A900010F00F0F4FF0000554D003F0010601F4D1
:101AA000907737435FD0C20705D0CA0503D5226CB3
:101AB00042F001022264420705D5DA0703D0226C06
:101AC00042F002022264820705D5DA0703D0226CB5
:101AD00042F004022264020707D501F020023243DB
:101AE00003D0226C42F008022264226C002A35D016
:101AF000800604D5880602D5204600F0FEFE206848
:101B00004069216CC0F3801001F0080101432046B8
:101B100025D000F0DAFE2068416949061BD54169ED
:101B200021F040014161A06BA8B158494163A06B0D
:101B3000FEF75AFD002811D0A06B416B01B0BDE843
:101B4000F040084783060ED58B060CD52046BDE82D
:101B5000F84000F0D2BE2046FFF793FFF8BDFFF734
:101B600090FF2564F8BD266B2023012E52D1C606B6
:101B700050D5CE064ED5106850680090506940068A
:101B80002AD5A16B086840680004000CEAD0A68D35
:101B90008642E7D9E0858869202818D0D06820F4EB
:101BA0008070D0602068416921F0010141612068A6
:101BB000416921F04001416184F83E30256320688D
:101BC000C16821F01001C160A06BFEF7E9FCA08D97
:101BD000E18D401A81B219E0A08DE18D401A81B2E9
:101BE000E08D0028BED00029BCD0D06820F49070D1
:101BF000D0602068426922F00102426184F83E30E0
:101C000025632068C26822F01002C2602046FFF7F8
:101C100037FFF8BD05062BD50D0629D594F83D00F4
:101C20002128F6D1A068B0F5805F01D12069B0B15C
:101C3000206A411C2162216800784860E08C401EC7
:101C40000004000CE084E4D12068C16821F0800128
:101C5000C1602068C16841F04001C160F8BD206AE0
:101C60000088C0F308005060206A801C2062E5E70D
:101C70004006F3D54806F1D5D168204621F0400151
:101C8000D16084F83D3000F0D4F8F8BDBB280008DE
:101C900070B5040004D094F83D00002510B106E0B2
:101CA000012070BD84F83C50204600F023F8242029
:101CB00084F83D002068C16821F40051C1602046CD
:101CC00000F076FE2068016921F4904101612068EE
:101CD000416921F02A0141612068C16841F4005145
:101CE000C1602564202084F83D0084F83E00002077
:101CF00070BD0000F0B585B00024009401940294FA
:101D000003940368434F022043490322434D460294
:101D1000BB4225D18B6943F480438B618B6903F40B
:101D2000804304938B6943F004038B6189690392B8
:101D300001F0040104910102CDE900106946284632
:101D4000FEF7EAFCCDE90064694628460294FEF7F6
:101D5000E3FC002211462520FEF748FF252028E05D
:101D60002F4FBB4229D1CB6943F40033CB61CB6900
:101D700003F4003304938B6943F004038B61896996
:101D8000039201F0040104910421CDE90010694699
:101D90002846FEF7C1FC0820CDE900046946284624
:101DA0000294FEF7B9FC002211462620FEF71EFF22
:101DB0002620FEF70DFF05B0F0BD1A4DAB42FAD15B
:101DC000CB6943F48023CB61CB6903F48023049374
:101DD0008B6943F010038B618969134D01F0100189
:101DE000CDE90321CDE9006069462846FEF794FC61
:101DF000E814CDE90004694628460294FEF78CFCFD
:101E00000A48416821F0300141F0E06141F01001E1
:101E10004160D0E700380140001002400008014056
:101E20000044004000480040001001400000014014
:101E300070477047FEE7000010B51446012806D031
:101E4000002811D1BDE81040012000F067BB09B1A6
:101E5000012902D1012000F0F9FA2246BDE8104024
:101E60000021024800F0E3BA10BD0000500200203B
:101E700010B51446012806D0002811D1BDE8104045
:101E8000022000F04BBB09B1012902D1022000F071
:101E9000DDFA2246BDE810400421024800F0C7BA2E
:101EA00010BD00005002002010B51446012806D0D5
:101EB000002819D1BDE81040032000F02FBB59B114
:101EC000012911D1032000F0C1FA084822460C2153
:101ED000BDE8104000F0ABBA0021032000F0B6FAD4
:101EE00022460C210248F3E710BD000050020020FA
:101EF000A000002010B51446012806D0002819D1F2
:101F0000BDE81040042000F009BB59B1012911D1EE
:101F1000042000F09BFA084822460821BDE8104042
:101F200000F085BA0021042000F090FA224600213A
:101F30000248F3E710BD000050020020A00000207E
:101F40003EB5002411480094019402940E49846027
:101F5000016004730475012505614FF4602144603C
:101F6000C161FEF75FFA08B172B6FEE70820CDE95D
:101F70000005694602940548FEF7D6F9002801D00D
:101F800072B6FEE73EBD0000002801401C000020A4
:101F90002DE9F04385B00024254800940194029473
:101FA0000394816941F020018161816901F0200180
:101FB0000491816941F010018161816901F0100192
:101FC0000491816941F004018161816901F004019A
:101FD0000491816941F0080181618069DFF85480D2
:101FE00000F0080041F23F050490002229464046D7
:101FF000FEF78EFCDFF840904FF480570022394600
:102000004846FEF785FC0095022601250396CDE99A
:10201000015469464046FEF77FFB00970396CDE9E1
:10202000015469464846FEF777FB05B0BDE8F083EA
:1020300000100240001001400008014010B596B0A9
:1020400000240F9410941194129413941C21684648
:102050001494FEF7DBF8202107A8FEF7D7F82D48E7
:102060002B4901600221C0E9011442F20F71C0E95D
:1020700003148021C0E90541FFF75AF908B172B68F
:10208000FEE74FF480500F900FA92248FFF7B6F9F2
:1020900008B172B6FEE71F48FFF766FC08B172B6DA
:1020A000FEE7139413A91B481494FFF703F908B132
:1020B00072B6FEE76020CDE9000402940394049414
:1020C00005940022694613480694FFF7EAFB08B11D
:1020D00072B6FEE70C2269460E48FFF7E2FB08B134
:1020E00072B6FEE70794089409944FF400500A94DE
:1020F000CDE90B4007A907480E94FFF7B1F808B1E6
:1021000072B6FEE70348FFF78DFB16B010BD000066
:10211000002C0140A000002010B58CB0242168469E
:10212000FEF774F80024164809944FF080410A9491
:10213000C0E900144EF66021C0E90241802104612B
:1021400081610320CDE900040120CDE902040621CC
:102150000491CDE90540CDE9074169460848FFF7FC
:10216000B8F908B172B6FEE7099409A904480A94BF
:10217000FFF7A0F8002801D072B6FEE70CB010BD42
:10218000E800002010B58CB024216846FEF73EF828
:1021900000241648099414490A94C0E900144EF624
:1021A0006021C0E90241046184610320CDE900049B
:1021B0000120CDE9020406210491CDE90540CDE9D5
:1021C000074169460948FFF784F908B172B6FEE78E
:1021D000099409A905480A94FFF76CF8002801D072
:1021E00072B6FEE70CB010BD0004004030010020C4
:1021F00010B58CB024216846FEF708F80024164874
:10220000099414490A94C0E900144EF66021C0E90B
:102210000241046184610320CDE900040120CDE97D
:10222000020406210491CDE90540CDE90741694644
:102230000948FFF74EF908B172B6FEE7099409A9FB
:1022400005480A94FFF736F8002801D072B6FEE779
:102250000CB010BD000800407801002010B58CB013
:1022600024216846FDF7D2FF00241648099414493A
:102270000A94C0E900144EF66021C0E902410461ED
:1022800084610320CDE900040120CDE90204062188
:102290000491CDE90540CDE9074169460948FFF7BA
:1022A00018F908B172B6FEE7099409A905480A941D
:1022B000FFF700F8002801D072B6FEE70CB010BDA1
:1022C000000C0040C001002010B596B000240F940F
:1022D00010941194129413941C2168461494FDF7E1
:1022E00095FF202107A8FDF791FF3548334901608C
:1022F0000221C0E9011442F20F71C0E903148021E8
:10230000C0E90541FFF714F808B172B6FEE74FF4D3
:1023100080500F900FA92A48FFF770F808B172B6E5
:10232000FEE72748FFF720FB08B172B6FEE71394DB
:1023300013A923481494FEF7BDFF08B172B6FEE757
:102340006020CDE9000402940394049405940022D3
:1023500069461B480694FFF7A4FA08B172B6FEE777
:10236000042269461648FFF79CFA08B172B6FEE7E8
:10237000082269461248FFF794FA08B172B6FEE7E0
:102380000C2269460E48FFF78CFA08B172B6FEE7D8
:102390000794089409944FF400500A94CDE90B4037
:1023A00007A907480E94FEF75BFF08B172B6FEE777
:1023B0000348FFF737FA16B010BD000000340140A3
:1023C00050020020FEE7021E01DD002103E004DAD6
:1023D000404202B20121012001E001210020FFF76B
:1023E0002BBD000010B5052000F098F800210C4826
:1023F000FFF7EAFA04210A48FFF7E6FA082108483D
:10240000FFF7E2FA0C210648FFF7DEFA0021054843
:10241000FFF7DAFABDE810400C210248FFF7D4BA02
:1024200050020020A0000020FEE7704770470068BF
:1024300029B1042905D0082905D0026470474263F8
:10244000704782637047C2637047000070B5304CBC
:1024500041F28833012810D0022820D0032837D039
:10246000042854D199B3012951D11A460821294889
:10247000FFF7DDFF0022114634E049B1012946D1C2
:102480001A4600212348FFF7D2FF0022102112E054
:102490001A4600211F48FFF7CAFF0122F6E74FF452
:1024A000805569B1012932D11A4604211948FFF734
:1024B000BEFF002229462046BDE87040FEF728BA3C
:1024C0001A4604211348FFF7B2FF0122F2E712E097
:1024D00051B101291BD11A460C210E48FFF7A7FF65
:1024E00000220C210C480EE000220C210948FFF7C5
:1024F0009EFF1A46F5E71A4600210748FFF797FFA7
:10250000002204480821BDE87040FFF790BF70BD6D
:102510000010014050020020A000002000B5062855
:1025200034D2DFE800F03303060A121E00221146FF
:1025300001E00022042116480FE000220C2114487B
:10254000FFF775FF00220C2106E000220821104849
:10255000FFF76DFF002211460E485DF804EBFFF710
:1025600066BF002211460A48FFF761FF00220421DE
:102570000748FFF75CFF00220C210548FFF757FFD3
:1025800000220C210348FFF752FFDEE700BD0000E8
:1025900050020020A0000020FEF7C2BA30B595B06E
:1025A00028216846FDF732FE14210AA8FDF72EFE09
:1025B00018210FA8FDF72AFE01210804CDE900101B
:1025C0000025029502240491CDE907404FF4E01064
:1025D00009906846FEF79EFC08B172B6FEE70AA9AC
:1025E0000F2081E831004FF48060CDE90D05022114
:1025F0000AA8FEF7A3FB08B172B6FEE74FF400404D
:1026000011900F940FA8FEF723FB002801D072B69B
:10261000FEE715B030BD70470148FFF750B8000025
:1026200008020020F0B502681C4B1D4D1D4E1E4FC8
:102630001E4C4FF0804C984209D0A04207D0604514
:1026400005D0A84203D0B04201D0B84204D122F054
:10265000700E4A6842EA0E02984209D0A04207D0A2
:10266000604505D0A84203D0B04201D0B84203D1A2
:1026700022F44075CA682A434D6922F080022A4339
:1026800002608A68C2620A688262984201D0A042EF
:1026900001D10969016301214161F0BD002C0140B4
:1026A0000004004000080040000C004000340140DD
:1026B00010B501F01F030121046A99408C430462A4
:1026C000016A9A401143016210BD10B5846842EA64
:1026D000032224F47F440A432243826010BD8268AF
:1026E00022F070020A4342F0070181607047000047
:1026F000F0B5026A22F001020262036A426884694C
:10270000124E24F073050C682C4323F002058B68ED
:102710002B430D4DA84201D0B04205D123F008074C
:10272000CB683B4323F00403A84201D0B04205D15B
:102730004D6922F4407215438A692A4342608461DC
:10274000496841630362F0BD002C01400034014040
:10275000F0B5026A22F010020262026A43688469DC
:102760000D6824F4E64444EA05248D6822F0200232
:1027700042EA05120F4D104EA84201D0B04206D1D8
:10278000CF6822F0800242EA071222F04002A842FB
:1027900001D0B04207D14D6923F4406343EA850379
:1027A0008D6943EA850343608461496881630262FD
:1027B000F0BD0000002C014000340140F0B5026A79
:1027C00022F480720262026A4368C46922F40072D1
:1027D00024F073050C68124E2C438D6842EA0522E2
:1027E0000E4DA84201D0B04206D1CF6822F400625B
:1027F00042EA072222F48062A84201D0B04207D107
:102800004D6923F4405343EA05138D6943EA0513E8
:102810004360C4614968C1630262F0BD002C01409D
:102820000034014030B5026A22F480520262046A28
:102830004268C3690D6823F4E64343EA05238D68C3
:1028400024F4005444EA0534084DA84202D0084D4F
:10285000A84204D14D6922F4804242EA85124260C6
:10286000C36149680164046230BD0000002C01406E
:102870000034014010B5036A046A24F001040462C4
:10288000846924F0F00444EA021423F00A020A43A3
:102890008461026210BD10B5036A23F01003036265
:1028A0008369046A23F4704343EA023224F0A003EC
:1028B00043EA01118261016210BD10B5406A002136
:1028C000C185C184FFF7DDF810BD0168CA6822F434
:1028D0009072CA6001684A6922F001024A61016B84
:1028E000012904D10168CA6822F01002CA602021BF
:1028F00080F83E1000210163704708B590F83E1043
:10290000222901D0022008BD82684FF480539A42E8
:1029100001D1016921B1816A9A421BD04AB10AE012
:102920000268816A5268C2F308020A80816A891CBF
:1029300008E0026972B10268526802F07F020A7010
:10294000816A491C8162C18D491E0904090CC18537
:1029500003D019E002685268F1E70168CA6822F002
:102960002002CA600168CA6822F48072CA600168E5
:102970004A6922F001024A61202180F83E10016B71
:10298000012903D0FFF754FA002008BD002101639C
:102990000168CA6822F01002CA6001680A68D2069B
:1029A00002D50A6849680091818DFFF769F8EBE765
:1029B00070B5044600680169E26821F44051114392
:1029C00001612169A0680843616908432168CA68F8
:1029D00041F20C639A430243CA6020684169A269CC
:1029E00021F44071114341611E492068884202D19F
:1029F000FEF74AFA01E0FEF737FA00EBC00101EBFF
:102A00000012606864218000B2FBF0F3B3FBF1F3C5
:102A10006FF018067343B2FBF0F5B2FBF0F605EB6E
:102A20008305322303EB0515B5FBF1F5B6FBF1F693
:102A300005F0F00505EB0615B2FBF0F6B2FBF0F081
:102A4000B0FBF1F06FF01802504306EB800003EB8F
:102A50000010B0FBF1F0216800F00F0028448860FE
:102A600070BD0000003801400148FFF70BB80000BE
:102A7000980200200148FFF705B80000DC020020A2
:102A8000FEE70907090E002804DB00F1E02080F8CA
:102A90000014704700F00F0000F1E02080F8141DD2
:102AA000704700001CB5FEF743F8FFF777FDFFF70E
:102AB0006FFAFFF745FA454843490024016044494D
:102AC000C0E901144FF48041C0E9034144618461CD
:102AD000C4610462FDF728FF08B172B6FEE7FFF794
:102AE000ADFAFFF719FBFFF74DFBFFF781FBFFF78F
:102AF000B5FB394800943749019401604721C0E98A
:102B0000011442F210718461C160FEF711FC08B13A
:102B100072B6FEE7009469462F480194FEF7CAFB9F
:102B200008B172B6FEE7FFF7CFFB2B482B49D43034
:102B30004FF4E1350160C0E901540C26C460C0E9DE
:102B400004468461C461FFF7A3F808B172B6FEE7DA
:102B5000244823490160C0E90154C460C0E9044627
:102B60008461C461FFF794F808B172B6FEE71D48AE
:102B70001D4988380160C0E90154C460C0E90446B9
:102B80008461C461FFF784F808B172B6FEE7FFF70D
:102B900029FC41F28834012122460846FFF74CF90E
:102BA000012122460846FFF763F901212246084623
:102BB000FFF77AF9012122460846FFF79BF94FF407
:102BC000FA70FFF700FCFEE7005400404C000020C4
:102BD000801A060000100040080200200044004057
:102BE00000480040200300200038014000000000A1
:102BF00000000000010203040607080900000000AD
:102C000001020304242C0008000000201000000032
:102C10006C010008342C000810000020B8090000E6
:102C20008801000801000000100000000000000002
:042C30000024F40088
:0400000508000131BD
:00000001FF
