:020000040800F2
:100000009808002045010008A5340008F5290008DB
:10001000F93300088F0B000845400008000000007D
:10002000000000000000000000000000053800088B
:10003000910B00080000000039370008C13A0008A1
:100040005F0100085F0100085F0100085F01000810
:100050005F0100085F0100085F0100085F01000800
:100060005F0100085F0100085F0100085F010008F0
:100070005F0100085F0100085F0100085F010008E0
:100080005F0100085F0100085F0100085F010008D0
:100090005F0100085F0100085F0100085F010008C0
:1000A0005F0100085F0100085F0100085F010008B0
:1000B0005F0100085F0100085F0100085F010008A0
:1000C0005F0100085F0100085F0100085F01000890
:1000D0005F0100082D400008394000085F0100085A
:1000E0005F0100085F0100085F0100085F01000870
:1000F0005F0100085F0100085F0100085F01000860
:100100005F0100085F0100085F0100085F0100084F
:100110005F0100085F010008413B00085F01000823
:100120005F0100085F0100085F0100085F0100082F
:10013000DFF80CD000F080FC004800479D4A000822
:10014000980800200648804706480047FEE7FEE77B
:10015000FEE7FEE7FEE7FEE7FEE7FEE7FEE7FEE777
:100160003F3B000831010008202A04DB203A21FA35
:1001700002F00021704721FA02F3D040C2F12002C0
:100180009140084319467047D2B201E000F8012BB4
:10019000491EFBD270470022F6E710B513460A4607
:1001A00004461946FFF7F0FF204610BD30B505465E
:1001B0002A460B4612F8010B13F8014B08B1A04276
:1001C000F8D01CB1002802D06D1CF1E7284630BDE4
:1001D00070B5064603F06CFF046805460A2200214C
:1001E000304600F05DFB2C6070BDF0B480EA010287
:1001F000D40F4200B2EB410F02D20246084611462C
:100200004A0042D0C30DDDB2C1F3C752AD1A202D52
:1002100035DAC1F3160141F4000204B15242C5F1CE
:10022000200602FA06F12A411044B3EBD05F23D036
:10023000C4B1012DA0EBC35009DCF0BC4FF000426B
:1002400002EAC352DBB200F5000000F06ABB4000D6
:1002500000F1807000EBC350A0F1807040EAD170D3
:10026000490009E0490841EAC071A0EBC35000F51C
:100270000000400800EBC350F0BC00F049BB6142F5
:10028000012202EB4101001BF6E7F0BC704781F050
:100290000041AAE780F00040A7E780EA010210B51C
:1002A00002F00043400022D04A001FD0010E01EBB3
:1002B0001261C0F35600C2F3560240F4000042F44B
:1002C0000002A0FB022000047F39140400D0401C6F
:1002D00050EA124001D44000491EC2B20C0604EBA1
:1002E000D010401C4008802A02D003E0002010BD3E
:1002F00020F00100002900DA0020184310BD30B4BE
:1003000080EA010202F0004530F0004221F0004096
:1003100013D090B1C30DD40DC2F31601C0F3160073
:10032000E41A41F4000140F400027D34914201D30B
:10033000641C00E04900002C02DA30BC0020704749
:100340004FF400000023914201D3891A034340086F
:100350004FEA4101F7D151B1914202D14FF0004132
:1003600005E002D24FF0010101E06FF0010103EB63
:10037000C450284430BC00F0CBBA420005D0C0F3D2
:10038000C7525242914201DC0020704700EBC1503D
:1003900070472DE9FE4F804681EA0300C00F0C46EE
:1003A000009021F0004123F00045B8EB0200A94184
:1003B00005D24046214690461C460B46024623F095
:1003C0000040104347D0270DC7F30A00C3F30A517A
:1003D0000290401A019040286BDAC3F3130040F4F6
:1003E000801B0098924620B10023D2EB030A63EBF6
:1003F0000B0B01985946C0F14002504600F02FFA0D
:1004000006460D4650465946019A00F037FA10EB61
:1004100008006141002487EA115284EAE7731A4315
:1004200040D0009A62B3019A012A4FEA075215DCC4
:10043000001B61EB02014FF0004202EA0752CDE9D6
:100440000042001C41F5801132462B4600F0A6FA0E
:1004500003B0BDE8F08F40462146F9E7001B61EB91
:100460000201001C41F5801300185B412018A2F521
:10047000001747EB030140EAD570B6196D4111E052
:100480006D084FEA360645EAC0754FEA0752001B71
:1004900061EB0201001C41F5801149084FEA300070
:1004A0000019514132462B4603B0BDE8F04F00F031
:1004B00066BA0098012240000023D0EB020263EBF1
:1004C000E073009821464FEAE074B8EB000061EB5E
:1004D0000401E9E783F000435BE781F0004158E75E
:1004E0002DE9FE4F81EA030404F0004421F00041AD
:1004F00000944FF0000B23F0004350EA01045ED05B
:1005000052EA03045BD0C3F30A54C1F30A552C44E6
:10051000A4F2F3340194A0FB0254C1F3130141F49B
:100520008011C3F3130343F4801301FB024400FB67
:10053000034E840A970A44EA815447EA8357A4FB8E
:10054000076802958D0A05FB07854FEA932C04FB8B
:100550000C542705029D4FEA065847EA1637B5EBBB
:1005600008056EEB070C870E920E47EA811742EAE8
:100570008312A7FB0201B6EB0B0164EB00042B0D09
:1005800043EA0C335E1844EB1C50DA465146E7FB55
:100590000201C5F313044FEA0B3343EA14534FEA45
:1005A0000432019C43EA0603A4F10C040294009C6B
:1005B000CDE900B400F0F2F903B0BDE8F08F0020FF
:1005C0000146F9E72DE9F04D81EA030404F0004B00
:1005D00021F0004514464FF0000A23F0004150EA94
:1005E000050220D054EA01021DD0C5F30A57024685
:1005F000C5F31303C1F31300C1F30A5640F4801589
:1006000043F48013A7EB0608101BD64608F2FD380A
:1006100073EB050002D308F1010801E092185B4179
:10062000B8F1000F03DA00200146BDE8F08D00208C
:100630004FF48011064684460EE0171B73EB050746
:1006400005D3121B63EB050306434CEA010C490872
:100650004FEA300092185B4150EA0107EDD152EAAF
:10066000030012D082EA040083EA0501084305D0A2
:10067000101BAB4106D20122002306E000224FF0FE
:10068000004302E06FF0010253101AEB06004CEB3E
:10069000085110EB0A0041EB0B01BDE8F04D00F0F2
:1006A0006EB970B521F0004303430CD0C1F30A5575
:1006B0000024D5EB040564EB0403D617AD1AB3414F
:1006C00002DB0020014670BD201841EB025170BDD5
:1006D000C10F80EAE0700844CA079623002100F0A9
:1006E00020B90EB5C10F80EAE0700844CA070021A6
:1006F00040F233438DE80E000A460B4600F04EF9F7
:1007000003B000BD00F0004220F00040C10DC0F376
:10071000160040F400007F2901DA00207047962976
:1007200003DCC1F19601C84001E096398840002AF7
:10073000F4D04042704770B5C1F30A5201F0004551
:100740000024C1F3130140F2FF3341F480119A42B7
:1007500001DA002070BD40F233439A42A2F23342E4
:1007600003DC5242FFF700FD00E090402C43F1D043
:10077000404270BD00F0004230F000400AD0C10D90
:1007800001F56071C0F3160042EA0151C20840074A
:1007900011437047002001467047000030B5041E29
:1007A00071F1000404DB4FF00044404264EB0101AE
:1007B000141E73F1000405DB1C464FF00043524247
:1007C00063EB04038B4208BF824230BD30B5041E88
:1007D00071F1000404DB4FF00044404264EB01017E
:1007E000141E73F1000405DB1C464FF00043524217
:1007F00063EB0403994208BF904230BD2DE9F05FDE
:100800000546002092469B4688460646814640247F
:100810001BE02846414647462246FFF7A5FC5346C3
:100820005A46C01A914110D311461846224600F08C
:1008300016F82D1A67EB01084F46224601200021C9
:1008400000F00DF817EB00094E41201EA4F1010441
:10085000DFDC484631462A464346BDE8F09F202A61
:1008600004DB203A00FA02F1002070479140C2F107
:10087000200320FA03F3194390407047202A06DB37
:10088000CB17203A41FA02F043EAE07306E041FA5E
:1008900002F3D040C2F1200291400843194670474C
:1008A0002DE9F04791460F4680460446002614F88D
:1008B000015B2DB100F0D2F80068405DC007F6D1B1
:1008C0002B2D02D02D2D18D0641E4A4639462046C5
:1008D00000F0C8F827B13968A14201D1C7F80080FB
:1008E00071054FF002040BD54042002803DD03F0F0
:1008F000DFFB0460A007BDE8F08746F48066E4E70C
:100900000028F8DA03F0D4FB04606FF00040F2E74F
:100910000029A8BF7047401C490008BF20F0010013
:10092000704710B4B0FA80FC00FA0CF050EA0104F1
:1009300004BF10BC704749B1CCF1200421FA04F483
:1009400011FA0CF118BF012121430843A3EB0C015C
:10095000CB1D4FEA00614FEA102042BF002010BCBF
:10096000704700EBC35010440029A4BF10BC70476F
:10097000401C490008BF20F0010010BC704710B5B2
:10098000141E73F1000408DA401C41F100019218B2
:100990005B411A4301D120F0010010BD2DE9F04D5B
:1009A00092469B4611B1B1FA81F202E0B0FA80F2B0
:1009B00020329046FFF753FF04460F4640EA0A00F4
:1009C00041EA0B0153465A46084313D0114653EAF5
:1009D000010019D0C8F140025046FFF7C5FB05469B
:1009E0000E46504659464246FFF739FF084305D0A8
:1009F000012004E020463946BDE8F08D0020054383
:100A000046EAE0762C4337430A986305E40AA0EBF4
:100A100008000022FD0A44EA47540A3002D50020AB
:100A20000146E9E7010510196941DDE908450019AA
:100A30006941BDE8F04DA2E7064C074D06E0E068CD
:100A400040F0010394E8070098471034AC42F6D315
:100A5000FFF772FBC8500008E850000800487047D4
:100A6000C45000082DE9F05F824600780027154643
:100A70008B460AF10104B946302801D09DB113E03C
:100A800014F8010B0127782803D0582801D045B16C
:100A90000AE00DB1102D07D10027102514F8010B25
:100AA00002E0082500E00A250026B0460EE005FB1E
:100AB000080005FB06F1012701EB10461FFA80F83C
:100AC000B6F5803F00D3B94614F8010B294600F073
:100AD00025F80028EBDABBF1000F05D00FB1641E3A
:100AE00000E05446CBF80040B9F1000F06D003F007
:100AF000DFFA02210160C81EBDE8F09F48EA064007
:100B0000FAE70EB540F2334102910021CDE9001120
:100B10000A460B46FFF742FF03B000BD3A2800D259
:100B2000303820F02002412A01D3A2F13700884258
:100B300001D34FF0FF30704770B5044600688168FC
:100B4000C943C90717D1816821F00101816000F014
:100B500047FB05460AE000BF00F042FB401B0228AD
:100B600004D920688068C043C00706D02068806828
:100B7000C043C007F0D0002070BDA06A40F0100054
:100B8000A062E06A40F00100E062012070BDFEE773
:100B90007047000010B510220549064801F004FE18
:100BA00005480068C16841F02001C16010BD000027
:100BB000080400203C030020800300200148006856
:100BC000406A70478C01002001480068406A704705
:100BD0001C02002001480068406A7047640200203F
:100BE00001480068406A7047D4010020F8B500242D
:100BF000009490F824202546012A12D0012280F882
:100C000024204A681F23072A0DD20668776B521EDC
:100C100002EB820293409F430B6893401F4377632C
:100C200019E00220F8BD06680D2A0AD2376BD21FE0
:100C300002EB820293409F430B6893401F4337634C
:100C400009E0F76A0D3A02EB820293409F430B687A
:100C500093401F43F7620A68072306680A2A0AD3EB
:100C6000F7680A3A02EB420293409F438B68934035
:100C70001F43F76008E0376902EB420293409F434D
:100C80008B6893401F4337610A68102A01D0112AEC
:100C900020D1124B02689A4217D193681B0219D4D3
:100CA000936843F4000393600968102912D10C493A
:100CB0000C4A0968B1FBF2F101EB8101490000E047
:100CC000491E00910029FBD104E0816A41F0200116
:100CD0008162012480F824502046F8BD00240140A0
:100CE0003800002040420F002DE9F04104004FF091
:100CF000000514D0A06A002628B9E66284F82460B2
:100D0000204600F083F82046FFF716FFA16A01F0A5
:100D10001001014304D0A06A40F01000A0626BE013
:100D2000A16A21F4885141F00201A162334923688C
:100D30008B42E16904D1B1F5402F01D14FF400217C
:100D4000277B4FF4807C41EA470261680A43A1682F
:100D5000614509D0012907D05FF0000194F814E043
:100D6000BEF1010F02D00AE06146F7E7C7B1A76AFA
:100D700047F02007A762E76A47F00107E7625F686C
:100D800027F469470F435F60236899681C4F394017
:100D900011439960A16861450BD0012909D00CE08D
:100DA000DFF860E0A7690EEB47370F4347F40061B7
:100DB000E5E7218A0D05A5F580152168CB6A23F4A6
:100DC00070032B43CB62216889680F4B1940914215
:100DD00008D1E662A16A21F0020141F00101A1629D
:100DE000BDE8F081A06A20F0020040F01000A0628F
:100DF000E06A40F00100E0620120F1E7003C0140C0
:100E0000FDF7E1FF00E0FFFFFE0E1FFF00B585B01C
:100E10000021009101910291039100680E498842DE
:100E200018D10E48816941F480618161816901F4C2
:100E300080610491816941F008018161806969469E
:100E400000F0080004900120009003200190044865
:100E500000F0C4F805B000BD0028014000100240B9
:100E6000000C014010B590F821100022022905D095
:100E70000421816380F82020012010BD01680B68E7
:100E800023F00E030B6001680B6823F001030B6075
:100E900090F84030C46B012101FA03F3636080F8DD
:100EA000211080F82020104610BD00002DE9F05FD1
:100EB00090F821100024022903D004218163012429
:100EC00085E001680A6822F00E020A6001680A687B
:100ED00022F001020A603F4E3E4FB215DFF8F4C027
:100EE000DFF8F090DFF8ECA0DFF8E8B0DFF8E4E03E
:100EF0000168783F13011502ACF1640CA9F15009A7
:100F0000AAF13C0AABF1280BAEF1140E4FF4801895
:100F1000B14227D9B9420ED0614512D049451DD002
:100F2000514518D0594518D0714501D1424615E0B8
:100F3000294EB14201D1012210E0274E1436B142B0
:100F400001D110220AE0244E2836B14206D0224AAE
:100F50003C32914201D11A4600E02A461E49091F3F
:100F60000A602BE0B94213D0614517D0494522D021
:100F700051451DD059451DD0714501D142461AE059
:100F8000B14202D14FF0807215E0134EB14201D14F
:100F9000012210E0104E1436B14201D110220AE0B5
:100FA0000D4E2836B14206D00B4A3C32914201D157
:100FB0001A4600E02A46074980394A60012180F834
:100FC0002110002180F82010416B01B18847204694
:100FD000BDE8F09F80000240080402402DE9F84F70
:100FE000DFF8C891002409F1040A0AF1040B234632
:100FF0000F270BF1040ED1E00125A54006EA0502FA
:10100000AA4276D1DFF8A8C14E68A6EB0C08664567
:101010002BD00DDC032E34D005DC36B3012E19D0D5
:10102000022E2FD11BE0112E16D0122E2AD119E03C
:10103000B8F5881F19D006DCB8F5803F15D0B8F593
:10104000801F1FD111E0B8F5001F0ED0B8F5041FA6
:1010500018D10AE0CB6815E0CB681B1D12E0CB6805
:1010600008330FE0CB680C330CE08B682BB1012BFD
:101070004FF0080303D0456104E0042302E005615A
:1010800000E00023FF2A01D8064601E000F1040633
:101090004FEA840501D9A5F12005D6F8008007FAAA
:1010A00005FC28EA0C0803FA05F548EA0508C6F825
:1010B00000804D68ED0070D53E4DAE6946F00106EA
:1010C000AE61AD6924F0030605F0010500953A4DC7
:1010D00006EB050CDCF80850A607360F07FA06F8F1
:1010E00025EA0805DFF8D480404503D14FF0000819
:1010F00025E052E0DFF8C880404502D14FF00108FA
:101100001DE0DFF8C080404502D14FF0020816E034
:10111000DFF8B480404502D14FF003080FE0DFF85C
:10112000AC80404502D14FF0040808E0DFF8A08011
:10113000404502D14FF0050801E04FF0060808FADB
:1011400006F848EA0508CCF808804D68D9F8006030
:10115000ED034D4601D5164300E096432E604D68E1
:10116000DAF80060AD03554601D5164300E096431A
:101170002E604D68DBF80060ED025D4601D5164338
:1011800000E096432E604D68DEF80060AD027546C3
:1011900001D5164300E096432E60641C0A6816468B
:1011A000E2407FF429AFBDE8F88F00000004014061
:1011B0000000111000100240000001400008014032
:1011C000000C0140001001400014014000180140D3
:1011D000001C01400AB1016170470904FBE70000EF
:1011E00001488068704700002C00002070B50400A2
:1011F00025D094F83D00002520B984F83C502046C5
:1012000000F0B8F8242084F83D002068016821F03F
:10121000010101602068016841F40041016020681B
:10122000016821F40041016000F092FA4D4A6168C2
:10123000914201D84C4900E04C49884201D201203A
:1012400070BD4B492368B0FBF1F15E6826F03F06A4
:101250000E435E606368934206D94FF49673594318
:101260004FF47A73B1FBF3F12368491C1E6A26F030
:101270003F06314319626168914210D84900401E0F
:10128000B0FBF1F2521CC2F30B02042A01D204207B
:1012900022E0B0FBF1F0401CC0F30B001CE0A268A0
:1012A000F2B301EBC10303EB0116431EB3FBF6F3EC
:1012B0005B1C43F480431B0549D092B301EBC10290
:1012C00002EB0111401EB0FBF1F0401CC0F30B001B
:1012D00040F4804040F400402168CA694CF6FF7336
:1012E0009A431043C861D4E907100143206802689B
:1012F00022F0C00211430160D4E9030101432068D8
:10130000826848F2FF339A4311438160D4E90501B2
:1013100008432168CA6822F0FF021043C86001E058
:101320000EE016E02068016841F0010101602564CB
:10133000202084F83D00256384F83E50002070BDD5
:1013400001EB4106431EB3FBF6F35B1CB3E7012040
:10135000C2E701EB4101401EB0FBF1F0401CC0F3BD
:101360000B00B7E7A086010080841E0000093D0045
:1013700040420F0010B586B000210091019102910A
:10138000039100681349884222D1134CA06940F0B0
:101390000800A061A069694600F0080004904FF4BD
:1013A0004070009012200190032003900B48FFF73B
:1013B00015FE0B48416841F0E06141F002014160D7
:1013C000E06940F40010E061E06900F4001004906E
:1013D00006B010BD0054004000100240000C014057
:1013E0000000014002488168027811448160704722
:1013F0002C000020074810B5016841F01001016081
:10140000032000F075F80F2000F006F800F024F833
:10141000002010BD0020024070B50D4D04464FF471
:101420007A712878B1FBF0F00A490968B1FBF0F055
:1014300000F074FB48B9102C07D200222146501E40
:1014400000F036F800206C6070BD012070BD000017
:101450002C000020380000200C4808B5816941F0BC
:1014600001018161816901F001010091C16941F0CF
:101470008051C161C06900F080500090044841680B
:1014800021F0E06141F00071416008BD00100240B0
:1014900000000140002809DB00F01F0201219140FB
:1014A0004009800000F1E020C0F800117047000002
:1014B000F0B40E4B1B680C46C3F30223C3F10705BF
:1014C000042D00D90425191D072901D2002300E0AD
:1014D000DB1E012606FA05F1491E214099409E4077
:1014E000761E16403143F0BC02F0D2BD0CED00E098
:1014F000064900F0070208684FF6FF03184040EA6B
:101500000220034A10430860704700000CED00E021
:101510000000FA05BFF34F8F05480168054A01F442
:10152000E06111430160BFF34F8F00BFFDE7000092
:101530000CED00E00400FA052DE9F84305460078BB
:10154000354CC00754D0E0690026C00008D4E069DB
:1015500040F08050E061E069012600F0805000908A
:101560002E480168C90512D40168804641F4807193
:101570000160FFF735FE074605E000BFFFF730FECC
:10158000C01B642823D8D8F80000C005F6D5206A0F
:1015900010F4407021D0A98801F4407181421CD020
:1015A000206A1F49012220F440700A6000220A606C
:1015B0002062C00711D0FFF713FE074641F28838BA
:1015C00008E000BFFFF70CFEC11B414502D9032014
:1015D000BDE8F883206A8007F4D5206A696820F4A2
:1015E0004070084320621EB1E06920F08050E06145
:1015F0002878800705D56068A96820F44040084332
:1016000060602878C00605D56068696920F48000AC
:10161000084360600020DBE70010024000700040DB
:10162000400442422DE9F0470F46050061D0434E89
:10163000306800F00700B84209D2306820F0070097
:1016400038433060306800F00700B84251D1286854
:101650003B4C810712D5400703D5606840F4E06039
:1016600060602878000703D5606840F460506060CF
:101670006068A96820F0F000084360602878C0071F
:1016800028D06868012810D02168022810D0890766
:1016900000292EDA616821F0030101436160FFF740
:1016A0009FFD804641F288390DE021688903EFE70C
:1016B0008901EDE7FFF794FDA0EB0801494502D948
:1016C0000320BDE8F0876068696800F00C00B0EBAB
:1016D000810FEFD1306800F00700B8420BD93068B5
:1016E00020F0070038433060306800F00700B8424F
:1016F00001D00120E5E72878400705D56068E96852
:1017000020F4E060084360602878000706D5606830
:10171000296920F4605040EAC100606000F038F8A8
:101720006168084AC1F30311515CC840064908606A
:1017300006480068FFF770FE0020C2E70020024064
:1017400000100240044F0008380000203000002044
:101750000448054900684968044AC1F30221515C04
:10176000C84070473800002000100240144F0008A5
:101770000448054900684968044AC1F3C221515C24
:10178000C84070473800002000100240144F000885
:1017900012A185B00FC98DE80F0014A0144A00688B
:1017A00004905168134801F00C03042B10D0082B4F
:1017B0000ED1C1F38343C9031DF803000AD5516854
:1017C00004AAC1F34041515C0A4A5043B0FBF1F016
:1017D00005B0704708494843FAE7000002030405D2
:1017E000060708090A0B0C0D0E0F1010010200006D
:1017F0000010024000127A0000093D002DE9F84F68
:10180000040070D02078C04DC00749D06868C0F38C
:101810008100012807D06868C0F38100022809D13F
:101820006868C00306D52868800339D56068002839
:10183000E7D035E06068B0F5803F0BD010B1B0F56F
:10184000A02F11D0286820F480302860286820F468
:10185000802002E0286840F480302860606890B101
:10186000FFF7BEFC06460AE0286840F480202860A6
:10187000F0E700BFFFF7B4FC801B642873D828682A
:101880008003F7D50CE0FFF7ABFC064605E000BF90
:10189000FFF7A6FC801B6428F0D828688003F7D4E3
:1018A00020789A4E80074FF001094FF0000839D593
:1018B000686810F00C0F07D06868C0F38100022838
:1018C00009D16868C00306D42868800714D5206948
:1018D000012808D110E02069B0B1C6F80090FFF7E8
:1018E0007FFC074605E00AE1FFF77AFCC01B0228EF
:1018F000C4D828688007F7D52868616920F0F80007
:1019000040EAC10028600DE0C6F80080FFF768FCDF
:10191000074604E0FFF764FCC01B022823D82868B0
:101920008007F7D4207800072CD57948A169D9B170
:10193000C0F80090FFF754FC074604E0FFF750FCA6
:10194000C01B02280FD8686A8007F7D571484FF48A
:10195000FA510068B0FBF1F0009000BF0098411E02
:101960000091FAD20EE080E0C0F80080FFF738FC6A
:10197000074604E0FFF734FCC01B022875D8686AEC
:101980008007F7D42078400760D5E8690027C000B9
:1019900008D4E86940F08050E861E869012700F068
:1019A000805000905C480168C90513D401688346E3
:1019B00041F480710160FFF713FC824606E000BF2E
:1019C000FFF70EFCA0EB0A0064284ED8DBF80000FD
:1019D000C005F5D5E06801280AD008B1052813D064
:1019E000286A20F001002862286A20F0040002E042
:1019F000286A40F001002862E06841F2883B98B113
:101A0000FFF7EEFB82460BE0286A40F004002862F4
:101A1000EEE700BFFFF7E4FBA0EB0A0159455AD8F7
:101A2000286A8007F6D50CE0FFF7DAFB824605E06E
:101A3000FFF7D6FBA0EB0A0159454CD8286A80076E
:101A4000F6D41FB1E86920F08050E861E06988B3FE
:101A50006968C1F38101022944D00228C6F8608078
:101A600004D0FFF7BDFB044638E034E0FFF7B8FBD5
:101A7000074604E0FFF7B4FBC01B02282BD82868F8
:101A80008001F7D4206AB0F5803F05D16868A1686D
:101A900020F4003008436860D4E90801084369680D
:101AA00021F4741108436860C6F86090FFF798FB52
:101AB000044606E025E000BFFFF792FB001B02286A
:101AC00009D828688001F7D51BE000BFFFF788FB25
:101AD000001B022802D90320BDE8F88F2868800186
:101AE000F4D40EE00128F7D06868226A00F480314F
:101AF000914204D1616A00F47010884201D0012043
:101B0000EAE70020E8E7000000100240000042423F
:101B100080044242380000200070004010B5401E92
:101B2000B0F1807F01D3012010BD4FF0E02460614F
:101B30000F21601702F0ACFA0020A061072020619D
:101B4000002010BD7047704710B590F83C20012A66
:101B500022D0012280F83C20CA688C6822F44072AE
:101B600022434C6822F4806222430C6822F4006213
:101B700022430C6922F4805222434C6922F4005221
:101B80002243C969002322F480420A4301684A645F
:101B900080F83C30002010BD022010BD70B590F8D8
:101BA0003C20012A2CD0012480F83C40022280F8FD
:101BB0003D2003685A689D6822F070060A68324327
:101BC0005A60104B02689A420ED00F4B9A420BD0CB
:101BD000B2F1804F08D00D4B9A4205D00C4B9A427F
:101BE00002D00C4B9A4204D1496825F08003194376
:101BF000916080F83D40002180F83C10084670BD9F
:101C0000022070BD002C014000340140000400405F
:101C100000080040000C004010B5040003D094F808
:101C20003D0010B107E0012010BD002084F83C0009
:101C3000204600F01FF8022084F83D00211D206896
:101C400001F084FF012084F8460084F83E0084F807
:101C50003F0084F8400084F8410084F8420084F892
:101C6000430084F8440084F8450084F83D000020D7
:101C700010BD000008B5174A01681748914207D106
:101C8000816941F400618161806900F400601EE0B7
:101C9000124A914211D1C16941F01001C161C0697C
:101CA000002200F01000009011463620FFF700FCE3
:101CB000BDE808403620FFF7EDBB094A914207D145
:101CC000816941F400518161806900F40050009005
:101CD00008BD0000002C0140001002400010004030
:101CE0000034014070B5044690F83C00012817D03C
:101CF000012584F83C50022084F83D002068826869
:101D000022F0770222F47F4282600868502830D0A7
:101D10000DDC20284DD005DC98B310283BD148E0DD
:101D2000022070BD302844D0402834D139E06028EA
:101D300028D0702806D0B0F5805F2CD0B0F5005FB9
:101D400029D10AE0CB68D1E90121206801F051FFD7
:101D50002068816841F0770109E0CB68D1E9012171
:101D6000206801F046FF2068816841F4804181606D
:101D700011E0CA684968206802F010F85021206814
:101D800007E016E0CA684968206802F018F8602188
:101D9000206801F038FF84F83D50002084F83C00B2
:101DA00070BDCA684968206801F0F8FF40212068CA
:101DB000EFE7226801461046EBE72DE9F0410D46BA
:101DC000040003D094F83D0018B108E00120BDE8FC
:101DD000F081002084F83C00204600F041F8022009
:101DE00084F83D002068816844F2070291438160D5
:101DF000211D206801F0AAFE226890689169166A88
:101E00002B68AF69034340F20330814341EA072165
:101E1000A868EF6908434FF6FC418843E96840EA47
:101E20000720014328692F6A000140EA0730084370
:101E300069686D6926F0220646EA05152943936014
:101E40002268906154F8460B0162012004F81F09D2
:101E5000E0752076E0762077A0750020B7E70000D7
:101E600070B586B000250095019502950395006830
:101E70004549464A464E474CB0F1804F22D0464B2A
:101E800098424ED1C86940F00200C861C86900F0AC
:101E900002000490886940F00800886188696946FA
:101EA00000F008000490302000903046FFF796F8CC
:101EB000606820F4406040F0E06040F400606060E2
:101EC00006B070BDC86940F00100C861C86900F083
:101ED00001000490886940F004008861886900F07E
:101EE00004000490886940F00800886188696946A8
:101EF00000F0080004904FF4004000901046FFF7F7
:101F00006DF80820CDE90005694630460295FFF7D7
:101F100065F8606820F4407040F0E06040F4807044
:101F2000CDE71E4B984214D1C86940F00400C86147
:101F3000C86900F004000490886940F008008861D6
:101F40008869694600F008000490C020009030467F
:101F500016E0134B9842B3D1C86940F00800C8613D
:101F6000C86900F008000490886940F004008861A6
:101F70008869694600F00400049003200090104630
:101F8000FFF72CF89CE70000001002400008014019
:101F9000000C014000000140000400400008004027
:101FA000000C004070B590F83E60044690F83F5039
:101FB00090F8423090F84320022021B104290ED03D
:101FC000012E1BD114E0012E18D1012B16D184F85B
:101FD0003E0084F8420001220021206820E0012D0B
:101FE0000CD1012A0AD184F83F0084F8430014E0A0
:101FF000012D03D1012B01D1012A01D0012070BD97
:1020000084F83E0084F83F0084F8420084F84300DE
:1020100001220021206801F0DFFD01220421206857
:1020200001F0DAFD2068016841F001010160002043
:1020300070BD704770B50446006801694FF0000537
:10204000C943890715D4C168C943890711D4E91E5A
:10205000016101202077206880698007204602D036
:10206000FFF7E7FF04E000F0D7F8204600F066F93C
:10207000257720680169C943490717D4C168C94356
:10208000490713D46FF00401016102202077206812
:10209000806910F4407F204602D0FFF7CAFF04E0B9
:1020A00000F0BAF8204600F049F925772068016968
:1020B000C943090716D4C168C943090712D46FF090
:1020C00008010161042020772068C069800720464C
:1020D00002D0FFF7AEFF04E000F09EF8204600F0CB
:1020E0002DF9257720680169C943C90617D4C1684D
:1020F000C943C90613D46FF010010161082020778D
:102100002068C06910F4407F204602D0FFF791FF9D
:1021100004E000F081F8204600F010F925772068EF
:102120000169C943C90708D1C168C943C90704D1B6
:10213000891E0161204600F05DF920680169C943EC
:10214000090609D4C168C943090605D46FF08001A6
:1021500001612046FFF7F6FC20680169C943490682
:1021600009D4C168C943490605D46FF04001016133
:10217000204600F040F920680169C94389060BD464
:10218000C168C943890607D46FF020010161204668
:10219000BDE87040FFF7D7BC70BD000000B585B04A
:1021A00000210091019102910391164B026816489B
:1021B00002219A420FD1826942F004028261806951
:1021C000039100F0040004904FF41060CDE9000189
:1021D00069460E4811E00E4B9A4210D1826942F0D6
:1021E000100282618069039100F0100004904FF4A6
:1021F0007070CDE9000169460648FEF7EFFE05B0B4
:1022000000BD0000002C0140001002400008014009
:102210000034014000100140704770B5044690F84A
:102220003C000D4601280AD0012084F83C0042B150
:10223000042A18D0082A2AD00C2A4DD139E00220CD
:1022400070BD206801F0E8FC2068816941F0080158
:1022500081612068816921F00401816120688169C0
:102260002A69114311E0206801F006FD20688169A8
:1022700041F4006181612068816921F4806181619C
:10228000206881692A6941EA0221816124E020688D
:1022900001F028FD2068C16941F00801C161206892
:1022A000C16921F00401C1612068C1692A69114333
:1022B00011E0206801F04AFD2068C16941F4006125
:1022C000C1612068C16921F48061C1612068C16970
:1022D0002A6941EA0221C161002084F83C0070BDF6
:1022E00010B5040003D094F83D0010B107E00120C0
:1022F00010BD002084F83C00204600F01EF80220AB
:1023000084F83D00211D206801F020FC012084F8A4
:10231000460084F83E0084F83F0084F8400084F8CA
:10232000410084F8420084F8430084F8440084F8B3
:10233000450084F83D00002010BD70477047000044
:1023400010B50446022249B104290ED0082913D041
:1023500094F84100012816D0012010BD94F83E00E9
:102360000128F9D184F83E200FE094F83F000128BD
:10237000F2D184F83F2008E094F840000128EBD126
:1023800084F8402001E084F841200122206801F017
:1023900023FC13492068134A884201D0904203D19C
:1023A000436C43F400434364206888420DD090425C
:1023B0000BD0B0F1804F08D00B49884205D00B49B3
:1023C000884202D00A49884204D1816801F007019D
:1023D000062903D0016841F001010160002010BD11
:1023E000002C01400034014000040040000800407F
:1023F000000C00407047704770477047F8B502689E
:1024000004461068D168536910F00F0F4FF00005B3
:1024100054D003F0010601F4907737435FD0C20730
:1024200005D0CA0503D5226C42F00102226442079E
:1024300005D5DA0703D0226C42F00202226482073B
:1024400005D5DA0703D0226C42F0040222640207A9
:1024500007D501F02002324303D0226C42F008027B
:102460002264226C002A35D0800604D5880602D565
:10247000204601F0D6FC20684069216CC0F3801032
:1024800001F008010143204625D001F0B2FC20688C
:10249000416949061BD5416921F040014161A06BAA
:1024A000A8B158494163A06BFEF700FD002811D088
:1024B000A06B416B01B0BDE8F040084783060ED524
:1024C0008B060CD52046BDE8F84001F0AABC20469A
:1024D000FFF793FFF8BDFFF790FF2564F8BD266B6B
:1024E0002023012E52D1C60650D5CE064ED51068F7
:1024F00050680090506940062AD5A16B0868406872
:102500000004000CEAD0A68D8642E7D9E0858869F0
:10251000202818D0D06820F48070D06020684169ED
:1025200021F0010141612068416921F040014161D0
:1025300084F83E3025632068C16821F01001C16035
:10254000A06BFEF78FFCA08DE18D401A81B219E0DF
:10255000A08DE18D401A81B2E08D0028BED0002907
:10256000BCD0D06820F49070D0602068426922F01E
:102570000102426184F83E3025632068C26822F07F
:102580001002C2602046FFF737FFF8BD05062BD5C5
:102590000D0629D594F83D002128F6D1A068B0F5A4
:1025A000805F01D12069B0B1206A411C216221689D
:1025B00000784860E08C401E0004000CE084E4D108
:1025C0002068C16821F08001C1602068C16841F0C5
:1025D0004001C160F8BD206A0088C0F30800506067
:1025E000206A801C2062E5E74006F3D54806F1D555
:1025F000D168204621F04001D16084F83D3000F0E0
:10260000F8F9F8BDE33D000870B5040004D094F873
:102610003D00002510B106E0012070BD84F83C505B
:10262000204600F023F8242084F83D002068C1688B
:1026300021F40051C160204601F04EFC2068016980
:1026400021F4904101612068416921F02A01416132
:102650002068C16841F40051C1602564202084F8DD
:102660003D0084F83E00002070BD0000F0B585B04C
:10267000002400940194029403940368434F0220C1
:1026800043490322434D4602BB4225D18B6943F4A3
:1026900080438B618B6903F4804304938B6943F01F
:1026A00004038B618969039201F004010491010222
:1026B000CDE9001069462846FEF790FCCDE900649C
:1026C000694628460294FEF789FC0022114625201F
:1026D000FEF7EEFE252028E02F4FBB4229D1CB6923
:1026E00043F40033CB61CB6903F4003304938B696B
:1026F00043F004038B618969039201F004010491A2
:102700000421CDE9001069462846FEF767FC082041
:10271000CDE90004694628460294FEF75FFC0022DA
:1027200011462620FEF7C4FE2620FEF7B3FE05B0B4
:10273000F0BD1A4DAB42FAD1CB6943F48023CB6193
:10274000CB6903F4802304938B6943F010038B61FE
:102750008969134D01F01001CDE90321CDE9006035
:1027600069462846FEF73AFCE814CDE900046946BC
:1027700028460294FEF732FC0A48416821F03001F5
:1027800041F0E06141F010014160D0E700380140C4
:102790000010024000080140004400400048004092
:1027A000001001400000014090F83E30202B0ED177
:1027B00059B152B190F83C30012B08D0012380F878
:1027C0003C300023036301F0E3BB0120704702208B
:1027D0007047000038B500684449884270D1444CC5
:1027E0002078492810D043A12046FDF7DFFC43495B
:1027F000002808685AD0012802DB41A001F024FC1F
:10280000BDE83840FEF786BEA0786179303800EB2D
:102810004002C2EBC01001EBC001E07864225043DB
:10282000227902EB820200EB42000844E179A27AAD
:10283000303901EB4103C3EBC11102EBC102217A34
:1028400064235943637AA0F5A05003EB830301EBA3
:1028500043011144227BE37B303A02EB4205C5EB96
:10286000C21203EBC203627B64256A43A57BA1F518
:10287000A05105EB850502EB45021A446378A2F5E9
:10288000A052D038D039D03A2D2B06D0A3792D2B99
:1028900005D0E37A2D2B04D004E0404202E0494207
:1028A00000E05242BDE8384002F03CBA03280BDB9E
:1028B000E01CFDF78DFC0090A3786278217800E0A1
:1028C00012E015A001F0C0FBE01CFDF781FC0346FF
:1028D000A0783038C2B260783038C1B2207801B008
:1028E000BDE8304002F046BA38BD00000038014073
:1028F0000804002052455345540000003C000020CD
:102900004D43552053746172742052657365742170
:102910002121210D0A0000004D6F64653D25632CC7
:102920004D6F746F724E756D3D307825782C44690B
:10293000633D307825782C70776D3D25640D0A0055
:102940002DE9F843044690F83D001F4616460D4613
:1029500020284CD1C5B1BEB194F83C00012846D026
:10296000012084F83C004FF00008C4F8408021208A
:1029700084F83D00FEF734FCA6848146E684A06816
:10298000B0F5805F03D004E00120BDE8F883206942
:1029900028B12E465FF0000584F83C800EE000264A
:1029A000FAE78021204601F00EFBA0B9AEB116F87F
:1029B000010B21684860E08C401EE084E08C4B46AF
:1029C0004FF0000200970028EBD14FF04001204665
:1029D00001F0F9FA30B10320D7E735F8020BC0F364
:1029E0000800E6E7202084F83D000020CDE7022023
:1029F000CBE77047FEE700002DE9F84FC44E0C46C8
:102A000001883180418871808188B180DFF80C8332
:102A1000C088DFF800B3DFF80093F080002508F1EC
:102A20001007A6F1200A00BF36F91500FDF759FE80
:102A300000224B46FDF7B2FE19D258F82500FDF7EB
:102A400050FE00225B46FDF7C1FE10D257F825006C
:102A5000401C47F82500DAF80000032820DB58F86E
:102A6000252036F91510AEA001F0EEFA18E036F97F
:102A70001500FDF736FE00225B46FDF7A7FE0CD2DF
:102A800058F82500FDF72DFE00224B46FDF786FE87
:102A900003D257F82500401E00E0002047F825002B
:102AA0006D1C042DC0DB9A48002520384646D0E92D
:102AB00002808146964856F8251030F915709748DF
:102AC000103050F82500C0EB00403844401AFDF7A4
:102AD00008FE42464B46FDF775FD904ADFF864A2BA
:102AE000303202EBC502DFF860B2C2E9000146F8FD
:102AF00025706D1C042DDDDBDFF8208208F1300825
:102B0000D8E90267D8E904013B463246FDF741FCAB
:102B10004FF0FF394A46FDF7C4FD08F12005C5E92D
:102B20000001D8E9002339463046FDF7D3FC4A4678
:102B3000FDF7B7FDC5E9020175480121203840685D
:102B4000FDF71BFCFDF716FE89460090D8E906014B
:102B50003B463246FDF7BEFC4B46009AFDF732FD80
:102B6000C5E9040102F066F8D5E90223FDF7B8FCD7
:102B700006460F46D5E9040101F034FFD5E90023EC
:102B8000FDF7AEFC32463B46FDF7A4FC05F1180606
:102B9000C6E90001D5E9040101F024FFD5E90223CB
:102BA000FDF79EFC07468846D5E9040102F042F88D
:102BB000D5E9002381F00041FDF792FC43463A46F7
:102BC000FDF788FCC6E90201B4F90400FDF789FDB0
:102BD00000225346FDF7F6FC02F02CF8D6E902235A
:102BE000FDF77EFC07468846B4F90400FDF779FD41
:102BF00000225346FDF7E6FC01F0F4FED6E900237F
:102C0000FDF76EFC43463A46FDF764FC002253464E
:102C1000FDF766FCFDF78FFD218808442080B4F99C
:102C20000400FDF75EFD00225346FDF7CBFC01F0EA
:102C3000D9FED6E90223FDF753FC07468846B4F9CE
:102C40000400FDF74EFD00225346FDF7BBFC01F0EA
:102C5000F1FFD6E90023FDF743FC3A464346FDF772
:102C600098FB00225346FDF73BFCFDF764FD6188AD
:102C7000002208446080D5E904015346FDF730FC8A
:102C8000FDF759FDA188084400B2A080FDF729FD99
:102C90005E465A462D4BFDF799FDB4F9040006D265
:102CA000FDF71FFD32462A4BFDF714FC0EE0FDF741
:102CB00018FD3246274BFDF771FD0AD2B4F9040026
:102CC000FDF70FFD3246224BFDF763FBFDF733FDA9
:102CD000A080D5E90001002256465346FDF700FCCE
:102CE000FDF729FDE080D5E9020100221A4BFDF72E
:102CF000F7FBFDF720FD2081D5E9040100223346D2
:102D0000FDF7EEFBFDF717FD6081BDE8F88F0000D1
:102D1000600000204099C940C099C9C0200400202B
:102D2000726563765F636F756E743D25642C6375A1
:102D30007272656E745F636F756E743D25640D0A03
:102D40000000000000408F40386744692F8BA84086
:102D50002F8BB8402F8BA8C000408FC02DE9F84FB3
:102D600005460C46B0F90000FDF7B2FC3B4E31467B
:102D7000FDF7C5FA8046B5F90200FDF7A9FC31461A
:102D8000FDF7BDFA0746B5F90400FDF7A1FC314691
:102D9000FDF7B5FA324D01466868FDF77EFA8346C5
:102DA0005E4639464046FDF772FA31460090FDF71F
:102DB0006EFA2C4E8246414630603846FDF715FAD1
:102DC00080465946FDF763FA81467060594600987F
:102DD000FDF70BFA0746B06059464046FDF705FA85
:102DE0008046F0605046FDF7C5FCD5E90223FDF7AB
:102DF00077FB1D4E00223346FDF7E4FBFDF79BFCFD
:102E000020804846FDF7B6FCD5E90223FDF768FBB4
:102E100000223346FDF7D6FBFDF78DFC6080384677
:102E2000FDF7A8FCD5E90223FDF75AFB0022334643
:102E3000FDF7C8FBFDF77FFCA0804046FDF79AFC3C
:102E4000D5E90223FDF74CFB00223346FDF7BAFB20
:102E5000FDF771FCE080BDE8F88F000000007A44C7
:102E600040000020400400200000494010B51446F6
:102E7000012806D0002811D1BDE81040012000F043
:102E8000C9BD09B1012902D1012000F0FFFC224691
:102E9000BDE810400021024800F0CEBC10BD00008B
:102EA000F402002010B51446012806D0002811D1E4
:102EB000BDE81040022000F0ADBD09B1012902D1EA
:102EC000022000F0E3FC2246BDE810400421024845
:102ED00000F0B2BC10BD0000F402002010B5144692
:102EE000012806D0002819D1BDE81040032000F0C9
:102EF00091BD59B1012911D1032000F0C7FC084848
:102F000022460C21BDE8104000F096BC00210320B1
:102F100000F0BCFC22460C210248F3E710BD000083
:102F2000F40200204401002010B51446012806D008
:102F3000002819D1BDE81040042000F06BBD59B144
:102F4000012911D1042000F0A1FC084822460821E3
:102F5000BDE8104000F070BC0021042000F096FC99
:102F6000224600210248F3E710BD0000F4020020D1
:102F7000440100203EB500241148009401940294BD
:102F80000E498460016004730475012505614FF4E6
:102F900060214460C161FDF7A7FE08B172B6FEE78B
:102FA0000820CDE90005694602940548FDF71EFE9C
:102FB000002801D072B6FEE73EBD000000280140A7
:102FC000C00000202DE9F04385B00024254800947E
:102FD000019402940394816941F020018161816927
:102FE00001F020010491816941F010018161816942
:102FF00001F010010491816941F00401816181694E
:1030000001F004010491816941F008018161806946
:10301000DFF8548000F0080041F23F0504900022E0
:1030200029464046FEF7D6F8DFF840904FF4805727
:10303000002239464846FEF7CDF8009502260125C4
:103040000396CDE9015469464046FDF7C7FF009756
:103050000396CDE9015469464846FDF7BFFF05B028
:10306000BDE8F0830010024000100140000801405C
:1030700010B596B000240F941094119412941394E8
:103080001C2168461494FDF786F8202107A8FDF757
:1030900082F82D482B4901600221C0E9011442F257
:1030A0000F71C0E903148021C0E90541FEF7B4FDAA
:1030B00008B172B6FEE74FF480500F900FA9224876
:1030C000FEF710FE08B172B6FEE71F48FFF708F9D9
:1030D00008B172B6FEE7139413A91B481494FEF7C7
:1030E0005DFD08B172B6FEE76020CDE900040294F0
:1030F0000394049405940022694613480694FFF74C
:103100008CF808B172B6FEE70C2269460E48FFF74C
:1031100084F808B172B6FEE70794089409944FF456
:1031200000500A94CDE90B4007A907480E94FEF71A
:103130000BFD08B172B6FEE70348FFF72FF816B093
:1031400010BD0000002C01404401002010B58CB0DF
:1031500024216846FDF71FF80024164809944FF013
:1031600080410A94C0E900144EF66021C0E9024192
:103170008021046181610320CDE900040120CDE9B3
:10318000020406210491CDE90540CDE907416946D5
:103190000848FEF712FE08B172B6FEE7099409A9C5
:1031A00004480A94FEF7FAFC002801D072B6FEE744
:1031B0000CB010BD8C01002010B58CB024216846E5
:1031C000FCF7E9FF00241648099414490A94C0E961
:1031D00000144EF66021C0E90241046184610320BD
:1031E000CDE900040120CDE9020406210491CDE9D6
:1031F0000540CDE9074169460948FEF7DEFD08B103
:1032000072B6FEE7099409A905480A94FEF7C6FCC0
:10321000002801D072B6FEE70CB010BD00040040DB
:10322000D401002010B58CB024216846FCF7B3FF10
:1032300000241648099414490A94C0E900144EF673
:103240006021C0E90241046184610320CDE90004EA
:103250000120CDE9020406210491CDE90540CDE924
:10326000074169460948FEF7A8FD08B172B6FEE7B6
:10327000099409A905480A94FEF790FC002801D09A
:1032800072B6FEE70CB010BD000800401C02002022
:1032900010B58CB024216846FCF77DFF0024164849
:1032A000099414490A94C0E900144EF66021C0E95B
:1032B0000241046184610320CDE900040120CDE9CD
:1032C000020406210491CDE90540CDE90741694694
:1032D0000948FEF772FD08B172B6FEE7099409A924
:1032E00005480A94FEF75AFC002801D072B6FEE7A2
:1032F0000CB010BD000C00406402002010B596B068
:1033000000240F9410941194129413941C21684675
:103310001494FCF740FF202107A8FCF73CFF354838
:10332000334901600221C0E9011442F20F71C0E982
:1033300003148021C0E90541FEF76EFC08B172B6A6
:10334000FEE74FF480500F900FA92A48FEF7CAFC01
:1033500008B172B6FEE72748FEF7C2FF08B172B6A1
:10336000FEE7139413A923481494FEF717FC08B141
:1033700072B6FEE76020CDE9000402940394049441
:103380000594002269461B480694FEF746FF08B1E3
:1033900072B6FEE7042269461648FEF73EFF08B102
:1033A00072B6FEE7082269461248FEF736FF08B1FA
:1033B00072B6FEE70C2269460E48FEF72EFF08B1F2
:1033C00072B6FEE70794089409944FF400500A94EB
:1033D000CDE90B4007A907480E94FEF7B5FB08B1ED
:1033E00072B6FEE70348FEF7D9FE16B010BD000026
:1033F00000340140F4020020FEE7000010B504464E
:103400000C480068032803DB21460BA000F01CFEDB
:10341000201E02DD0246002103E004DA404202B22F
:103420000121012002E0024601210020BDE81040F8
:10343000FFF738BD680000204D6F746F725F425F08
:1034400053657453706565642054617267656420C8
:1034500070776D20636F756E74203D25640D0A00D2
:1034600010B5052000F0D6FA00210C48FEF768FFE1
:1034700004210A48FEF764FF08210848FEF760FFB0
:103480000C210648FEF75CFF00210548FEF758FFB7
:10349000BDE810400C210248FEF752BFF4020020A4
:1034A00044010020FEE700002DE9F041254C451ABB
:1034B0004FF47A71A0692844A061884202DC494235
:1034C000884200DAA161B4F90200A1694843FDF71E
:1034D000FFF8DFF874804146FCF7DFFE07466069BD
:1034E000B4F90410281A4843FDF7F2F84146FCF7F6
:1034F000D4FE0646B4F900006843FDF7E9F84146FA
:10350000FCF7CBFE3146FCF770FE3946FCF76DFE4A
:103510000646B4F90600FDF7DBF83146FCF765FE18
:10352000FDF7F0F800B2E0804FF4FA61656188427F
:1035300002DC4942884200DAE180B4F90600BDE8C5
:10354000F08100006C0000200AD7233C2DE9F041F7
:10355000254C451A4FF47A71606A284460628842AB
:1035600002DC4942884200DA6162B4F90200616A11
:103570004843FDF7ADF8DFF874804146FCF78DFE57
:103580000746206AB4F90410281A4843FDF7A0F84A
:103590004146FCF782FE0646B4F900006843FDF799
:1035A00097F84146FCF779FE3146FCF71EFE394696
:1035B000FCF71BFE0646B4F90800FDF789F8314612
:1035C000FCF713FEFDF79EF800B220814FF4FA617C
:1035D0002562884202DC4942884200DA2181B4F93E
:1035E0000800BDE8F08100006C0000200AD7233CF1
:1035F0002DE9F041254C451A4FF47A71206B28448F
:103600002063884202DC4942884200DA2163B4F92F
:103610000200216B4843FDF75BF8DFF874804146F8
:10362000FCF73BFE0746E06AB4F90410281A484349
:10363000FDF74EF84146FCF730FE0646B4F90000AF
:103640006843FDF745F84146FCF727FE3146FCF795
:10365000CCFD3946FCF7C9FD0646B4F90A00FDF772
:1036600037F83146FCF7C1FDFDF74CF800B2608138
:103670004FF4FA61E562884202DC4942884200DA8E
:103680006181B4F90A00BDE8F08100006C000020FF
:103690000AD7233C2DE9F041254C451A4FF47A71A5
:1036A000E06B2844E063884202DC4942884200DA49
:1036B000E163B4F90200E16B4843FDF709F8DFF874
:1036C00074804146FCF7E9FD0746A06BB4F904108D
:1036D000281A4843FCF7FCFF4146FCF7DEFD06468E
:1036E000B4F900006843FCF7F3FF4146FCF7D5FD51
:1036F0003146FCF77AFD3946FCF777FD0646B4F90A
:103700000C00FCF7E5FF3146FCF76FFDFCF7FAFF14
:1037100000B2A0814FF4FA61A563884202DC4942FD
:10372000884200DAA181B4F90C00BDE8F081000004
:103730006C0000200AD7233C7047000070B5FDF7ED
:103740003DFA2E4CA0F5EA4030382080FDF73CFAD7
:10375000A0F5EA4030386080FDF73CFA47F230557A
:10376000281AA080FDF73CFA281AE080284600F0CD
:103770004BF8284600F04EF8284600F051F828464D
:1037800000F054F804F108002288018811440180F7
:1037900041886288114441808188A28811448180D7
:1037A000C188E2881144C1801549FFF725F904F169
:1037B0001801A01FFFF7D2FA04F11805B4F90010A0
:1037C000B5F90000FFF770FE04F110063080B4F97F
:1037D0000210B5F90200FFF7B9FE7080B4F90410C9
:1037E000B5F90400FFF704FFB080B4F90610B5F98D
:1037F0000600FFF74FFFF08070BD00000A000020B8
:10380000B400002070470000014909684862704711
:103810008C01002001490968486270471C020020A1
:10382000014909684862704764020020014909683B
:1038300048627047D4010020006829B1042905D0EE
:10384000082905D00264704742637047826370475D
:10385000C263704710B53C210848FEF7A3FB3C212A
:103860000748FEF79FFB3C210648FEF79BFBBDE89F
:1038700010403C210448FEF795BB00008C0100205D
:10388000640200201C020020D401002070B50C4608
:103890004149404E41F28835096801280CD0022880
:1038A00022D003283ED0042855D0012970DBBDE882
:1038B00070403AA000F0C8BB032903DB21463FA0BB
:1038C00000F0C2FB4CB1012C62D12A4600214048D5
:1038D000FFF7B2FF0022102118E02A4600213C48E1
:1038E000FFF7AAFF0122F6E7032903DB214639A0EF
:1038F00000F0AAFB4FF480536CB1012C48D12A464A
:1039000004213348FFF798FF002219463046BDE8EE
:103910007040FDF75FBC2A4604212D48FFF78CFF5D
:103920000122F2E7032903DB21462FA000F08CFBE4
:1039300054B1012C2CD12A460C212548FFF77CFFDD
:1039400000220C212D481FE000220C212048FFF707
:1039500073FF2A46F5E7032903DB214628A000F080
:1039600073FB4CB1012C13D12A4608211848FFF7EC
:1039700063FF00221146E5E72A4600211F48FFF7B2
:103980005BFF002212480821BDE87040FFF754BFDA
:1039900070BD000000100140680000205374617287
:1039A000745F4D6F746F723A4E6F74206D61746303
:1039B00068204D6F746F720D0A0000004D4F544F18
:1039C000525F4120444943203D2025640D0A0000F8
:1039D000F40200204D4F544F525F4220444943208F
:1039E0003D2025640D0A00004D4F544F525F432087
:1039F000444943203D2025640D0A00004401002075
:103A00004D4F544F525F4420444943203D2025648C
:103A10000D0A000010B5062834D2DFE800F03303A9
:103A2000060A121E0022114601E0002204211A4853
:103A30000FE000220C211848FFF7FEFE00220C21A7
:103A400006E0002208211448FFF7F6FE0022114686
:103A50001248BDE81040FFF7EFBE002211460E48A5
:103A6000FFF7EAFE002204210B48FFF7E5FE0022E3
:103A70000C210948FFF7E0FE00220C210748FFF760
:103A8000DBFEDEE706480068012804DBBDE81040E5
:103A900004A000F0D9BA10BDF402002044010020B7
:103AA0006800002053746F705F4D6F746F723A4EF0
:103AB0006F74206D61746368204D6F746F720000C5
:103AC000FDF790BC30B595B028216846FCF763FB44
:103AD00014210AA8FCF75FFB18210FA8FCF75BFB79
:103AE00001210804CDE9001000250295022404916B
:103AF000CDE907404FF4E01009906846FDF77EFEDF
:103B000008B172B6FEE70AA90F2081E831004FF430
:103B10008060CDE90D0502210AA8FDF783FD08B1FB
:103B200072B6FEE74FF4004011900F940FA8FDF716
:103B300003FD002801D072B6FEE715B030BD704716
:103B40000148FEF777BA0000AC020020F0B5026829
:103B50001C4B1D4D1D4E1E4F1E4C4FF0804C98426D
:103B600009D0A04207D0604505D0A84203D0B0429A
:103B700001D0B84204D122F0700E4A6842EA0E0227
:103B8000984209D0A04207D0604505D0A84203D092
:103B9000B04201D0B84203D122F44075CA682A432A
:103BA0004D6922F080022A4302608A68C2620A6874
:103BB0008262984201D0A04201D1096901630121CA
:103BC0004161F0BD002C01400004004000080040AD
:103BD000000C00400034014010B501F01F0301212A
:103BE000046A99408C430462016A9A40114301625D
:103BF00010BD10B5846842EA032224F47F440A43CE
:103C00002243826010BD826822F070020A4342F0B3
:103C10000701816070470000F0B5026A22F00102DE
:103C20000262036A42688469124E24F073050C68CC
:103C30002C4323F002058B682B430D4DA84201D085
:103C4000B04205D123F00807CB683B4323F00403BF
:103C5000A84201D0B04205D14D6922F4407215430B
:103C60008A692A4342608461496841630362F0BD06
:103C7000002C014000340140F0B5026A22F010022D
:103C80000262026A436884690D6824F4E64444EAE7
:103C900005248D6822F0200242EA05120F4D104ED5
:103CA000A84201D0B04206D1CF6822F0800242EA99
:103CB000071222F04002A84201D0B04207D14D695C
:103CC00023F4406343EA85038D6943EA8503436037
:103CD0008461496881630262F0BD0000002C0140EC
:103CE00000340140F0B5026A22F480720262026A76
:103CF0004368C46922F4007224F073050C68124E04
:103D00002C438D6842EA05220E4DA84201D0B042F4
:103D100006D1CF6822F4006242EA072222F48062D0
:103D2000A84201D0B04207D14D6923F4405343EA81
:103D300005138D6943EA05134360C4614968C16393
:103D40000262F0BD002C01400034014030B5026A2F
:103D500022F480520262046A4268C3690D6823F447
:103D6000E64343EA05238D6824F4005444EA05340D
:103D7000084DA84202D0084DA84204D14D6922F452
:103D8000804242EA85124260C3614968016404626C
:103D900030BD0000002C01400034014010B5036A22
:103DA000046A24F001040462846924F0F00444EA03
:103DB000021423F00A020A438461026210BD10B5A6
:103DC000036A23F0100303628369046A23F47043D7
:103DD00043EA023224F0A00343EA01118261016246
:103DE00010BD10B5406A0021C185C184FEF705FBF6
:103DF00010BD0168CA6822F49072CA6001684A69FD
:103E000022F001024A61016B012904D10168CA68EC
:103E100022F01002CA60202180F83E1000210163C8
:103E2000704708B590F83E10222901D0022008BD45
:103E300082684FF480539A4201D1016921B1816AAD
:103E40009A421BD04AB10AE00268816A5268C2F302
:103E500008020A80816A891C08E0026972B102685E
:103E6000526802F07F020A70816A491C8162C18D2A
:103E7000491E0904090CC18503D019E00268526883
:103E8000F1E70168CA6822F02002CA600168CA68C6
:103E900022F48072CA6001684A6922F001024A6114
:103EA000202180F83E10016B012903D0FEF792FC1F
:103EB000002008BD002101630168CA6822F01002D9
:103EC000CA6001680A68D20602D50A68496800918A
:103ED000818DFEF791FAEBE770B504460068016941
:103EE000E26821F44051114301612169A06808434F
:103EF000616908432168CA6841F20C639A4302432E
:103F0000CA6020684169A26921F44071114341618E
:103F10001E492068884202D1FDF72AFC01E0FDF726
:103F200017FC00EBC00101EB001260686421800007
:103F3000B2FBF0F3B3FBF1F36FF018067343B2FB7F
:103F4000F0F5B2FBF0F605EB8305322303EB051524
:103F5000B5FBF1F5B6FBF1F605F0F00505EB06153E
:103F6000B2FBF0F6B2FBF0F0B0FBF1F06FF018022C
:103F7000504306EB800003EB0010B0FBF1F021682A
:103F800000F00F002844886070BD00000038014038
:103F900081628285C28500210164222280F83E2050
:103FA00080F83C100168CA6842F48072CA600168F7
:103FB0004A6942F001024A610068C16841F020018B
:103FC000C160002070472DE9F041984617460E4623
:103FD0000446069D1DE0681C1BD02DB1FDF700F9BD
:103FE000A0EB0800A84214D92068C16821F4D07160
:103FF000C1602068416921F001014161202084F8FD
:104000003D0084F83E00002084F83C000320BDE819
:10401000F0812068006836EA000004D00020B84231
:10402000D9D00020F3E70120F9E700000148FEF7AE
:10403000E5B900003C0300200148FEF7DFB90000AD
:1040400080030020FEE700000FB4054B10B503A964
:10405000044A029800F066FB10BC5DF814FB0000F7
:10406000814A0008AC000020490050EAC12018BF76
:1040700004204A0D18BF40F0010040F2FF72B2EB7D
:10408000515F08BF40F00200012808BF05207047BB
:104090000907090E002804DB00F1E02080F8001475
:1040A000704700F00F0000F1E02080F8141D704709
:1040B00000487047B00000202DE9F74F144694B037
:1040C0000021C4E902111599079121F00045C94961
:1040D0008D4206DC1599C4E9000117B00020BDE847
:1040E000F08FC549DFF814A3A9423CDD0799C44EFF
:1040F0000029C44FC44A1599534619DDFCF7EAF963
:10410000554506D0C14AC24BFCF7E4F9C4E90001A9
:104110000AE04FF0D352BE4BFCF7DCF932463B4687
:10412000FCF7D8F9C4E9000117B00120BDE8F08F11
:10413000FCF72FF9554506D0B44AB54BFCF729F9E1
:10414000C4E900010AE04FF0D352B14BFCF721F96A
:1041500032463B46FCF71DF9C4E9000117B04FF0A9
:10416000FF30BDE8F08FAB49A942159978DB21F00B
:10417000004183468846A84AA84BFCF7B1F90022C3
:10418000A74BFCF706F9FCF7D6FA0990FCF7A9FA59
:1041900006460F469C4A5346FCF7A2F943465A4648
:1041A000FCF79BF980468A46984A994B3046394637
:1041B000FCF796F92A0D01250B9242465346FCF76F
:1041C0008CF9032DC4E9000139D00B98C1F30A51D1
:1041D000401A05EB45111139814230DA9148C34646
:1041E000784400EB0510CDF80CA00C90D0E900232A
:1041F00030463946FCF774F902460B4604910690A6
:1042000058460399FCF766F980468A4602460B46F3
:1042100058460399FCF75EF9049B069AFCF75AF995
:1042200083460C9803913946D0E902233046FCF7C7
:1042300057F95A46039BFCF74DF96D1CBDE70798EB
:104240000028A2BF099817B0BDE8F08F616881F01F
:1042500000416160099817B04042BDE8F08FFFE768
:1042600084461598C1F31301C0F30A50A0F2F5304B
:104270004FEA601800F01F06C6F1200013900020DE
:104280000690079041F4801E05206D4676B1664A7F
:1042900008EB00017A4452F8213002EB8101B3406F
:1042A0004A68139922FA01F1194305E05F4908EBC6
:1042B0000002794451F82210A1FB0E27A1FB0C1338
:1042C0001A449A4234BF0123002303EB070A05EB8B
:1042D0008003D3E901B70F448F4234BF012100218D
:1042E00093448B4411B1934502D903E0934501D225
:1042F000012100E00021C3E901B7514445F8201035
:10430000011EA0F10100C1DC0298059F00F10050E0
:10431000800F12900298DDE903568000FCF7E1F966
:10432000834628460D91FCF7ECFB6FF01D02FCF76D
:10433000B8F9CDE90E013046FCF7E3FB6FF03D0222
:10434000FCF7AFF980468A463846FCF7DAFB6FF097
:104350005D02FCF7A6F90746424653461191FCF769
:1043600018F8DDE90E23FCF714F85A460D9BFCF70C
:1043700010F800250E465A4628460D9BFCF7AAF871
:10438000DDE90E23FCF7A6F842465346FCF7A2F8F7
:104390003A46119BFCF7A1F8DFF898A0244A53464F
:1043A000FCF79EF807468846234A244B31462846A8
:1043B000FCF796F83A464346FBF7EBFF074688467C
:1043C0004FF0A842534631462846FCF789F83A4652
:1043D0004346FBF7DEFF159A12F0004F04D0129A05
:1043E00081F0004152421292C4E90001129817B0C4
:1043F000BDE8F08FFB21E93F7CD90240FB21F93F6A
:104400007370032E8A19A33B000040543163621A73
:1044100061B4D03DFB21394183C8C96D305FE43FB1
:104420000000E03F6C0D0000E80C0000CA0C00002A
:10443000182D4454FB21F93D3326A611460B113C9F
:104440002DE9FF4D21F0004807460C46B8F1795F91
:1044500008DAFCF770F9002801BF0020324904B0E7
:10446000BDE8F08D3A46234610461946FCF738F869
:10447000054602462D480E460B460621784400F0BC
:104480005DF82A463346FCF72BF8DDE90223824625
:104490008B4638462146FCF723F804460F46524621
:1044A0005B4628463146FCF71BF822463B46FCF7A4
:1044B00011F807468A464FF0FF3228463146FCF78E
:1044C000F0F81B4A90450ADA3A465346FCF702F8E0
:1044D00004B00022BDE8F04D134BFBF7FEBF154AB8
:1044E0004245A8BFA8F500154FF00004B8BF124D13
:1044F00022462B46FBF7EEFF0646884622462B4611
:1045000000200949FBF7E6FF04460D463A465346AC
:1045100030464146FBF7DEFF04B022462B46BDE89D
:10452000F04DFBF7DABF00000000F03FA00A0000EA
:104530003333D33F0000E93F0000D23F2DE9F04183
:104540004F1E00EBC7010446D1E9000115461E4687
:1045500037F006020DD02A463346FBF7C1FF7F1E17
:1045600004EBC703D3E90023FBF713FF37F0060280
:10457000F1D1022F25D0042F13D0062F18BFBDE88C
:10458000F0812A463346FBF7ABFFD4E90A23FBF759
:1045900000FF2A463346FBF7A3FFD4E90823FBF7C5
:1045A000F8FE2A463346FBF79BFFD4E90623FBF7C8
:1045B000F0FE2A463346FBF793FFD4E90423FBF7CA
:1045C000E8FE2A463346FBF78BFFD4E90223FBF7CC
:1045D000E0FE2A463346FBF783FFD4E90023BDE81B
:1045E000F041FBF7D6BE00002DE9FF4D054621F056
:1045F000004084B00C46B0F1795F0BDA2846FFF733
:1046000033FD042808BF00F06FF8284608B02146A3
:10461000BDE8F08D2A460B461046FBF761FF0646C3
:104620000F462A462346FBF75BFF804626488A460C
:1046300032463B4605217844FFF780FF83461098B9
:10464000029160B3214A224B40465146FBF748FF96
:10465000CDE900015A4640465146029BFBF740FF18
:1046600082468846DDE906014FF0FF32FCF719F873
:1046700052464346FBF72EFF32463B46FBF730FFE0
:10468000DDE90623FBF726FFDDE90023FBF722FF28
:1046900008B02A462346BDE8F04DFBF71EBF0B4687
:1046A0005A4630463946FBF71BFF084A084BFBF7D2
:1046B00070FE42465346FBF713FF08B02A462346D6
:1046C000BDE8F04DFBF765BEDE09000049555555C4
:1046D0005555C5BF0122FBF7E4BF00221346104623
:1046E0001146FBF76FBF0000024A00201107FBF7DD
:1046F000D8BF000001FDFFFF02E008C8121F08C17B
:10470000002AFAD170477047002001E001C1121F52
:10471000002AFBD170470000014908607047000083
:10472000B00000202DE9FF4F8DB09B460F46044698
:10473000002606E025280BD05A460F999047641CA6
:10474000761C20780028F5D111B03046BDE8F08FF6
:104750000025A8460122984900E0054314F8013FCE
:10476000203B02FA03F00842F7D120782E2817D117
:1047700014F8010F45F004052A280ED06FF02F021F
:104780002078A0F1300109290AD808EB880102EB52
:10479000410100EB0108641CF2E757F8048B641C2C
:1047A00020786C280DD004DC4C2812D06A2811D156
:1047B00004E074280DD07A280CD10AE045F40015E5
:1047C00007E0617845F48015814202D1641C05F54B
:1047D0008015641C2278692A45D008DC002AB3D0F1
:1047E000582A69D0632A10D0642A08D13BE0702A85
:1047F00067D0732A13D0752A5CD0782A5CD0104613
:104800005A460F999047761CD3E017F8040B8DF8A1
:10481000000000208DF80100E946012003E057F870
:10482000049B4FF0FF3069074FF0000501D40AE008
:104830006D1C45450DDA8542FADB19F80510002993
:10484000F6D106E06D1C8542FCDB19F80510002945
:10485000F8D12E4404E019F8010B5A460F999047FD
:104860006D1EF8D2A5E00A200021CDE90801C5F3AC
:10487000025002280DD001CFC117031E71F10003B1
:104880000DDA4FF0000CD0EB0C006CEB01012D2386
:1048900008E0FF1D27F00707F7E80201EDE72B0509
:1048A00004D52B238DF8283001233BE0EB0739D0CA
:1048B0002023F7E70A2000E010200021CDE90801BD
:1048C00007E01020002145F00405CDE908014FF074
:1048D0000808C5F3025002280FD001CF00214FF085
:1048E000000A2B071FD5702A0DD0DDE908C38CF014
:1048F000100C5CEA030C0CD015E0FF1D27F0070735
:10490000F7E80201EBE740228DF828204FF0010A7A
:104910000BE050EA010306D030238DF828308DF8E3
:10492000292002239A46582A04D024A20DF12009F6
:104930000B9209E026A2F9E7DDE90823FBF75EFF09
:104940000B9B9B5C09F8013D50EA0102F4D1ADEBF1
:10495000090020300890680701D44FF00108089939
:10496000884502DDA8EB010000E00020804600251C
:1049700006E00AA85A46405D0F9990476D1C761CC8
:104980005545F6DB04E030205A460F999047761CD7
:10499000B8F10001A8F10108F5DC05E019F8010BF8
:1049A0005A460F999047761C0899481E089000298E
:1049B000F4DC641CC5E60000092801003031323304
:1049C000343536373839616263646566000000004B
:1049D0003031323334353637383941424344454635
:1049E0000000000000B5244B21F0004287B09A423D
:1049F000DCBF0022134629DD204B9A4208D140B982
:104A00004FF00100FFF788FEFFF767FE07B000BD1B
:104A100003DBFFF75FFE07B000BD02AAFFF74CFB08
:104A200010F0030104BF0DF1080C9CE80F000DD03D
:104A3000012001290ED0022914D00DF1080C00909C
:104A40009CE80F00FFF7D0FD07B000BDFFF7F8FCB2
:104A500007B000BD0DF1080C00909CE80F00FFF7B7
:104A6000C3FD05E00DF1080C9CE80F00FFF7E8FC22
:104A700007B081F0004100BDFB21E93F0000F07F5D
:104A800008B502238DF80000012269460248FDF7AF
:104A900057FF012008BD00003C0300201CB5FCF7B7
:104AA000A9FCFFF70FF8FEF78DFAFEF763FA5448FA
:104AB0005249002401605349C0E901144FF4804178
:104AC000C0E9034144618461C4610462FCF78EFB68
:104AD00008B172B6FEE7FEF7CBFAFEF737FBFEF73A
:104AE0006BFBFEF79FFBFEF7D3FB4848009446495B
:104AF000019401604721C0E9011442F21071846100
:104B0000C160FDF789F808B172B6FEE70094694606
:104B10003E480194FDF742F808B172B6FEE7FEF791
:104B2000EDFB3A483A49D4304FF4E1360160C0E930
:104B300001640C25C460C0E904458461C461FDF7CB
:104B400063FD08B172B6FEE7334832490160C0E93F
:104B50000164C460C0E904458461C461FDF754FD8B
:104B600008B172B6FEE72C482C49883801604FF432
:104B70001651C0E90114C460C0E904458461C461F0
:104B8000FDF742FD08B172B6FEE7FCF703F8FEF749
:104B900067FC4FF4FA64224600210120FEF766F913
:104BA000224600210120FEF77DF922460021012046
:104BB000FEF794F9224600210120FEF7B5F9FEF731
:104BC00049FE47F230542046FEF71EFE2046FEF70F
:104BD00021FE2046FEF724FE2046FEF727FEFEF7C4
:104BE000ADFD40F6B830FEF709FC0D48006802281C
:104BF00002DB0CA0FFF728FAFEE70000005400409B
:104C0000F0000020801A060000100040AC020020D6
:104C10000044004000480040C40300200038014028
:104C200000000020496E697420646F6E652E2E2E80
:104C30000D0A000000B5254B21F0004287B09A42D2
:104C400003DC0022134600922BE0214B9A4208D14C
:104C500040B94FF00100FFF75FFDFFF73EFD07B0E1
:104C600000BD03DBFFF736FD07B000BD02AAFFF76A
:104C700023FA10F003014FF001000DD0012914D0E8
:104C800002291AD00DF1080C9CE80F00FFF7D8FBA1
:104C900007B081F0004100BD0DF1080C00909CE8C8
:104CA0000F00FFF7A1FC07B000BD0DF1080C9CE858
:104CB0000F00FFF7C5FB07B000BD0DF1080C009019
:104CC0009CE80F00FFF790FCE2E70000FB21E93FC2
:104CD0000000F07F10B501280CD002280CD003286A
:104CE0000CD004280CD007480068032802DB06A07B
:104CF000FFF7AAF9002010BD042010BD0C2010BD44
:104D0000082010BD3C00002041626E6F726D616C26
:104D1000207377697463685F6368616E6E656C0D9C
:104D20000A00000070B50646084814460D460068A3
:104D3000022805DB13460A46314605A0FFF784F931
:104D40000B4806804580848070BD00003C00002038
:104D5000785F73706565643D25642C795F73706559
:104D600065643D25642C7961773D25640D0A00005A
:104D7000040000202DE9F8430646984617460D46E4
:104D80000846FFF7A7FF3D4C2168022906DB00908B
:104D90003B462A4631463AA0FFF756F9412E0CD041
:104DA000502E5ED0532E33D02068012864DB31466C
:104DB000BDE8F8433DA0FFF747B900210120FEF709
:104DC00065FD4FF4FA652A4600213E48FEF734FDA2
:104DD00000210220FEF75AFD2A4604213948FEF739
:104DE0002BFD00210320FEF751FD2A460C213548FA
:104DF000FEF722FD00210420FEF748FD2A46082187
:104E00003048FEF719FD2068032835DB2EA02FE07F
:104E1000012D0AD0022D0FD0032D14D0042D19D04E
:104E20002068012828DB2CA022E042463946BDE854
:104E3000F8430120FEF71AB842463946BDE8F84368
:104E40000120FEF72FB842463946BDE8F84301205D
:104E5000FEF744B842463946BDE8F8430120FEF764
:104E600063B80520FEF7D6FD2068032804DB21A0E7
:104E7000BDE8F843FFF7E8B8BDE8F8833C00002040
:104E80004D6F64653D25632C4D6F746F723D2564D5
:104E90002C4469633D25642C70776D5F6368616E97
:104EA0006E656C3D307825780D0A0000546573748A
:104EB000206D6F6465206572726F72282563290DFD
:104EC0000A000000F40200205374617274206D6FB8
:104ED000746F720D0A00000053656C656374206D79
:104EE0006F746F72206E756D206572726F72212102
:104EF000210D0A0053746F70206D6F746F720D0A6C
:104F00000000000000000000000000000102030497
:104F10000607080900000000010203040000000069
:104F20004C5555555555A53F7751C1166CC156BFC7
:104F30009015CB19A001FA3EAD529C804F7E92BED7
:104F4000C4B1B4BD9EEE213ED43888BEE9FAA8BDF6
:104F500000004054FB21F93F3163621A61B4D03D37
:104F60000000601A61B4D03D7370032E8A19A33B10
:104F70000000002E8A19A33BC14920259A837B3962
:104F800000000000000000006E83F9A22915444EC5
:104F9000D15727FCC0DD34F5999562DB4190433C45
:104FA000AB6351FE61C5BBDE3A6E24B7E0D24D4221
:104FB000EA2E49061C92D1091CEB1DFE3EA729B121
:104FC000F53582E88444BB2E26709CE9417E5FB4AF
:104FD00039D69139F43953838B5F849C3B28F9BDD2
:104FE000FF97F81F0F9805DE8B112FEF1F6D0A5AE0
:104FF000CF7E366DB709CB27663F464F2DEA5F9EC1
:10500000C7BA27757BF1E5EBF739073DEA92528A7B
:10501000B15FFB6B085D8D1FA6F810111111813F68
:10502000D561C119A0012ABF7DFEB157E31DC73E5E
:10503000EB9C2B8AE6E55ABE7CD5CF5A3AD9E53DA2
:10504000004040404040404040404141414141409B
:105050004040404040404040404040404040404050
:1050600040050202020202020202020202020202DF
:1050700002202020202020202020200202020202E4
:10508000020290909090909010101010101010103C
:105090001010101010101010101010100202020248
:1050A000020288888888888808080808080808088C
:1050B0000808080808080808080808080202020288
:1050C0004000000041500008E850000800000020A7
:1050D000B4000000F84600089C510008B40000200D
:1050E000E40700000847000803000000000000007B
:1050F00000000000000000000000000000000000B0
:10510000000000000000000000000000000000009F
:10511000000000000100000010000000000000007E
:105120000024F40003000000020000009A99993E58
:105130000000000000000000000000000000F03F40
:10514000000000000000F03F000000000000000030
:105150000100000036000000030000000000000015
:10516000000000000000000000000000000000003F
:10517000000000000000000000000000000000002F
:10518000000000000000000000000000000000001F
:0C51900000000000000000000000000013
:0400000508000131BD
:00000001FF
