:020000040800F2
:10000000E8090020450100084D41000805300008BE
:10001000753F0008730D000809510008000000003A
:100020000000000000000000000000008146000801
:10003000750D000800000000E14300084949000870
:100040005F0100085F0100085F0100085F01000810
:100050005F0100085F0100085F0100085F01000800
:100060005F0100085F0100085F0100085F010008F0
:100070005F0100085F0100085F0100085F010008E0
:100080005F0100085F0100085F0100085F010008D0
:100090005F0100085F0100085F0100085F010008C0
:1000A0005F0100085F0100085F0100085F010008B0
:1000B0005F0100085F0100085F0100085F010008A0
:1000C0005F0100085F0100085F0100085F01000890
:1000D0005F010008194F0008394F0008FD50000863
:1000E0005F0100085F0100085F0100085F01000870
:1000F0005F0100085F0100085F0100085F01000860
:100100005F0100085F0100085F0100085F0100084F
:100110005F0100085F010008C94900085F0100088D
:100120005F0100085F0100085F0100085F0100082F
:10013000DFF80CD000F020FD004800472D7C0008BF
:10014000E80900200648804706480047FEE7FEE72A
:10015000FEE7FEE7FEE7FEE7FEE7FEE7FEE7FEE777
:10016000C7490008310100082DE9F0410024061BB1
:10017000254671F1000605DA01240027D0EB0700BF
:1001800067EB0101161E73F1000605DA0027D2EBBA
:100190000702012567EB030300F0B8FB86460E4615
:1001A00017469C46AC4204D00025D0EB050E65EB0B
:1001B000010624B10020D2EB000760EB030C70466F
:1001C00031463A466346BDE8F081202A04DB203AF6
:1001D00021FA02F00021704721FA02F3D040C2F167
:1001E00020029140084319467047D2B201E000F85E
:1001F000012B491EFBD270470022F6E710B51346CB
:100200000A4604461946FFF7F0FF204610BD30B5F8
:1002100005462A460B4612F8010B13F8014B08B1AC
:10022000A042F8D01CB1002802D06D1CF1E728468E
:1002300030BD30B504460020034600E05B1C93420D
:1002400003D2E05CCD5C401BF8D030BD70B50646F3
:1002500004F090FF046805460A220021304600F0B1
:10026000A7FB2C6070BDF0B480EA0102D40F4200FD
:10027000B2EB410F02D20246084611464A0042D074
:10028000C30DDDB2C1F3C752AD1A202D35DAC1F36B
:10029000160141F4000204B15242C5F1200602FAEF
:1002A00006F12A411044B3EBD05F23D0C4B1012D35
:1002B000A0EBC35009DCF0BC4FF0004202EAC3528D
:1002C000DBB200F5000000F0B4BB400000F180702C
:1002D00000EBC350A0F1807040EAD170490009E002
:1002E000490841EAC071A0EBC35000F50000400886
:1002F00000EBC350F0BC00F093BB6142012202EB63
:100300004101001BF6E7F0BC704781F00041AAE70D
:1003100080F00040A7E780EA010210B502F0004338
:10032000400022D04A001FD0010E01EB1261C0F341
:100330005600C2F3560240F4000042F40002A0FB53
:10034000022000047F39140400D0401C50EA1240FF
:1003500001D44000491EC2B20C0604EBD010401C70
:100360004008802A02D003E0002010BD20F00100E8
:10037000002900DA0020184310BD30B480EA0102E1
:1003800002F0004530F0004221F0004013D090B15F
:10039000C30DD40DC2F31601C0F31600E41A41F4E4
:1003A000000140F400027D34914201D3641C00E05E
:1003B0004900002C02DA30BC002070474FF40000E6
:1003C0000023914201D3891A034340084FEA4101B7
:1003D000F7D151B1914202D14FF0004105E002D274
:1003E0004FF0010101E06FF0010103EBC45028441C
:1003F00030BC00F015BB420005D0C0F3C7525242DA
:10040000914201DC0020704700EBC15070472DE99C
:10041000FE4F804681EA0300C00F0C46009021F099
:10042000004123F00045B8EB0200A94105D2404647
:10043000214690461C460B46024623F000401043DE
:1004400047D0270DC7F30A00C3F30A510290401AA0
:10045000019040286BDAC3F3130040F4801B00982E
:10046000924620B10023D2EB030A63EB0B0B0198F9
:100470005946C0F14002504600F079FA06460D4652
:1004800050465946019A00F081FA10EB080061418C
:10049000002487EA115284EAE7731A4340D0009A95
:1004A00062B3019A012A4FEA075215DC001B61EB87
:1004B00002014FF0004202EA0752CDE90042001C5F
:1004C00041F5801132462B4600F0F0FA03B0BDE84A
:1004D000F08F40462146F9E7001B61EB0201001C4A
:1004E00041F5801300185B412018A2F5001747EB77
:1004F000030140EAD570B6196D4111E06D084FEA6D
:10050000360645EAC0754FEA0752001B61EB02014F
:10051000001C41F5801149084FEA30000019514193
:1005200032462B4603B0BDE8F04F00F0B0BA009859
:10053000012240000023D0EB020263EBE07300983D
:1005400021464FEAE074B8EB000061EB0401E9E7F3
:1005500083F000435BE781F0004158E72DE9FE4F4F
:1005600081EA030404F0004421F0004100944FF0BC
:10057000000B23F0004350EA01045ED052EA03046A
:100580005BD0C3F30A54C1F30A552C44A4F2F334EC
:100590000194A0FB0254C1F3130141F48011C3F391
:1005A000130343F4801301FB024400FB034E840A4F
:1005B000970A44EA815447EA8357A4FB07680295E7
:1005C0008D0A05FB07854FEA932C04FB0C54270585
:1005D000029D4FEA065847EA1637B5EB08056EEB61
:1005E000070C870E920E47EA811742EA8312A7FB97
:1005F0000201B6EB0B0164EB00042B0D43EA0C3354
:100600005E1844EB1C50DA465146E7FB0201C5F385
:1006100013044FEA0B3343EA14534FEA0432019CAC
:1006200043EA0603A4F10C040294009CCDE900B453
:1006300000F03CFA03B0BDE8F08F00200146F9E776
:100640002DE9F04D81EA030404F0004B21F0004550
:1006500014464FF0000A23F0004150EA050220D072
:1006600054EA01021DD0C5F30A570246C5F313032D
:10067000C1F31300C1F30A5640F4801543F480130C
:10068000A7EB0608101BD64608F2FD3873EB0500F1
:1006900002D308F1010801E092185B41B8F1000FA4
:1006A00003DA00200146BDE8F08D00204FF48011F0
:1006B000064684460EE0171B73EB050705D3121B95
:1006C00063EB050306434CEA010C49084FEA30008E
:1006D00092185B4150EA0107EDD152EA030012D0B3
:1006E00082EA040083EA0501084305D0101BAB41F0
:1006F00006D20122002306E000224FF0004302E070
:100700006FF0010253101AEB06004CEB085110EB8E
:100710000A0041EB0B01BDE8F04D00F0B8B970B52F
:1007200021F0004303430CD0C1F30A550024D5EB5C
:10073000040564EB0403D617AD1AB34102DB0020B5
:10074000014670BD201841EB025170BDC10F80EA17
:10075000E0700844CA079623002100F06AB9962386
:100760000022114600F065B90EB5C10F80EAE070B5
:100770000844CA07002140F233438DE80E000A46C0
:100780000B4600F093F903B000BD00F0004220F0EA
:100790000040C10DC0F3160040F400007F2901DACB
:1007A00000207047962903DCC1F19601C84001E0A2
:1007B00096398840002AF4D04042704720F000402B
:1007C000C10DC0F3160040F400007F2901DA0020BB
:1007D0007047962903DCC1F19601C84070479639ED
:1007E0008840704770B5C1F30A5201F000450024FB
:1007F000C1F3130140F2FF3341F480119A4201DA50
:10080000002070BD40F233439A42A2F2334203DC2F
:100810005242FFF7DAFC00E090402C43F1D0404216
:1008200070BD00F0004230F000400AD0C10D01F56B
:100830006071C0F3160042EA0151C208400711433B
:10084000704700200146704730B5041E71F1000466
:1008500004DB4FF00044404264EB0101141E73F1CD
:10086000000405DB1C464FF00043524263EB0403D7
:100870008B4208BF824230BD30B5041E71F10004C6
:1008800004DB4FF00044404264EB0101141E73F19D
:10089000000405DB1C464FF00043524263EB0403A7
:1008A000994208BF904230BD01F0004330B421F0BE
:1008B000004150EA010206D00A0DA2F56072C1F3B0
:1008C0001301002A02DC30BC00207047440F44EAC8
:1008D000C104C100E01830BC00EBC25000F0A0B869
:1008E00030B50B46014600202022012409E021FA00
:1008F00002F59D4205D303FA02F5491B04FA02F5FD
:100900002844151EA2F10102F1DC30BD2DE9F05F93
:100910000546002092469B4688460646814640246E
:100920001BE02846414647462246FFF74EFC534609
:100930005A46C01A914110D311461846224600F07B
:1009400016F82D1A67EB01084F46224601200021B8
:1009500000F00DF817EB00094E41201EA4F1010430
:10096000DFDC484631462A464346BDE8F09F202A50
:1009700004DB203A00FA02F1002070479140C2F1F6
:10098000200320FA03F3194390407047202A06DB26
:10099000CB17203A41FA02F043EAE07306E041FA4D
:1009A00002F3D040C2F1200291400843194670473B
:1009B0002DE9F04791460F4680460446002614F87C
:1009C000015B2DB100F0EAF80068405DC007F6D188
:1009D0002B2D02D02D2D18D0641E4A4639462046B4
:1009E00000F0E0F827B13968A14201D1C7F80080D2
:1009F00071054FF002040BD54042002803DD04F0DE
:100A0000B9FB0460A007BDE8F08746F48066E4E720
:100A10000028F8DA04F0AEFB04606FF00040F2E763
:100A20000029A8BF7047401C490008BF20F0010002
:100A3000704710B4B0FA80FC00FA0CF050EA0104E0
:100A400004BF10BC704749B1CCF1200421FA04F472
:100A500011FA0CF118BF012121430843A3EB0C014B
:100A6000CB1D4FEA00614FEA102042BF002010BCAE
:100A7000704700EBC35010440029A4BF10BC70475E
:100A8000401C490008BF20F0010010BC704710B5A1
:100A9000141E73F1000408DA401C41F100019218A1
:100AA0005B411A4301D120F0010010BD2DE9F04D4A
:100AB00092469B4611B1B1FA81F202E0B0FA80F29F
:100AC00020329046FFF753FF04460F4640EA0A00E3
:100AD00041EA0B0153465A46084313D0114653EAE4
:100AE000010019D0C8F140025046FFF76EFB0546E1
:100AF0000E46504659464246FFF739FF084305D097
:100B0000012004E020463946BDE8F08D0020054371
:100B100046EAE0762C4337430A986305E40AA0EBE3
:100B200008000022FD0A44EA47540A3002D500209A
:100B30000146E9E7010510196941DDE90845001999
:100B40006941BDE8F04DA2E7C1F30A52C1F31301B8
:100B500040F2FF3341F480119A4202DA002001464C
:100B6000704740F233439A42A2F2334202DC5242CF
:100B7000FFF72BBBFFF7FBBE064C074D06E0E06816
:100B800040F0010394E8070098471034AC42F6D3D4
:100B9000FFF7D2FA34A2000854A2000800487047B8
:100BA000F4A000082DE9F05F824600780027154682
:100BB0008B460AF10104B946302801D09DB113E0FB
:100BC00014F8010B0127782803D0582801D045B12B
:100BD0000AE00DB1102D07D10027102514F8010BE4
:100BE00002E0082500E00A250026B0460EE005FBDD
:100BF000080005FB06F1012701EB10461FFA80F8FB
:100C0000B6F5803F00D3B94614F8010B294600F031
:100C100076F80028EBDABBF1000F05D00FB1641EA7
:100C200000E05446CBF80040B9F1000F06D004F0C4
:100C3000A1FA02210160C81EBDE8F09F48EA064003
:100C4000FAE72DE9F04D00231A461B1A8A4103DB0F
:100C500000200146BDE8F08DC1F30A52C1F3130133
:100C600041F480154FF0000BD10702D100186D41FF
:100C7000521E0027044640F2FF11384601EB620A7B
:100C80003E468046024600204FF48011FFF79DFA51
:100C9000C2197141BB1846EB0100B4EB030C75EBB4
:100CA000000C04D3E41A65EB000517460E46241920
:100CB00008F101006D4180463428E3DDF91946EB67
:100CC0000600091BA84103D24FF0FF32134601E092
:100CD000002213461BEB070046EB0A51BDE8F04D1E
:100CE000FFF7D5BE0EB540F2334102910021CDE9A8
:100CF00000110A460B46FFF7D9FE03B000BD3A28A3
:100D000000D2303820F02002412A01D3A2F137006E
:100D1000884201D34FF0FF307047000070B50446A1
:100D200000688168C943C90717D1816821F00101B2
:100D3000816000F059FB05460AE000BF00F054FB5B
:100D4000401B022804D920688068C043C00706D031
:100D500020688068C043C007F0D0002070BDA06A42
:100D600040F01000A062E06A40F00100E062012063
:100D700070BDFEE77047000010B510220549064817
:100D800002F01AF805480068C16841F02001C1600E
:100D900010BD00007804002098030020DC03002030
:100DA00001480068406A7047E80100200148006877
:100DB000406A70477802002001480068406A704726
:100DC000C002002001480068406A704730020020DD
:100DD000F8B50024009490F824202546012A12D06A
:100DE000012280F824204A681F23072A0DD20668B2
:100DF000776B521E02EB820293409F430B68934035
:100E00001F43776319E00220F8BD06680D2A0AD255
:100E1000376BD21F02EB820293409F430B689340D3
:100E20001F43376309E0F76A0D3A02EB82029340F1
:100E30009F430B6893401F43F7620A6807230668C5
:100E40000A2A0AD3F7680A3A02EB420293409F4308
:100E50008B6893401F43F76008E0376902EB42025A
:100E600093409F438B6893401F4337610A68102A61
:100E700001D0112A20D1124B02689A4217D19368EF
:100E80001B0219D4936843F4000393600968102986
:100E900012D10C490C4A0968B1FBF2F101EB810156
:100EA000490000E0491E00910029FBD104E0816A5D
:100EB00041F020018162012480F824502046F8BDD1
:100EC000002401403C00002040420F002DE9F04189
:100ED00004004FF0000514D0A06A002628B9E6628D
:100EE00084F82460204600F083F82046FFF716FFC0
:100EF000A16A01F01001014304D0A06A40F0100083
:100F0000A0626BE0A16A21F4885141F00201A16264
:100F1000334923688B42E16904D1B1F5402F01D1F7
:100F20004FF40021277B4FF4807C41EA470261683F
:100F30000A43A168614509D0012907D05FF000018B
:100F400094F814E0BEF1010F02D00AE06146F7E721
:100F5000C7B1A76A47F02007A762E76A47F0010711
:100F6000E7625F6827F469470F435F602368996809
:100F70001C4F394011439960A16861450BD001298C
:100F800009D00CE0DFF860E0A7690EEB47370F43AC
:100F900047F40061E5E7218A0D05A5F58015216874
:100FA000CB6A23F470032B43CB62216889680F4B13
:100FB0001940914208D1E662A16A21F0020141F094
:100FC0000101A162BDE8F081A06A20F0020040F0BA
:100FD0001000A062E06A40F00100E0620120F1E749
:100FE000003C0140FDF7E1FF00E0FFFFFE0E1FFFA8
:100FF00000B585B000210091019102910391006834
:101000000E49884218D10E48816941F4806181619E
:10101000816901F480610491816941F00801816175
:101020008069694600F008000490012000900320C8
:101030000190044800F0D6F805B000BD002801403A
:1010400000100240000C014010B590F82110002261
:10105000022905D00421816380F82020012010BDE1
:1010600001680B6823F00E030B6001680B6823F026
:1010700001030B6090F84030C46B012101FA03F3C7
:10108000636080F8211080F82020104610BD000019
:101090002DE9F05F90F821100024022903D00421EB
:1010A0008163012485E001680A6822F00E020A606B
:1010B00001680A6822F001020A603F4E3E4FB215F5
:1010C000DFF8F4C0DFF8F090DFF8ECA0DFF8E8B06C
:1010D000DFF8E4E00168783F13011502ACF1640C1D
:1010E000A9F15009AAF13C0AABF1280BAEF1140E9C
:1010F0004FF48018B14227D9B9420ED0614512D0C1
:1011000049451DD0514518D0594518D0714501D1D8
:10111000424615E0294EB14201D1012210E0274E8E
:101120001436B14201D110220AE0244E2836B142D1
:1011300006D0224A3C32914201D11A4600E02A46AA
:101140001E49091F0A602BE0B94213D0614517D030
:10115000494522D051451DD059451DD0714501D179
:1011600042461AE0B14202D14FF0807215E0134EB0
:10117000B14201D1012210E0104E1436B14201D12A
:1011800010220AE00D4E2836B14206D00B4A3C32FE
:10119000914201D11A4600E02A46074980394A6047
:1011A000012180F82110002180F82010416B01B14D
:1011B00088472046BDE8F09F8000024008040240B6
:1011C00070B5044600F010F90546601C02D00448D2
:1011D0000078044400F008F9401BA042FAD370BD27
:1011E000300000202DE9F84FDFF8C891002409F104
:1011F000040A0AF1040B23460F270BF1040ED1E079
:101200000125A54006EA0502AA4276D1DFF8A8C169
:101210004E68A6EB0C0866452BD00DDC032E34D0AF
:1012200005DC36B3012E19D0022E2FD11BE0112E72
:1012300016D0122E2AD119E0B8F5881F19D006DC75
:10124000B8F5803F15D0B8F5801F1FD111E0B8F573
:10125000001F0ED0B8F5041F18D10AE0CB6815E0C6
:10126000CB681B1D12E0CB6808330FE0CB680C3352
:101270000CE08B682BB1012B4FF0080303D04561C4
:1012800004E0042302E0056100E00023FF2A01D806
:10129000064601E000F104064FEA840501D9A5F1F4
:1012A0002005D6F8008007FA05FC28EA0C0803FAA6
:1012B00005F548EA0508C6F800804D68ED0070D5D0
:1012C0003E4DAE6946F00106AE61AD6924F00306FD
:1012D00005F0010500953A4D06EB050CDCF80850C9
:1012E000A607360F07FA06F825EA0805DFF8D480C6
:1012F000404503D14FF0000825E052E0DFF8C880F8
:10130000404502D14FF001081DE0DFF8C0804045A4
:1013100002D14FF0020816E0DFF8B480404502D158
:101320004FF003080FE0DFF8AC80404502D14FF0EA
:10133000040808E0DFF8A080404502D14FF005081E
:1013400001E04FF0060808FA06F848EA0508CCF86C
:1013500008804D68D9F80060ED034D4601D516436D
:1013600000E096432E604D68DAF80060AD03554604
:1013700001D5164300E096432E604D68DBF800600F
:10138000ED025D4601D5164300E096432E604D68A0
:10139000DEF80060AD02754601D5164300E09643C5
:1013A0002E60641C0A681646E2407FF429AFBDE84F
:1013B000F88F0000000401400000111000100240EE
:1013C0000000014000080140000C014000100140F5
:1013D0000014014000180140001C01400AB10161E5
:1013E00070470904FBE7000001488068704700006F
:1013F0003000002070B5040025D094F83D00002591
:1014000020B984F83C50204600F078FA242084F873
:101410003D002068016821F0010101602068016839
:1014200041F4004101602068016821F4004101603D
:1014300000F052FC4D4A6168914201D84C4900E0ED
:101440004C49884201D2012070BD4B492368B0FB52
:10145000F1F15E6826F03F060E435E6063689342DA
:1014600006D94FF4967359434FF47A73B1FBF3F1F5
:101470002368491C1E6A26F03F06314319626168E1
:10148000914210D84900401EB0FBF1F2521CC2F349
:101490000B02042A01D2042022E0B0FBF1F0401C30
:1014A000C0F30B001CE0A268F2B301EBC10303EB35
:1014B0000116431EB3FBF6F35B1C43F480431B058C
:1014C00049D092B301EBC10202EB0111401EB0FB07
:1014D000F1F0401CC0F30B0040F4804040F40040A9
:1014E0002168CA694CF6FF739A431043C861D4E976
:1014F000071001432068026822F0C0021143016016
:10150000D4E9030101432068826848F2FF339A431B
:1015100011438160D4E9050108432168CA6822F0BB
:10152000FF021043C86001E00EE016E02068016889
:1015300041F0010101602564202084F83D0025630D
:1015400084F83E50002070BD01EB4106431EB3FB02
:10155000F6F35B1CB3E70120C2E701EB4101401E3B
:10156000B0FBF1F0401CC0F30B00B7E7A086010010
:1015700080841E0000093D0040420F002DE9FF4F0E
:1015800083B00025DDE910799A4693460446DDF8DC
:1015900048800095FFF728FF064694F83D00202874
:1015A0007CD11923012285492046009601F03AFE9C
:1015B0000028F5D194F83C0001286FD0012084F870
:1015C0003C0020680168C90703D1016841F00101AE
:1015D00001602068016821F400610160222084F824
:1015E0003D00402084F83E0025646762A4F82A90FC
:1015F000608D20857248E062CDE9008653465A46E8
:101600002046049901F016FD00287DD1208DDFF8D9
:10161000B491202768B1012814D0022820680168FD
:101620001ED041F4806101602068416980690090AA
:10163000B6E02068416981690091016841F4007158
:101640000160ADE02068016821F48061016072B63C
:101650002068416981690091016841F400710AE0E4
:1016600041F40061016072B62068416981690091AE
:10167000016821F48061016062B691E0032868D8B6
:1016800001280CD0022843464FF00002494620466C
:1016900000960FD001F0C6FDB0BB10E08BE03246E3
:1016A0004146204601F03DFE70BB20680069616A3A
:1016B00008706CE001F0B6FD30BB72B634E0206813
:1016C000016821F48061016072B620680069616A76
:1016D0000870606A401C6062208D401E2085608D0D
:1016E000401E6085384846F2A8110068B0FBF1F052
:1016F000C0EBC00000EB80000090401E009008D0BE
:1017000020684069C04300E029E040070CD50098FC
:10171000F3E744F8305F6773A573206940F0200059
:10172000206162B625731AE02068016841F40071F7
:10173000016020680069616A0870606A401C60622C
:10174000218D491E2185618D491E618562B6216802
:101750001BE032464146204601F0E3FD18B101206E
:1017600007B0BDE8F08F20680069616A0870606AA0
:10177000401C6062218D491E2185618D491E618555
:1017800021684A69D24352070AD409690170606A24
:10179000401C6062208D401E2085608D401E60854B
:1017A000208D00287FF46AAF84F83D7084F83E50A5
:1017B00084F83C50D4E70220D2E700000200100079
:1017C0000000FFFF040001003C0000202DE9FF4F56
:1017D00083B09A46DDE9119793460446DDF84080D0
:1017E000FFF702FE054694F83D0020287FD119231B
:1017F000012240492046009501F014FD002876D1D1
:1018000094F83C00012872D0012084F83C00206844
:101810000168C90703D1016841F001010160206836
:10182000016821F400610160212084F83D0040201E
:1018300084F83E0000262664C4F82480A4F82A9088
:10184000608D20852C48E062CDE9007553465A46EC
:101850002046049901F06CFC70B930E02A46394604
:10186000204601F091FD58B1206C042804D1206875
:10187000016841F400710160012007B0BDE8F08FFC
:10188000606A216800780861606A401C6062218D8E
:10189000491E89B22185628D521E62852268536974
:1018A000DB435B070BD469B100781061606A401CB0
:1018B0006062208D401E2085608D401E6085208DD9
:1018C0000028CBD12A463946204601F085FC002865
:1018D000CAD154F83D0B016841F400710160202029
:1018E00004F81E09E67766770020C6E7FFE70220C6
:1018F000C3E70000020010000000FFFF10B586B033
:1019000000210091019102910391006813498842DE
:1019100022D1134CA06940F00800A061A06969467B
:1019200000F0080004904FF44070009012200190E5
:10193000032003900B48FFF755FC0B48416841F02A
:10194000E06141F002014160E06940F40010E061B3
:10195000E06900F40010049006B010BD005400408F
:1019600000100240000C0140000001400248816864
:10197000027811448160704730000020074810B59C
:10198000016841F010010160032000F075F80F209C
:1019900000F006F800F024F8002010BD00200240FE
:1019A00070B50D4D04464FF47A712878B1FBF0F014
:1019B0000A490968B1FBF0F000F074FB48B9102C3B
:1019C00007D200222146501E00F036F800206C603D
:1019D00070BD012070BD0000300000203C000020E0
:1019E0000C4808B5816941F001018161816901F00C
:1019F00001010091C16941F08051C161C06900F0ED
:101A0000805000900448416821F0E06141F000718D
:101A1000416008BD0010024000000140002809DBC1
:101A200000F01F02012191404009800000F1E020F8
:101A3000C0F8001170470000F0B40E4B1B680C4654
:101A4000C3F30223C3F10705042D00D90425191D92
:101A5000072901D2002300E0DB1E012606FA05F16A
:101A6000491E214099409E40761E16403143F0BCED
:101A700003F070BB0CED00E0064900F007020868B7
:101A80004FF6FF03184040EA0220034A1043086063
:101A9000704700000CED00E00000FA05BFF34F8F27
:101AA00005480168054A01F4E06111430160BFF394
:101AB0004F8F00BFFDE700000CED00E00400FA05C9
:101AC0002DE9F84305460078354CC00754D0E0694D
:101AD0000026C00008D4E06940F08050E061E06971
:101AE000012600F0805000902E480168C90512D4EC
:101AF0000168804641F480710160FFF775FC07467C
:101B000005E000BFFFF770FCC01B642823D8D8F89D
:101B10000000C005F6D5206A10F4407021D0A988D5
:101B200001F4407181421CD0206A1F49012220F437
:101B300040700A6000220A602062C00711D0FFF7DF
:101B400053FC074641F2883808E000BFFFF74CFC21
:101B5000C11B414502D90320BDE8F883206A8007F4
:101B6000F4D5206A696820F44070084320621EB1F1
:101B7000E06920F08050E0612878800705D5606832
:101B8000A96820F44040084360602878C00605D565
:101B90006068696920F48000084360600020DBE72A
:101BA0000010024000700040400442422DE9F0471E
:101BB0000F46050061D0434E306800F00700B84280
:101BC00009D2306820F0070038433060306800F0F8
:101BD0000700B84251D128683B4C810712D5400715
:101BE00003D5606840F4E06060602878000703D5A2
:101BF000606840F4605060606068A96820F0F000A0
:101C0000084360602878C00728D06868012810D091
:101C10002168022810D0890700292EDA616821F096
:101C2000030101436160FFF7DFFB804641F2883921
:101C30000DE021688903EFE78901EDE7FFF7D4FBA9
:101C4000A0EB0801494502D90320BDE8F087606890
:101C5000696800F00C00B0EB810FEFD1306800F044
:101C60000700B8420BD9306820F0070038433060D5
:101C7000306800F00700B84201D00120E5E728787D
:101C8000400705D56068E96820F4E06008436060BB
:101C90002878000706D56068296920F4605040EA7A
:101CA000C100606000F038F86168084AC1F30311B0
:101CB000515CC8400649086006480068FFF770FE9E
:101CC0000020C2E7002002400010024000920008FD
:101CD0003C000020340000200448054900684968A1
:101CE000044AC1F30221515CC84070473C00002007
:101CF0000010024010920008044805490068496835
:101D0000044AC1F3C221515CC84070473C00002026
:101D1000001002401092000812A185B00FC98DE892
:101D20000F0014A0144A006804905168134801F091
:101D30000C03042B10D0082B0ED1C1F38343C9032D
:101D40001DF803000AD5516804AAC1F34041515C53
:101D50000A4A5043B0FBF1F005B0704708494843C8
:101D6000FAE7000002030405060708090A0B0C0D38
:101D70000E0F1010010200000010024000127A0045
:101D800000093D002DE9F84F040070D02078C04DC7
:101D9000C00749D06868C0F38100012807D068688F
:101DA000C0F38100022809D16868C00306D52868FD
:101DB000800339D560680028E7D035E06068B0F569
:101DC000803F0BD010B1B0F5A02F11D0286820F4BF
:101DD00080302860286820F4802002E0286840F4E1
:101DE00080302860606890B1FFF7FEFA06460AE08E
:101DF000286840F480202860F0E700BFFFF7F4FA7D
:101E0000801B642873D828688003F7D50CE0FFF79F
:101E1000EBFA064605E000BFFFF7E6FA801B6428F0
:101E2000F0D828688003F7D420789A4E80074FF0C6
:101E300001094FF0000839D5686810F00C0F07D081
:101E40006868C0F38100022809D16868C00306D41D
:101E50002868800714D52069012808D110E020697E
:101E6000B0B1C6F80090FFF7BFFA074605E00AE1F7
:101E7000FFF7BAFAC01B0228C4D828688007F7D534
:101E80002868616920F0F80040EAC10028600DE090
:101E9000C6F80080FFF7A8FA074604E0FFF7A4FAA7
:101EA000C01B022823D828688007F7D420780007B1
:101EB0002CD57948A169D9B1C0F80090FFF794FA00
:101EC000074604E0FFF790FAC01B02280FD8686AA3
:101ED0008007F7D571484FF4FA510068B0FBF1F074
:101EE000009000BF0098411E0091FAD20EE080E001
:101EF000C0F80080FFF778FA074604E0FFF774FAAD
:101F0000C01B022875D8686A8007F7D4207840077C
:101F100060D5E8690027C00008D4E86940F0805027
:101F2000E861E869012700F0805000905C48016892
:101F3000C90513D40168834641F480710160FFF73D
:101F400053FA824606E000BFFFF74EFAA0EB0A0004
:101F500064284ED8DBF80000C005F5D5E0680128FC
:101F60000AD008B1052813D0286A20F001002862A1
:101F7000286A20F0040002E0286A40F0010028628C
:101F8000E06841F2883B98B1FFF72EFA82460BE0F9
:101F9000286A40F004002862EEE700BFFFF724FA49
:101FA000A0EB0A0159455AD8286A8007F6D50CE0FB
:101FB000FFF71AFA824605E0FFF716FAA0EB0A01CE
:101FC00059454CD8286A8007F6D41FB1E86920F03B
:101FD0008050E861E06988B36968C1F38101022932
:101FE00044D00228C6F8608004D0FFF7FDF904460B
:101FF00038E034E0FFF7F8F9074604E0FFF7F4F9BA
:10200000C01B02282BD828688001F7D4206AB0F5BD
:10201000803F05D16868A16820F4003008436860FB
:10202000D4E908010843696821F474110843686021
:10203000C6F86090FFF7D8F9044606E025E000BF37
:10204000FFF7D2F9001B022809D828688001F7D5CC
:102050001BE000BFFFF7C8F9001B022802D90320CC
:10206000BDE8F88F28688001F4D40EE00128F7D08D
:102070006868226A00F48031914204D1616A00F4F8
:102080007010884201D00120EAE70020E8E7000054
:102090000010024000004242800442423C00002006
:1020A0000070004010B5401EB0F1807F01D30120C8
:1020B00010BD4FF0E02460610F21601703F04AF873
:1020C0000020A06107202061002010BD70477047EC
:1020D00010B590F83C20012A22D0012280F83C2043
:1020E000CA688C6822F4407222434C6822F48062F1
:1020F00022430C6822F4006222430C6922F48052CD
:1021000022434C6922F400522243C969002322F47D
:1021100080420A4301684A6480F83C30002010BDC8
:10212000022010BD70B590F83C20012A2CD001246B
:1021300080F83C40022280F83D2003685A689D6880
:1021400022F070060A6832435A60104B02689A42C5
:102150000ED00F4B9A420BD0B2F1804F08D00D4BEE
:102160009A4205D00C4B9A4202D00C4B9A4204D1B1
:10217000496825F080031943916080F83D400021B3
:1021800080F83C10084670BD022070BD002C014054
:10219000003401400004004000080040000C0040F2
:1021A00010B5040003D094F83D0010B107E0012001
:1021B00010BD002084F83C00204600F01FF80220EB
:1021C00084F83D00211D206802F004FC012084F801
:1021D000460084F83E0084F83F0084F8400084F80C
:1021E000410084F8420084F8430084F8440084F8F5
:1021F000450084F83D00002010BD000008B5174AD6
:1022000001681748914207D1816941F400618161F9
:10221000806900F400601EE0124A914211D1C16948
:1022200041F01001C161C069002200F0100000906F
:1022300011463620FFF700FCBDE808403620FFF7C6
:10224000EDBB094A914207D1816941F40051816196
:10225000806900F40050009008BD0000002C01408F
:1022600000100240001000400034014090F83D1082
:10227000012901D001207047022180F83D1001683A
:10228000CA6842F00102CA6000680E4988420ED056
:102290000D4988420BD0B0F1804F08D00B498842DD
:1022A00005D00B49884202D00A49884204D181688E
:1022B00001F00701062903D0016841F00101016026
:1022C00000207047002C0140003401400004004011
:1022D00000080040000C004070B5044690F83C0037
:1022E000012817D0012584F83C50022084F83D00D5
:1022F0002068826822F0770222F47F4282600868B8
:10230000502830D00DDC20284DD005DC98B31028A3
:102310003BD148E0022070BD302844D0402834D161
:1023200039E0602828D0702806D0B0F5805F2CD026
:10233000B0F5005F29D10AE0CB68D1E9012120681E
:1023400002F09BFB2068816841F0770109E0CB68CF
:10235000D1E90121206802F090FB2068816841F4F6
:102360008041816011E0CA684968206802F05AFC27
:102370005021206807E016E0CA684968206802F02A
:1023800062FC6021206802F082FB84F83D5000204E
:1023900084F83C0070BDCA684968206802F042FCBD
:1023A00040212068EFE7226801461046EBE72DE95F
:1023B000F0410D46040003D094F83D0018B108E048
:1023C0000120BDE8F081002084F83C00204600F0A8
:1023D00041F8022084F83D002068816844F2070239
:1023E00091438160211D206802F0F4FA2268906810
:1023F0009169166A2B68AF69034340F20330814349
:1024000041EA0721A868EF6908434FF6FC41884379
:10241000E96840EA0720014328692F6A000140EA81
:102420000730084369686D6926F0220646EA0515FB
:10243000294393602268906154F8460B01620120A1
:1024400004F81F09E0752076E0762077A07500205B
:10245000B7E7000070B586B000250095019502959C
:10246000039500684549464A464E474CB0F1804FB7
:1024700022D0464B98424ED1C86940F00200C86154
:10248000C86900F002000490886940F00800886183
:102490008869694600F008000490302000903046BA
:1024A000FEF7A0FE606820F4406040F0E06040F479
:1024B0000060606006B070BDC86940F00100C8618E
:1024C000C86900F001000490886940F00400886148
:1024D000886900F004000490886940F00800886171
:1024E0008869694600F0080004904FF400400090AD
:1024F0001046FEF777FE0820CDE900056946304614
:102500000295FEF76FFE606820F4407040F0E060D6
:1025100040F48070CDE71E4B984214D1C86940F05A
:102520000400C861C86900F004000490886940F0A4
:10253000080088618869694600F008000490C0209E
:102540000090304616E0134B9842B3D1C86940F072
:102550000800C861C86900F008000490886940F06C
:10256000040088618869694600F004000490032033
:1025700000901046FEF736FE9CE700000010024077
:1025800000080140000C0140000001400004004030
:1025900000080040000C004070B590F83E60044612
:1025A00090F83F5090F8423090F84320022021B13B
:1025B00004290ED0012E1BD114E0012E18D1012BBD
:1025C00016D184F83E0084F84200012200212068E0
:1025D00020E0012D0CD1012A0AD184F83F0084F8B3
:1025E000430014E0012D03D1012B01D1012A01D0B8
:1025F000012070BD84F83E0084F83F0084F842005A
:1026000084F8430001220021206802F029FA012207
:102610000421206802F024FA2068016841F00101D9
:102620000160002070BD704770B504460068016904
:102630004FF00005C943890715D4C168C94389070C
:1026400011D4E91E0161012020772068806980078C
:10265000204602D0FFF7E7FF04E000F0D7F820465D
:1026600000F066F9257720680169C943490717D446
:10267000C168C943490713D46FF004010161022006
:1026800020772068806910F4407F204602D0FFF751
:10269000CAFF04E000F0BAF8204600F049F92577B7
:1026A00020680169C943090716D4C168C9430907ED
:1026B00012D46FF008010161042020772068C069FE
:1026C0008007204602D0FFF7AEFF04E000F09EF83E
:1026D000204600F02DF9257720680169C943C90615
:1026E00017D4C168C943C90613D46FF01001016142
:1026F000082020772068C06910F4407F204602D06F
:10270000FFF791FF04E000F081F8204600F010F997
:10271000257720680169C943C90708D1C168C94341
:10272000C90704D1891E0161204600F05DF92068C7
:102730000169C943090609D4C168C943090605D41A
:102740006FF0800101612046FFF7C0FC206801693D
:10275000C943490609D4C168C943490605D46FF085
:1027600040010161204600F04DF920680169C9432C
:1027700089060BD4C168C943890607D46FF02001CC
:1027800001612046BDE87040FFF7A1BC70BD0000AC
:1027900000B585B000210091019102910391164B83
:1027A0000268164802219A420FD1826942F004025F
:1027B00082618069039100F0040004904FF410607E
:1027C000CDE9000169460E4811E00E4B9A4210D146
:1027D000826942F0100282618069039100F010006A
:1027E00004904FF47070CDE9000169460648FEF789
:1027F000F9FC05B000BD0000002C014000100240B3
:10280000000801400034014000100140704770B5DD
:10281000044690F83C000D4601280AD0012084F8B7
:102820003C0042B1042A18D0082A2AD00C2A4DD1E3
:1028300039E0022070BD206802F032F92068816919
:1028400041F0080181612068816921F00401816102
:10285000206881692A69114311E0206802F050F96B
:102860002068816941F4006181612068816921F4F7
:1028700080618161206881692A6941EA0221816160
:1028800024E0206802F072F92068C16941F0080173
:10289000C1612068C16921F00401C1612068C1697A
:1028A0002A69114311E0206802F094F92068C16997
:1028B00041F40061C1612068C16921F48061C16196
:1028C0002068C1692A6941EA0221C161002084F8B7
:1028D0003C0070BD10B5040003D094F83D0010B169
:1028E00007E0012010BD002084F83C00204600F0E5
:1028F0001EF8022084F83D00211D206802F06AF8CD
:10290000012084F8460084F83E0084F83F0084F8F3
:10291000400084F8410084F8420084F8430084F8C1
:10292000440084F8450084F83D00002010BD704745
:102930007047000010B50446022249B104290ED0A8
:10294000082913D094F84100012816D0012010BDA9
:1029500094F83E000128F9D184F83E200FE094F865
:102960003F000128F2D184F83F2008E094F84000AD
:102970000128EBD184F8402001E084F841200122B5
:10298000206802F06DF813492068134A884201D08C
:10299000904203D1436C43F400434364206888426F
:1029A0000DD090420BD0B0F1804F08D00B49884237
:1029B00005D00B49884202D00A49884204D1816877
:1029C00001F00701062903D0016841F0010101600F
:1029D000002010BD002C01400034014000040040E4
:1029E00000080040000C0040044900680968884263
:1029F00002D103490120087070470000080300203D
:102A0000040100207047704770470000F8B5026865
:102A100004461068D168536910F00F0F4FF000059D
:102A200054D003F0010601F4907737435FD0C2071A
:102A300005D0CA0503D5226C42F001022264420788
:102A400005D5DA0703D0226C42F002022264820725
:102A500005D5DA0703D0226C42F004022264020793
:102A600007D501F02002324303D0226C42F0080265
:102A70002264226C002A35D0800604D5880602D54F
:102A8000204602F043F920684069216CC0F38010B1
:102A900001F008010143204625D002F0EEF820683D
:102AA000416949061BD5416921F040014161A06B94
:102AB000A8B158494163A06BFEF7EAFA002811D08B
:102AC000A06B416B01B0BDE8F040084783060ED50E
:102AD0008B060CD52046BDE8F84002F017B9204619
:102AE000FFF792FFF8BDFFF78FFF2564F8BD266B57
:102AF0002023012E52D1C60650D5CE064ED51068E1
:102B000050680090506940062AD5A16B086840685B
:102B10000004000CEAD0A68D8642E7D9E0858869DA
:102B2000202818D0D06820F48070D06020684169D7
:102B300021F0010141612068416921F040014161BA
:102B400084F83E3025632068C16821F01001C1601F
:102B5000A06BFEF779FAA08DE18D401A81B219E0E1
:102B6000A08DE18D401A81B2E08D0028BED00029F1
:102B7000BCD0D06820F49070D0602068426922F008
:102B80000102426184F83E3025632068C26822F069
:102B90001002C2602046FFF736FFF8BD05062BD5B0
:102BA0000D0629D594F83D002128F6D1A068B0F58E
:102BB000805F01D12069B0B1206A411C2162216887
:102BC00000784860E08C401E0004000CE084E4D1F2
:102BD0002068C16821F08001C1602068C16841F0AF
:102BE0004001C160F8BD206A0088C0F30800506051
:102BF000206A801C2062E5E74006F3D54806F1D53F
:102C0000D168204621F04001D16084F83D3000F0C9
:102C1000F8F9F8BD6B4C000870B5040004D094F8C6
:102C20003D00002510B106E0012070BD84F83C5045
:102C3000204600F023F8242084F83D002068C16875
:102C400021F40051C160204602F0BCF820680169FF
:102C500021F4904101612068416921F02A0141611C
:102C60002068C16841F40051C1602564202084F8C7
:102C70003D0084F83E00002070BD0000F0B585B036
:102C8000002400940194029403940368434F0220AB
:102C900043490322434D4602BB4225D18B6943F48D
:102CA00080438B618B6903F4804304938B6943F009
:102CB00004038B618969039201F00401049101020C
:102CC000CDE9001069462846FEF78CFACDE900648C
:102CD000694628460294FEF785FA0022114625200F
:102CE000FEF7AAFE252028E02F4FBB4229D1CB6951
:102CF00043F40033CB61CB6903F4003304938B6955
:102D000043F004038B618969039201F0040104918B
:102D10000421CDE9001069462846FEF763FA082031
:102D2000CDE90004694628460294FEF75BFA0022CA
:102D300011462620FEF780FE2620FEF76FFE05B026
:102D4000F0BD1A4DAB42FAD1CB6943F48023CB617D
:102D5000CB6903F4802304938B6943F010038B61E8
:102D60008969134D01F01001CDE90321CDE900601F
:102D700069462846FEF736FAE814CDE900046946AC
:102D800028460294FEF72EFA0A48416821F03001E5
:102D900041F0E06141F010014160D0E700380140AE
:102DA000001002400008014000440040004800407C
:102DB000001001400000014090F83E30202B0ED161
:102DC00059B152B190F83C30012B08D0012380F862
:102DD0003C300023036302F051B801207047022009
:102DE0007047000038B500684449884270D1444CAF
:102DF0002078492810D043A12046FDF708FA43491E
:102E0000002808685AD0012802DB41A002F07EF9B0
:102E1000BDE83840FEF742BEA0786179303800EB5B
:102E20004002C2EBC01001EBC001E07864225043C5
:102E3000227902EB820200EB42000844E179A27A97
:102E4000303901EB4103C3EBC11102EBC102217A1E
:102E500064235943637AA0F5A05003EB830301EB8D
:102E600043011144227BE37B303A02EB4205C5EB80
:102E7000C21203EBC203627B64256A43A57BA1F502
:102E8000A05105EB850502EB45021A446378A2F5D3
:102E9000A052D038D039D03A2D2B06D0A3792D2B83
:102EA00005D0E37A2D2B04D004E0404202E04942F1
:102EB00000E05242BDE8384005F084BF03280BDB38
:102EC000E01CFDF7C3F90090A3786278217800E058
:102ED00012E015A002F01AF9E01CFDF7B7F903465D
:102EE000A0783038C2B260783038C1B2207801B0F2
:102EF000BDE8304005F08EBF38BD0000003801400D
:102F00007804002052455345540000004000002042
:102F10004D4355205374617274205265736574215A
:102F20002121210D0A0000004D6F64653D25632CB1
:102F30004D6F746F724E756D3D307825782C4469F5
:102F4000633D307825782C70776D3D25640D0A003F
:102F50002DE9F843044690F83D001F4616460D46FD
:102F600020284CD1C5B1BEB194F83C00012846D010
:102F7000012084F83C004FF00008C4F84080212074
:102F800084F83D00FEF730FAA6848146E684A06806
:102F9000B0F5805F03D004E00120BDE8F88320692C
:102FA00028B12E465FF0000584F83C800EE0002634
:102FB000FAE78021204601F07CFFA0B9AEB116F8F7
:102FC000010B21684860E08C401EE084E08C4B4699
:102FD0004FF0000200970028EBD14FF0400120464F
:102FE00001F067FF30B10320D7E735F8020BC0F3DB
:102FF0000800E6E7202084F83D000020CDE702200D
:10300000CBE77047FEE701684A69D24352050FD407
:103010006FF480624A61002140F8301F2022427321
:103020008173026942F0040202610173012070475A
:10303000002070472DE9F84F0446006889460B9D33
:1030400001689846174641F4806101602068016874
:1030500041F48071016000954FF0011B0022594638
:1030600020460A9B00F0DEF84FF4007A40B1206859
:103070000068C00501D5C4F840A00320BDE8F88F62
:10308000216809F0FE0008612B46284920460A9A6B
:1030900000F0FCF8F0BB20684169806900902A4686
:1030A00020460A9900F070F940B1206C04283AD10A
:1030B0002068016841F40071016034E0FEB2B8F1AB
:1030C000010F09D02168380A08612A4620460A996A
:1030D00000F05AF90028E8D1206806612A46204607
:1030E0000A9900F051F90028DFD12068016841F405
:1030F0008071016000950022594620460A9B00F02D
:1031000091F80028B3D1216809F0FF0040F00100D8
:10311000086100E007E02B46044920460A9A00F0C7
:10312000B5F80028AAD00120A8E70000020001009D
:103130002DE9F843044600680D46DDE9089701686B
:103140009846164641F4807101604B4600224FF0CC
:1031500001112046009700F065F848B1206800682A
:10316000C00502D54FF4007020640320BDE8F88349
:10317000216805F0FE0008613B464A461549204695
:1031800000F084F888B920684169806900903A4667
:103190004946204600F0F8F848B1206C042804D1D4
:1031A0002068016841F4007101600120DEE7F5B29A
:1031B000B8F1010F09D02168300A08613A46494642
:1031C000204600F0E1F80028E7D1206805610020E2
:1031D000CCE700000200010070B516460D4604461B
:1031E0000DE02046FFF70FFF08B1012070BD681CFD
:1031F00005D0FEF7F9F8801BA84207D835B1206842
:103200004069C0434007ECD4002070BD002044F862
:10321000300F20216173A073216941F020012161E9
:103220002073E2E72DE9F0471E4690460D4604461E
:10323000C1F30747DDF8209008E0701C06D0FEF7C8
:10324000D3F8A0EB0900B0420FD876B12068012F67
:1032500018D0806925EA00000004000C14D0002179
:103260004145EAD00020BDE8F087002044F8300F47
:1032700020216173A073216941F020012161207335
:103280000120F0E74069E5E70121E9E72DE9F04792
:103290009A4691460E46044600254FF02008C1F399
:1032A000074725E020684069C043400514D42068E2
:1032B000016841F40071016021686FF48060486129
:1032C000256384F83D8084F83E50206C40F0040073
:1032D000206484F83C501FE0B9F1FF3F08D0FEF7AE
:1032E00083F8A0EB0A0149450CD8B9F1000F09D0C9
:1032F0002068012F13D0806926EA00000004000C2A
:103300000BD0CFE744F8305F84F80D80A5732069B7
:1033100040F02000206125730120BDE8F08740695E
:10332000EAE72DE9F041002590460E4604462027A5
:1033300017E04069C043C0060CD454F8301B6FF04E
:103340001000486144F810596777A577206A206219
:10335000257717E0FEF748F8A0EB0800B04208D840
:103360003EB120684169C9434906E2D40020BDE866
:10337000F08144F8305F6773A573206940F0200046
:10338000206125730120F2E770B516460D4604460C
:103390000DE02046FFF737FE08B1012070BD681C24
:1033A00005D0FEF721F8801BA84207D835B1206868
:1033B0004069C0430006ECD4002070BD002044F8F2
:1033C000300F20216173A073216941F02001216138
:1033D0002073E2E72DE9F84FC44E0C460188318096
:1033E000418871808188B180DFF80C83C088DFF864
:1033F00000B3DFF80093F080002508F11007A6F174
:10340000200A00BF36F91500FDF7AEF900224B4641
:10341000FDF71AFA19D258F82500FDF7A5F9002290
:103420005B46FDF729FA10D257F82500401C47F8F3
:103430002500DAF80000032820DB58F8252036F9AB
:103440001510AEA001F062FE18E036F91500FDF788
:103450008BF900225B46FDF70FFA0CD258F82500D5
:10346000FDF782F900224B46FDF7EEF903D257F83B
:103470002500401E00E0002047F825006D1C042DAB
:10348000C0DB9A48002520384646D0E902808146B4
:10349000964856F8251030F915709748103050F8B6
:1034A0002500C0EB00403844401AFDF75DF9424664
:1034B0004B46FDF7C5F8904ADFF864A2303202EBC4
:1034C000C502DFF860B2C2E9000146F825706D1C44
:1034D000042DDDDBDFF8208208F13008D8E902672F
:1034E000D8E904013B463246FCF791FF4FF0FF3923
:1034F0004A46FDF714F908F12005C5E90001D8E9AD
:10350000002339463046FDF723F84A46FDF707F910
:10351000C5E902017548012120384068FCF76BFFBE
:10352000FDF77FF989460090D8E906013B4632460F
:10353000FDF70EF84B46009AFDF782F8C5E9040145
:1035400005F0A2FBD5E90223FDF708F806460F4671
:10355000D5E9040103F0E8F8D5E90023FCF7FEFF04
:1035600032463B46FCF7F4FF05F11806C6E90001B8
:10357000D5E9040103F0D8F8D5E90223FCF7EEFF02
:1035800007468846D5E9040105F07EFBD5E900230E
:1035900081F00041FCF7E2FF43463A46FCF7D8FFD2
:1035A000C6E90201B4F90400FDF7DEF80022534633
:1035B000FDF746F805F068FBD6E90223FCF7CEFFDD
:1035C00007468846B4F90400FDF7CEF800225346BA
:1035D000FDF736F803F0A8F8D6E90023FCF7BEFFA4
:1035E00043463A46FCF7B4FF00225346FCF7B6FFC9
:1035F000FDF7F8F8218808442080B4F90400FDF7AD
:10360000B3F800225346FDF71BF803F08DF8D6E916
:103610000223FCF7A3FF07468846B4F90400FDF730
:10362000A3F800225346FDF70BF805F02DFBD6E971
:103630000023FCF793FF3A464346FCF7E8FE0022DE
:103640005346FCF78BFFFDF7CDF861880022084454
:103650006080D5E904015346FCF780FFFDF7C2F80E
:10366000A188084400B2A080FDF77EF85E465A4665
:103670002D4BFDF701F9B4F9040006D2FDF774F8FB
:1036800032462A4BFCF764FF0EE0FDF76DF8324638
:10369000274BFDF7D9F80AD2B4F90400FDF764F816
:1036A0003246224BFCF7B3FEFDF79CF8A080D5E92B
:1036B0000001002256465346FCF750FFFDF792F8F2
:1036C000E080D5E9020100221A4BFCF747FFFDF725
:1036D00089F82081D5E9040100223346FCF73EFF3A
:1036E000FDF780F86081BDE8F88F000068000020D9
:1036F0004099C940C099C9C09004002072656376A2
:103700005F636F756E743D25642C63757272656EB0
:10371000745F636F756E743D25640D0A00000000D0
:1037200000408F40386744692F8BA8402F8BB840EA
:103730002F8BA8C000408FC02DE9F0410746B0F99B
:103740000000FDF703F8DFF868804146FCF715FE3E
:10375000FDF767F8174C05460E46C4E90401B7F9B2
:103760000200FCF7F3FF4146FCF707FEFDF759F8AE
:10377000C4E9060102460B460F481049FCF760FFFA
:10378000FDF792F80E49606000200880488088802C
:103790000C4A0D4B28463146FCF7E0FE02460B462C
:1037A00000200A49FCF74CFFC4E90201BDE8F081A2
:1037B00000007A444800002090C2F5285C8FC23F88
:1037C00010010020140D3B549F20C83F0080A540ED
:1037D0002DE9F04F04468BB00D46B0F90000FCF720
:1037E000B5FF504E3146FCF7C8FD0190B4F9020018
:1037F000FCF7ACFF3146FCF7C0FD0090B4F90400C3
:10380000FCF7A4FF3146FCF7B8FD474C0146029097
:103810006068FCF780FD8046DDE900104646FCF755
:1038200074FD82463146FCF770FD404E074630601D
:10383000DDE90001FCF717FD83464146FCF765FD15
:103840008146706041465046FCF70DFDB060039024
:1038500041465846FCF707FD8046F0603846FCF7C5
:10386000E0FFD4E90223FCF779FE314E0022334613
:10387000FCF7E6FEFCF7B6FF00B228808346484618
:10388000FCF7CFFFD4E90223FCF768FE00223346A1
:10389000FCF7D6FEFCF7A6FF00B2688082460398CC
:1038A000FCF7BFFFD4E90223FCF758FE00223346A1
:1038B000FCF7C6FEFCF796FF00B2A88081464046A2
:1038C000FCF7AFFFD4E90223FCF748FE00223346A1
:1038D000FCF7B6FEFCF786FF00B2E8808046206861
:1038E00003281CDB0298FCF79CFF06460F46009855
:1038F000FCF797FF04460D460198FCF792FF0A4A31
:103900000B46D2E90212CDE90812CDE90698CDF8AE
:1039100014A08DE8F008024606A001F0F7FB0BB0FA
:10392000BDE8F08F00007A4448000020B004002079
:1039300000004940496E7075742825662C25662C58
:103940002566294F75747075742825642C25642CA0
:1039500025642C2564292C7469636B735F70657210
:103960005F6D657465723D25660D0A0010B51446DD
:10397000012806D0002811D1BDE81040012000F038
:103980008DBF09B1012902D1012000F0C3FE2246FA
:10399000BDE810400021024800F08CBE10BD0000C0
:1039A0005003002010B51446012806D0002811D17C
:1039B000BDE81040022000F071BF09B1012902D119
:1039C000022000F0A7FE2246BDE810400421024874
:1039D00000F070BE10BD00005003002010B514466A
:1039E000012806D0002819D1BDE81040032000F0BE
:1039F00055BF59B1012911D1032000F08BFE0848B1
:103A000022460C21BDE8104000F054BE00210320E6
:103A100000F080FE22460C210248F3E710BD0000B2
:103A200050030020A001002010B51446012806D044
:103A3000002819D1BDE81040042000F02FBF59B173
:103A4000012911D1042000F065FE08482246082112
:103A5000BDE8104000F02EBE0021042000F05AFE08
:103A6000224600210248F3E710BD00005003002069
:103A7000A001002070B5134C4FF4FA750BE02068DC
:103A8000012805DB05F08EFA01460FA001F03EFB90
:103A90002846FDF795FB05F085FA0028EFD14FF495
:103AA0007A7500BF02F0F4FF002809D020680128D1
:103AB00002DB0AA001F02AFB2846FDF781FBF1E7B3
:103AC00070BD00000000002030782578202849448F
:103AD0005F4552524F52290D0A000000446D70207C
:103AE000696E6974206572726F72200D0A000000A1
:103AF0003EB5002411480094019402940E4984605C
:103B0000016004730475012505614FF46021446070
:103B1000C161FDF7DBF908B172B6FEE70820CDE917
:103B20000005694602940548FDF752F9002801D0C6
:103B300072B6FEE73EBD0000002801401C010020D7
:103B40002DE9F04385B000242548009401940294A7
:103B50000394816941F020018161816901F02001B4
:103B60000491816941F010018161816901F01001C6
:103B70000491816941F004018161816901F00401CE
:103B80000491816941F0080181618069DFF8548006
:103B900000F0080041F23F0504900022294640460B
:103BA000FDF71CFCDFF840904FF4805700223946A7
:103BB0004846FDF713FC0095022601250396CDE942
:103BC000015469464046FDF70DFB00970396CDE989
:103BD000015469464846FDF705FB05B0BDE8F08392
:103BE00000100240001001400008014010B596B0DE
:103BF00000240F9410941194129413941C2168467D
:103C00001494FCF7F9FA202107A8FCF7F5FA2D48DF
:103C10002B4901600221C0E9011442F20F71C0E991
:103C200003148021C0E90541FEF7BAFA08B172B663
:103C3000FEE74FF480500F900FA92248FEF74CFB8F
:103C400008B172B6FEE71F48FEF744FE08B172B62F
:103C5000FEE7139413A91B481494FEF763FA08B106
:103C600072B6FEE76020CDE9000402940394049448
:103C700005940022694613480694FEF7C8FD08B172
:103C800072B6FEE70C2269460E48FEF7C0FD08B189
:103C900072B6FEE70794089409944FF400500A9412
:103CA000CDE90B4007A907480E94FEF711FA08B1B9
:103CB00072B6FEE70348FEF76BFD16B010BD0000BC
:103CC000002C0140A001002010B58CB024216846D2
:103CD000FCF792FA0024164809944FF080410A94A8
:103CE000C0E900144EF66021C0E902418021046160
:103CF00081610320CDE900040120CDE90204062101
:103D00000491CDE90540CDE9074169460848FEF731
:103D10004EFB08B172B6FEE7099409A904480A945B
:103D2000FEF700FA002801D072B6FEE70CB010BD15
:103D3000E801002010B58CB024216846FCF75CFA3D
:103D400000241648099414490A94C0E900144EF658
:103D50006021C0E90241046184610320CDE90004CF
:103D60000120CDE9020406210491CDE90540CDE909
:103D7000074169460948FEF71AFB08B172B6FEE72B
:103D8000099409A905480A94FEF7CCF9002801D046
:103D900072B6FEE70CB010BD0004004030020020F7
:103DA00010B58CB024216846FCF726FA002416488A
:103DB000099414490A94C0E900144EF66021C0E940
:103DC0000241046184610320CDE900040120CDE9B2
:103DD000020406210491CDE90540CDE90741694679
:103DE0000948FEF7E4FA08B172B6FEE7099409A99A
:103DF00005480A94FEF796F9002801D072B6FEE74E
:103E00000CB010BD000800407802002010B58CB046
:103E100024216846FCF7F0F9002416480994144957
:103E20000A94C0E900144EF66021C0E90241046121
:103E300084610320CDE900040120CDE902040621BC
:103E40000491CDE90540CDE9074169460948FEF7EF
:103E5000AEFA08B172B6FEE7099409A905480A94BA
:103E6000FEF760F9002801D072B6FEE70CB010BD75
:103E7000000C0040C002002010B596B000240F9442
:103E800010941194129413941C2168461494FCF716
:103E9000B3F9202107A8FCF7AFF935483349016091
:103EA0000221C0E9011442F20F71C0E9031480211C
:103EB000C0E90541FEF774F908B172B6FEE74FF4A8
:103EC00080500F900FA92A48FEF706FA08B172B683
:103ED000FEE72748FEF7FEFC08B172B6FEE7139432
:103EE00013A923481494FEF71DF908B172B6FEE732
:103EF0006020CDE900040294039404940594002208
:103F000069461B480694FEF782FC08B172B6FEE7CC
:103F1000042269461648FEF77AFC08B172B6FEE73D
:103F2000082269461248FEF772FC08B172B6FEE735
:103F30000C2269460E48FEF76AFC08B172B6FEE72D
:103F40000794089409944FF400500A94CDE90B406B
:103F500007A907480E94FEF7BBF808B172B6FEE752
:103F60000348FEF715FC16B010BD000000340140F8
:103F700050030020FEE7000010B504460C4800681E
:103F8000032803DB21460BA001F0C0F8201E02DD50
:103F90000246002103E004DA404202B2012101207E
:103FA00002E0024601210020BDE81040FFF7DEBC20
:103FB000700000204D6F746F725F415F53657453E2
:103FC00070656564205461726765642070776D2048
:103FD000636F756E74203D25640D0A0010B50446AC
:103FE0000C480068032803DB21460BA001F08EF883
:103FF000201E02DD0246002103E004DA404202B244
:104000000121012002E0024601210020BDE810400C
:10401000FFF7C8BC700000204D6F746F725F425F85
:1040200053657453706565642054617267656420DC
:1040300070776D20636F756E74203D25640D0A00E6
:1040400010B504460C480068032803DB21460BA08A
:1040500001F05CF8201E02DD0246002103E004DAD4
:10406000404202B20121012002E00246012100206B
:10407000BDE81040FFF7B2BC700000204D6F746FB8
:10408000725F435F53657453706565642054617259
:104090006765642070776D20636F756E74203D25B1
:1040A000640D0A0010B504460C480068032803DBC1
:1040B00021460BA001F02AF8201E02DD0246002155
:1040C00003E004DA404202B20121012002E002468C
:1040D00001210020BDE81040FFF7A6BC70000020C1
:1040E0004D6F746F725F445F5365745370656564A0
:1040F000205461726765642070776D20636F756E00
:1041000074203D25640D0A0010B5052000F0C6FBA3
:1041100000210C48FEF70EFC04210A48FEF70AFCB9
:1041200008210848FEF706FC0C210648FEF702FCB1
:1041300000210548FEF7FEFBBDE810400C210248B7
:10414000FEF7F8BB50030020A001002070470000DC
:104150002DE9F041254C451A4FF47A71A0692844A5
:10416000A061884202DC4942884200DAA161B4F9C8
:104170000200A1694843FCF7E9FADFF87480414680
:10418000FCF7C9F807466069B4F90410281A4843D7
:10419000FCF7DCFA4146FCF7BEF80646B4F900002D
:1041A0006843FCF7D3FA4146FCF7B5F83146FCF713
:1041B0005AF83946FCF757F80646B4F90600FCF7FA
:1041C000C5FA3146FCF74FF8FCF7DFFA00B2E080A1
:1041D0004FF4FA616561884202DC4942884200DAA4
:1041E000E180B4F90600BDE8F08100007400002011
:1041F0000AD7233C2DE9F041254C451A4FF47A713A
:10420000606A28446062884202DC4942884200DADF
:104210006162B4F90200616A4843FCF797FADFF87B
:1042200074804146FCF777F80746206AB4F9041019
:10423000281A4843FCF78AFA4146FCF76CF8064610
:10424000B4F900006843FCF781FA4146FCF763F8D3
:104250003146FCF708F83946FCF705F80646B4F98C
:104260000800FCF773FA3146FBF7FDFFFCF78DFA07
:1042700000B220814FF4FA612562884202DC494293
:10428000884200DA2181B4F90800BDE8F08100001D
:10429000740000200AD7233C2DE9F041254C451A33
:1042A0004FF47A71206B28442063884202DC494233
:1042B000884200DA2163B4F90200216B4843FCF71D
:1042C00045FADFF874804146FCF725F80746E06AB6
:1042D000B4F90410281A4843FCF738FA4146FCF7B1
:1042E0001AF80646B4F900006843FCF72FFA414675
:1042F000FCF711F83146FBF7B6FF3946FBF7B3FF81
:104300000646B4F90A00FCF721FA3146FBF7ABFF89
:10431000FCF73BFA00B260814FF4FA61E562884233
:1043200002DC4942884200DA6181B4F90A00BDE842
:10433000F0810000740000200AD7233C2DE9F041F1
:10434000254C451A4FF47A71E06B2844E0638842AB
:1043500002DC4942884200DAE163B4F90200E16B11
:104360004843FCF7F3F9DFF874804146FBF7D3FFCD
:104370000746A06BB4F90410281A4843FCF7E6F985
:104380004146FBF7C8FF0646B4F900006843FCF756
:10439000DDF94146FBF7BFFF3146FBF764FF3946C5
:1043A000FBF761FF0646B4F90C00FCF7CFF9314684
:1043B000FBF759FFFCF7E9F900B2A0814FF4FA616D
:1043C000A563884202DC4942884200DAA181B4F93F
:1043D0000C00BDE8F0810000740000200AD7233CE7
:1043E0007047000070B5164804F05AFE154804F0F6
:1043F000FFFA1348144C134DC18821800189618054
:104400004189A1800188E1804188218180880F4E07
:10441000608131462868FBF77EFFFCF7B6F9A08182
:1044200031466868FBF777FFFCF7AFF9E08131466A
:10443000A868FBF770FFFCF7A8F9208270BD0000A8
:10444000BC050020CC050020640400200000C84208
:1044500039493A480A88130A037042704A88130A95
:104460008370C2708A88130A03714271CA88130A62
:104470008371C2710A89130A037242724A89130A4C
:104480008372C2728A89130A03734273CA89130A38
:104490008373C273098A0A0A0274417428490A881C
:1044A000130A8374C2744A88130A037542758A8892
:1044B000130A8375C275CA88130A037642760A897D
:1044C000130A8376C27649890A0A027741771D4921
:1044D0000A88130A8377C2774A88130A80F8203043
:1044E00080F821208A88130A80F8223080F823205F
:1044F000C9880A0A80F8242080F8251012490A8801
:10450000130A80F8263080F827204A88130A80F89A
:10451000283080F829208A88130A80F82A3080F809
:104520002B20C9880A0A80F82C2080F82D1006223A
:10453000302100F0BBBB000064040020080500200F
:10454000100100200E0000202600002070B58AB067
:10455000FCF726FC474CA0F5EA4030382080FCF7F9
:1045600025FCA0F5EA4030386080FCF725FC47F2D6
:104570003055281AA080FCF725FC281AE080284630
:1045800000F080F8284600F083F8284600F086F80E
:10459000284600F089F804F10800228801881144B7
:1045A000018041886288114441808188A288114439
:1045B0008180C188E2881144C1802F49FEF70AFF3B
:1045C00004F11801A01FFFF703F904F11806B4F96C
:1045D0000010B6F90000FFF7BBFD04F110052880BC
:1045E000B4F90210B6F90200FFF704FE6880B4F9CE
:1045F0000410B6F90400FFF74FFEA880B4F90610C6
:10460000B6F90600FFF79AFEA4F10E01E8800968EA
:1046100003291BDBB5F90410B5F90230B5F9002008
:10462000CDE90710CDE90523B4F90000019002900F
:1046300003900490B6F906000090B6F90430B6F97C
:104640000220B6F900100D4800F060FDB5F9000039
:10465000FFF792FCB5F90200FFF7C0FCB5F90400C2
:10466000FFF7EEFCB5F906000AB0BDE87040FFF7B1
:1046700019BD00000E00002010010020F8A0000865
:10468000704700000149096848627047E80100204E
:1046900001490968486270477802002001490968A9
:1046A00048627047C00200200149096848627047AB
:1046B00030020020006829B1042905D0082905D05E
:1046C000026470474263704782637047C2637047F9
:1046D00010B53C210848FDF75FFF3C210748FDF776
:1046E0005BFF3C210648FDF757FFBDE810403C2129
:1046F0000448FDF751BF0000E8010020C00200207F
:1047000078020020300200200148FDF7AFBD000014
:104710000803002070B50C464149404E41F28835EF
:10472000096801280CD0022822D003283ED0042892
:1047300055D0012970DBBDE870403AA000F0E6BC1E
:10474000032903DB21463FA000F0E0FC4CB1012C23
:1047500062D12A4600214048FFF7ACFF0022102119
:1047600018E02A4600213C48FFF7A4FF0122F6E7A3
:10477000032903DB214639A000F0C8FC4FF4805325
:104780006CB1012C48D12A4604213348FFF792FF2F
:10479000002219463046BDE87040FCF71FBE2A468D
:1047A00004212D48FFF786FF0122F2E7032903DBEE
:1047B00021462FA000F0AAFC54B1012C2CD12A468E
:1047C0000C212548FFF776FF00220C212D481FE021
:1047D00000220C212048FFF76DFF2A46F5E7032948
:1047E00003DB214628A000F091FC4CB1012C13D131
:1047F0002A4608211848FFF75DFF00221146E5E729
:104800002A4600211F48FFF755FF002212480821C1
:10481000BDE87040FFF74EBF70BD000000100140C2
:104820007000002053746172745F4D6F746F723A40
:104830004E6F74206D61746368204D6F746F720DDC
:104840000A0000004D4F544F525F4120444943201D
:104850003D2025640D0A0000500300204D4F544FA9
:10486000525F4220444943203D2025640D0A000048
:104870004D4F544F525F4320444943203D2025640F
:104880000D0A0000A00100204D4F544F525F4420FC
:10489000444943203D2025640D0A000010B5062838
:1048A00034D2DFE800F03303060A121E002211465C
:1048B00001E0002204211A480FE000220C211848D0
:1048C000FFF7F8FE00220C2106E000220821144820
:1048D000FFF7F0FE002211461248BDE81040FFF736
:1048E000E9BE002211460E48FFF7E4FE0022042133
:1048F0000B48FFF7DFFE00220C210948FFF7DAFE24
:1049000000220C210748FFF7D5FEDEE706480068C5
:10491000012804DBBDE8104004A000F0F7BB10BD87
:1049200050030020A00100207000002053746F701D
:104930005F4D6F746F723A4E6F74206D617463686F
:10494000204D6F746F720000FDF710B830B595B050
:1049500028216846FBF750FC14210AA8FBF74CFC01
:1049600018210FA8FBF748FC01210804CDE900102D
:104970000025029502240491CDE907404FF4E01090
:1049800009906846FDF7FEF908B172B6FEE70AA97C
:104990000F2081E831004FF48060CDE90D05022140
:1049A0000AA8FDF703F908B172B6FEE74FF400401C
:1049B00011900F940FA8FDF783F8002801D072B66C
:1049C000FEE715B030BD70470148FDF72DBE000071
:1049D00008030020F0B502681C4B1D4D1D4E1E4FF4
:1049E0001E4C4FF0804C984209D0A04207D0604541
:1049F00005D0A84203D0B04201D0B84204D122F081
:104A0000700E4A6842EA0E02984209D0A04207D0CE
:104A1000604505D0A84203D0B04201D0B84203D1CE
:104A200022F44075CA682A434D6922F080022A4365
:104A300002608A68C2620A688262984201D0A0421B
:104A400001D10969016301214161F0BD002C0140E0
:104A50000004004000080040000C00400034014009
:104A600010B501F01F030121046A99408C430462D0
:104A7000016A9A401143016210BD10B5846842EA90
:104A8000032224F47F440A432243826010BD8268DB
:104A900022F070020A4342F0070181607047000073
:104AA000F0B5026A22F001020262036A4268846978
:104AB000124E24F073050C682C4323F002058B681A
:104AC0002B430D4DA84201D0B04205D123F0080779
:104AD000CB683B4323F00403A84201D0B04205D188
:104AE0004D6922F4407215438A692A434260846109
:104AF000496841630362F0BD002C0140003401406D
:104B0000F0B5026A22F010020262026A4368846908
:104B10000D6824F4E64444EA05248D6822F020025E
:104B200042EA05120F4D104EA84201D0B04206D104
:104B3000CF6822F0800242EA071222F04002A84227
:104B400001D0B04207D14D6923F4406343EA8503A5
:104B50008D6943EA85034360846149688163026229
:104B6000F0BD0000002C014000340140F0B5026AA5
:104B700022F480720262026A4368C46922F40072FD
:104B800024F073050C68124E2C438D6842EA05220E
:104B90000E4DA84201D0B04206D1CF6822F4006287
:104BA00042EA072222F48062A84201D0B04207D133
:104BB0004D6923F4405343EA05138D6943EA051315
:104BC0004360C4614968C1630262F0BD002C0140CA
:104BD0000034014030B5026A22F480520262046A55
:104BE0004268C3690D6823F4E64343EA05238D68F0
:104BF00024F4005444EA0534084DA84202D0084D7C
:104C0000A84204D14D6922F4804242EA85124260F2
:104C1000C36149680164046230BD0000002C01409A
:104C20000034014010B5036A046A24F001040462F0
:104C3000846924F0F00444EA021423F00A020A43CF
:104C40008461026210BD10B5036A23F01003036291
:104C50008369046A23F4704343EA023224F0A00318
:104C600043EA01118261016210BD10B5406A002162
:104C7000C185C184FDF7C8FE10BD0168CA6822F471
:104C80009072CA6001684A6922F001024A61016BB0
:104C9000012904D10168CA6822F01002CA602021EB
:104CA00080F83E100021016370470000F0B400243A
:104CB000322923D8124BAA251D7055255D704D1D34
:104CC0009D70DA70002204E0865C9F18521C3E71D1
:104CD000D2B28A42F8D3091DC9B2002004E01A5C9E
:104CE000401C2244D4B2C0B28842F8D31C54EAB269
:104CF000F0BC044B02490448FEF72AB9F0BC7047E7
:104D000080050020FFFF0F00DC03002008B590F8AD
:104D10003E10222901D0022008BD82684FF4805342
:104D20009A4201D1016921B1816A9A421BD04AB1EC
:104D30000AE00268816A5268C2F308020A80816A46
:104D4000891C08E0026972B10268526802F07F02B1
:104D50000A70816A491C8162C18D491E0904090CCF
:104D6000C18503D019E002685268F1E70168CA689A
:104D700022F02002CA600168CA6822F48072CA6008
:104D800001684A6922F001024A61202180F83E1040
:104D9000016B012903D0FEF725F8002008BD002192
:104DA00001630168CA6822F01002CA6001680A68DB
:104DB000D20602D50A6849680091818DFDF723FE6D
:104DC000EBE7000070B5044600680169E26821F471
:104DD0004051114301612169A0680843616908439A
:104DE0002168CA6841F20C639A430243CA60206892
:104DF0004169A26921F44071114341611E49206853
:104E0000884202D1FCF778FF01E0FCF765FF00EB78
:104E1000C00101EB0012606864218000B2FBF0F376
:104E2000B3FBF1F36FF018067343B2FBF0F5B2FB7E
:104E3000F0F605EB8305322303EB0515B5FBF1F521
:104E4000B6FBF1F605F0F00505EB0615B2FBF0F642
:104E5000B2FBF0F0B0FBF1F06FF01802504306EB3C
:104E6000800003EB0010B0FBF1F0216800F00F00B0
:104E70002844886070BD000000380140816282854E
:104E8000C28500210164222280F83E2080F83C1077
:104E90000168CA6842F48072CA6001684A6942F0D7
:104EA00001024A610068C16841F02001C160002030
:104EB00070472DE9F041984617460E460446069D78
:104EC0001DE0681C1BD02DB1FCF78EFAA0EB08008A
:104ED000A84214D92068C16821F4D071C16020684B
:104EE000416921F001014161202084F83D0084F8EE
:104EF0003E00002084F83C000320BDE8F0812068DB
:104F0000006836EA000004D00020B842D9D0002062
:104F1000F3E70120F9E7000010B50548FDF776FD3D
:104F2000BDE81040102203490148FDF745BF0000CD
:104F30009803002078040020054810B500684068F8
:104F4000C0B200F007F8BDE810400148FDF75EBDB3
:104F5000DC0300202DE9F041474C0025474E217825
:104F6000032915D231B1012909D0B0700321217074
:104F7000401E16E0AA2807D13070012003E0552812
:104F800004D1707002202070BDE8F0812570FBE72D
:104F9000B278521E8A4206DD7054491C2170617835
:104FA00008446070F0E761788842EDD13348F778C3
:104FB0008188C2880389112F02D0122F32D043E09A
:104FC00048BA52BA01B216B22D485ABA13B2018089
:104FD000468041F288328380914200DD0280B0F940
:104FE000007028498F4200DA0180964200DD42803D
:104FF000B0F902608E4200DA4180934200DD828087
:10500000B0F904208A4200DA818061680329BDDB9F
:10501000B0F90430B0F90220B0F900101AA000F085
:1050200075F8B3E748BA01B22148018050BA02B21C
:105030002048028058BA03B21F48038060680128E4
:10504000A4DB1EA000F062F8F07813289ED1B0888F
:10505000234F40BA3880F08840BA78803846FEF74F
:105060006BFB6068012891DBB7F90220B7F90010EB
:105070001CA000F04BF889E7B40000204405002094
:105080000800002078ECFFFF5265636569766520B3
:10509000524F5320537065656428782C792C7961C0
:1050A00077293D25642C25642C25640D0A00000019
:1050B00074000020760000207800002052656365AF
:1050C00069766520524F532050494428502C492C72
:1050D00044293D25642C25642C25640D0A0000001C
:1050E00004000020726F626F745F706172616D7393
:1050F0002825642C2564290D0A0000000148FDF7CD
:1051000085BC000020040020FEE700000FB4054B22
:1051100010B503A9044A029800F01AFC10BC5DF80F
:1051200014FB00003577000808010020490050EA10
:10513000C12018BF04204A0D18BF40F0010040F202
:10514000FF72B2EB515F08BF40F00200012808BFB8
:10515000052070470907090E002804DB00F1E02054
:1051600080F80014704700F00F0000F1E02080F894
:10517000141D7047004870470C0100202DE9F74FBF
:10518000144694B00021C4E902111599079121F049
:105190000045C9498D4206DC1599C4E9000117B0E4
:1051A0000020BDE8F08FC549DFF814A3A9423CDD1B
:1051B0000799C44E0029C44FC44A1599534619DDB6
:1051C000FBF7C6F9554506D0C14AC24BFBF7C0F9FB
:1051D000C4E900010AE04FF0D352BE4BFBF7B8F927
:1051E00032463B46FBF7B4F9C4E9000117B0012091
:1051F000BDE8F08FFBF70BF9554506D0B44AB54B27
:10520000FBF705F9C4E900010AE04FF0D352B14BB6
:10521000FBF7FDF832463B46FBF7F9F8C4E900011D
:1052200017B04FF0FF30BDE8F08FAB49A942159998
:1052300078DB21F0004183468846A84AA84BFBF75B
:105240008DF90022A74BFBF7E2F8FBF7CBFA0990A8
:10525000FBF78AFA06460F469C4A5346FBF77EF94F
:1052600043465A46FBF777F980468A46984A994B57
:1052700030463946FBF772F92A0D01250B9242465A
:105280005346FBF768F9032DC4E9000139D00B98A8
:10529000C1F30A51401A05EB45111139814230DA48
:1052A0009148C346784400EB0510CDF80CA00C9053
:1052B000D0E9002330463946FBF750F902460B4649
:1052C0000491069058460399FBF742F980468A46B6
:1052D00002460B4658460399FBF73AF9049B069A97
:1052E000FBF736F983460C9803913946D0E902233F
:1052F0003046FBF733F95A46039BFBF729F96D1C3F
:10530000BDE707980028A2BF099817B0BDE8F08F45
:10531000616881F000416160099817B04042BDE8C2
:10532000F08FFFE784461598C1F31301C0F30A50CC
:10533000A0F2F5304FEA601800F01F06C6F1200019
:10534000139000200690079041F4801E05206D46C2
:1053500076B1664A08EB00017A4452F8213002EB3C
:105360008101B3404A68139922FA01F1194305E01B
:105370005F4908EB0002794451F82210A1FB0E2787
:10538000A1FB0C131A449A4234BF0123002303EB00
:10539000070A05EB8003D3E901B70F448F4234BFFE
:1053A0000121002193448B4411B1934502D903E0BC
:1053B000934501D2012100E00021C3E901B7514426
:1053C00045F82010011EA0F10100C1DC0298059FE4
:1053D00000F10050800F12900298DDE90356800022
:1053E000FBF7C2F9834628460D91FBF77BFC6FF073
:1053F0001D02FBF794F9CDE90E013046FBF772FC74
:105400006FF03D02FBF78BF980468A463846FBF782
:1054100069FC6FF05D02FBF782F90746424653468E
:105420001191FAF7F4FFDDE90E23FAF7F0FF5A467F
:105430000D9BFAF7ECFF00250E465A4628460D9BB9
:10544000FBF786F8DDE90E23FBF782F84246534668
:10545000FBF77EF83A46119BFBF77DF8DFF898A042
:10546000244A5346FBF77AF807468846234A244BDA
:1054700031462846FBF772F83A464346FAF7C7FF2B
:10548000074688464FF0A842534631462846FBF768
:1054900065F83A464346FAF7BAFF159A12F0004FFC
:1054A00004D0129A81F0004152421292C4E90001E4
:1054B000129817B0BDE8F08FFB21E93F7CD902407C
:1054C000FB21F93F7370032E8A19A33B000040545F
:1054D0003163621A61B4D03DFB21394183C8C96D83
:1054E000305FE43F0000E03FD84C0000544C000027
:1054F000364C0000182D4454FB21F93D3326A611EB
:10550000460B113C2DE9FF4D21F0004807460C46A3
:10551000B8F1795F08DAFBF765F9002801BF0020D0
:10552000324904B0BDE8F08D3A462346104619468C
:10553000FBF714F8054602462D480E460B46062199
:10554000784400F05DF82A463346FBF707F8DDE9BA
:10555000022382468B4638462146FAF7FFFF04466F
:105560000F4652465B4628463146FAF7F7FF224679
:105570003B46FAF7EDFF07468A464FF0FF322846D2
:105580003146FBF7CCF81B4A90450ADA3A465346B7
:10559000FAF7DEFF04B00022BDE8F04D134BFAF736
:1055A000DABF154A4245A8BFA8F500154FF0000420
:1055B000B8BF124D22462B46FAF7CAFF0646884668
:1055C00022462B4600200949FAF7C2FF04460D4641
:1055D0003A46534630464146FAF7BAFF04B02246EF
:1055E0002B46BDE8F04DFAF7B6BF00000000F03FD3
:1055F000044A00003333D33F0000E93F0000D23FAC
:105600002DE9F0414F1E00EBC7010446D1E900012E
:1056100015461E4637F006020DD02A463346FAF7E5
:105620009DFF7F1E04EBC703D3E90023FAF7EFFECB
:1056300037F00602F1D1022F25D0042F13D0062F08
:1056400018BFBDE8F0812A463346FAF787FFD4E950
:105650000A23FAF7DCFE2A463346FAF77FFFD4E93D
:105660000823FAF7D4FE2A463346FAF777FFD4E93F
:105670000623FAF7CCFE2A463346FAF76FFFD4E941
:105680000423FAF7C4FE2A463346FAF767FFD4E943
:105690000223FAF7BCFE2A463346FAF75FFFD4E945
:1056A0000023BDE8F041FAF7B2BE00002DE9FF4D3E
:1056B000054621F0004084B00C46B0F1795F0BDA6A
:1056C0002846FFF733FD042808BF00F071F828468C
:1056D00008B02146BDE8F08D2A460B461046FAF781
:1056E0003DFF06460F462A462346FAF737FF804617
:1056F00026488A4632463B4605217844FFF780FF1C
:1057000083461098029160B3214A224B404651468D
:10571000FAF724FFCDE900015A4640465146029B64
:10572000FAF71CFF82468846DDE906014FF0FF329A
:10573000FAF7F5FF52464346FAF70AFF32463B4670
:10574000FAF70CFFDDE90623FAF702FFDDE9002393
:10575000FAF7FEFE08B02A462346BDE8F04DFAF7F8
:10576000FABE0B465A4630463946FAF7F7FE084A63
:10577000084BFAF74CFE42465346FAF7EFFE08B0E4
:105780002A462346BDE8F04DFAF741BE4A490000DB
:10579000495555555555C5BF0122FAF7C0BFFAF70F
:1057A00036BE0022134610461146FAF749BF0000E4
:1057B000024A00201107FAF7B2BF000001FDFFFF07
:1057C00002E008C8121F08C1002AFAD170477047CA
:1057D000002001E001C1121F002AFBD17047000028
:1057E00001490860704700000C0100202DE9FF5FAF
:1057F000DDE90220010DDDF838B0024318D044F68F
:105800001050A1F2FF3141430D140F98012820D010
:10581000A5EB0B00401C5FEA000A4FF00004474E66
:10582000DFF81C91A046504616D5CAF1000728E0C3
:105830000F98012443A2012808D0002100980F9B53
:10584000C0E90021C0E90243BDE8FF9F6FEA0B01F8
:10585000F4E7CBF10000DEE7074612E0F80707D0D7
:105860002246334640464946FAF778FE8046894646
:105870002246334610461946FAF770FE04460E4695
:105880007F10002FEAD1DDE90201BAF1000F424694
:105890004B4602DAFAF762FE01E0FAF7D1FE04465F
:1058A0000E460022284BFAF7E7FF03D84FF0FF30EF
:1058B000014607E00022254B20463146FAF7A7FDB6
:1058C000FBF742F9102409E0002C0ADB0A2200232E
:1058D000FBF71CF8019B30321A55641E50EA010296
:1058E000F2D1641C019AC4F1110314440F9A012AE5
:1058F00003D0012208430DD10AE0084304D0002060
:105900004FF0110B0F9080E7A3EB0B056D1E0DE020
:105910005B4504DD4FF0000205F1010504E003DA08
:105920004FF00002A5F10105002AECD000980F9974
:10593000C0E90231C0E9004586E7000000002440CC
:105940000000F03F300000000000F0430000E03FA6
:105950002DE9FF4F95B09B468946064600250FE28C
:10596000252877D100242746F84A0121059400E034
:10597000044316F8013F203B01FA03F01042F7D12F
:1059800030782A2811D06FF02F033078A0F1300240
:10599000092A16D8059A44F0020402EB820203EBAE
:1059A00042021044761C0590EFE759F8042B05924B
:1059B000002A03DA504244F40054059044F00204F3
:1059C000761C30782E2816D116F8010F44F0040406
:1059D0002A280DD06FF02F023078A0F13003092B68
:1059E00009D807EB870302EB4303C718761CF3E7DC
:1059F00059F8047B761C30786C280FD006DC4C28D4
:105A000017D068280DD06A2814D104E0742810D06B
:105A10007A280FD10DE044F400140AE044F4801415
:105A200001E044F440147278824202D104F58014FB
:105A3000761C761C307866280BD013DC582877D07B
:105A400009DC002875D04528F6D04628F4D0472830
:105A50001AD19DE118E0632835D0642879D06528F3
:105A600012D195E1702873D008DC6728F1D069283D
:105A70006FD06E280DD06F2806D1B5E073282CD0DA
:105A8000752875D0782874D05A46179990476D1CA0
:105A900075E1C4F30250022809D003280DD0D9F8CB
:105AA000001004280DD00D6009F1040967E1D9F850
:105AB0000010EA17C1E90052F6E7D9F800100D808E
:105AC000F2E70D70F0E719F8041B8DF800100020C4
:105AD0008DF80100EA46012003E059F804AB4FF0CD
